:100000000C9473000C949B000C949B000C9457056B
:100010000C9457050C9457050C949B000C949B0072
:100020000C949B000C949B000C949B000C949B00E4
:100030000C949B000C949B000C949B000C949B00D4
:100040000C9463090C949B000C949A030C94740315
:100050000C949B000C949B000C949B000C949B00B4
:100060000C949B000C949B00005EBCE2613FDD831E
:10007000C29C7E20A3FD1F41009D23BE46DB65F888
:100080008C11AF32CA57E97400000000230026002B
:10009000290000000000250028002B0004040404AF
:1000A0000404040402020202020203030303030322
:1000B00001020408102040800102040810200102FF
:1000C0000408102000000000240027002A0000007F
:1000D0000008000201000003040700000000000007
:1000E0000000CF10A71011241FBECFEFD8E0DEBF55
:1000F000CDBF24E0ACEBB2E001C01D92AD31B20740
:10010000E1F712E0A0E0B1E0EAE2FFE202C0059010
:100110000D92AC3BB107D9F710E0C2E7D0E004C0C4
:100120002197FE010E947D15C137D107C9F70E94B2
:10013000AD090C9488170C9400000895CF92DF92BB
:10014000EF92FF920F931F93CF93DF936C017A018D
:100150008B01C0E0D0E0CE15DF0581F0D8016D91B4
:100160008D01D601ED91FC910190F081E02DC60149
:100170000995892B11F02196EECF7E01C701DF9101
:10018000CF911F910F91FF90EF90DF90CF90089546
:10019000FC01538D448D252F30E0842F90E0821B8D
:1001A000930B541710F0CF96089501970895FC0112
:1001B000918D828D981761F0828DDF01A80FB11D9E
:1001C0005D968C91928D9F5F9F73928F90E00895C2
:1001D0008FEF9FEF0895FC01918D828D981731F07C
:1001E000828DE80FF11D858D90E008958FEF9FEFD0
:1001F0000895FC01918D228D892F90E0805C9F4FA6
:10020000821B91098F739927089580E093E00E94E3
:10021000F90021E0892B09F420E0822F0895FC01E8
:10022000848DDF01A80FB11DA35ABF4F2C91848D7F
:1002300090E001968F739927848FA689B7892C93B4
:10024000A089B1898C91837080648C93938D848D07
:10025000981306C00288F389E02D80818F7D80830A
:100260000895EF92FF920F931F93CF93DF93EC01CA
:1002700081E0888F9B8D8C8D981305C0E889F98962
:10028000808185FD26C0F62E0B8D10E00F5F1F4F7D
:100290000F731127E02E8C8DE8120CC00FB607FCEF
:1002A000FACFE889F989808185FFF5CFCE010E94D8
:1002B0000F01F1CF8B8DFE01E80FF11DE35AFF4FC7
:1002C000F0829FB7F8940B8FEA89FB898081806266
:1002D0000AC09FB7F894EE89FF896083E889F9899D
:1002E00080818370806480839FBF81E090E0DF9194
:1002F000CF911F910F91FF90EF900895CF93DF93CF
:10030000EC01888D8823C9F0EA89FB89808185FD0D
:1003100005C0A889B9898C9186FD0FC00FB607FC6E
:10032000F5CF808185FFF2CFA889B9898C9185FFAF
:10033000EDCFCE010E940F01E7CFDF91CF9108955D
:1003400080E090E0892B29F00E94050181110C9436
:10035000000008952091BE023091BF02281739078E
:1003600071F49091BC028091BD02981741F0E09128
:10037000BC02F0E0E054FD4F808190E008958FEFE3
:100380009FEF089508951F93CF93DF93DC015C9650
:100390008D919C915D97009739F421E030E01396A0
:1003A0003C932E9312973BC05196ED91FC9152973E
:1003B00050962C915097322F30951FB75E964C91E6
:1003C0005E97742F727041FD6095F8944081772399
:1003D00011F0422B01C043234083EC012197F1F738
:1003E00048E0508160FF02C0522B01C0532350836C
:1003F000EC012197F1F76695415099F780817723B9
:1004000019F08323808302C0282B20831FBF5C96B2
:100410008D919C915D970197F1F781E090E0DF91DC
:10042000CF911F9108952091BE023091BF022817ED
:10043000390771F48091BD022091BC0290E0805C8C
:100440009F4F821B910960E470E00E94331508956C
:1004500080E090E008952091BE023091BF022817FD
:100460003907B9F49091BC028091BD02981789F0C8
:10047000E091BC02F0E0E054FD4F80812091BC028D
:1004800030E02F5F3F4F2F7333272093BC0290E063
:1004900008958FEF9FEF089580E090E008950E9407
:1004A0006A170F931F93CF93DF93EC018881998193
:1004B000009729F02A813B812617370788F48B01A2
:1004C0006F5F7F4F0E94A416009761F09983888325
:1004D0001B830A832C813D81232B11F4FC011082A4
:1004E00081E001C080E0DF91CF911F910F910895CD
:1004F0000C941B160C941B160C941B160C941B16B8
:100500000C941B160C941B16CF93DF93EC0161E047
:100510008A810E949A0860E08A810E9406081C82F3
:10052000DF91CF91089561E0FC0182810C949A08DB
:1005300060E0FC0182810C949A08CF93DF93EC0178
:1005400060E08A810E949A088A810E94DD0721E08A
:10055000892B09F420E02C83DF91CF910895EF924D
:10056000FF920F931F93CF93DF936115710511F4E1
:1005700080E01CC041155105C1F07B01EC018C816C
:100580009D818A01080F191FB801CE010E945102F6
:10059000882371F3288139818C819D81B701820F75
:1005A000931F0E9481171D830C8381E0DF91CF91FF
:1005B0001F910F91FF90EF900895CF93DF93EC017F
:1005C00088819981009711F00E941B161982188268
:1005D0001D821C821B821A82DF91CF910895CF93D6
:1005E000DF93EC016115710561F0FB0101900020C2
:1005F000E9F73197AF01461B570B0E94AF028111FB
:1006000003C0CE010E94DD02CE01DF91CF9108959B
:10061000EF92FF920F931F93CF93DF93EC017B0137
:100620008A01BA010E945102811104C0CE010E94C8
:10063000DD0207C01D830C83B701888199810E9468
:100640008117CE01DF91CF911F910F91FF90EF9015
:100650000895FC01808191810C941B16FB01DC0143
:1006600011961C921E9213961C921E92129715962A
:100670001C921E9214978617970749F0608171812A
:100680006115710521F0448155810C94080308958A
:10069000FC0111821082138212821582148261156C
:1006A000710551F0FB0101900020E9F73197AF018E
:1006B000461B570B0C94080308956115710579F0DA
:1006C000FB0101900020E9F73197AF01461B570B62
:1006D000DC01ED91FC910280F381E02D099480E032
:1006E00090E008950C945D031F920F920FB60F9245
:1006F00011242F933F934F935F936F937F938F9327
:100700009F93AF93BF93EF93FF9380E093E00E949A
:100710000F01FF91EF91BF91AF919F918F917F91C9
:100720006F915F914F913F912F910F900FBE0F905E
:100730001F9018951F920F920FB60F9211242F93AE
:100740008F939F93EF93FF93E0911003F091110328
:100750008081E0911603F091170382FD12C0908111
:10076000809119038F5F8F7320911A03821751F0C4
:10077000E0911903F0E0E050FD4F958F809319034D
:1007800001C08081FF91EF919F918F912F910F90E8
:100790000FBE0F901F901895DC0180E0615098F01B
:1007A0002D91982F9227E92FEF70F0E0E859FF4F35
:1007B000249192959F70E92FF0E0E858FF4FE49163
:1007C000822F8E27EBCF0895FC0190810180F2816A
:1007D000E02DF8948181892B81832281892F809556
:1007E00028232283A7E0B0E01197F1F7218182232B
:1007F0008183A3E2B0E01197F1F780817894EFEC68
:10080000F0E03197F1F7982381E009F480E0089552
:10081000FC0190810180F281E02D892F809560FF9D
:1008200012C0F8942281822382838181892B818363
:10083000A3E2B0E01197F1F78281982B928378942C
:1008400087ED90E011C0F894228182238283818118
:10085000892B8183AFEFB0E01197F1F78281982B5C
:10086000928378948FE090E00197F1F70895DF92FA
:10087000EF92FF920F931F93CF93DF93EC01D62E4D
:10088000E42E08E010E0FF24F39461E08D2D8F2129
:1008900009F460E0CE010E940804FF0C0150110928
:1008A000A1F7E11010C0F894E981FA819181888163
:1008B000809589238183E981FA819281888180955D
:1008C000892382837894DF91CF911F910F91FF90BC
:1008D000EF90DF900895EF92FF920F931F93CF93C5
:1008E000DF938C017B0140E065E50E943704E7015E
:1008F00088E0E80EF11C699140E0C8010E943704CD
:10090000CE15DF05C1F7DF91CF911F910F91FF90B9
:10091000EF900895DC012C911196ED91FC911297C6
:10092000F8948181922F90958923818378948DE723
:1009300043E050E0815021F1DA011197F1F7308165
:100940003223C1F3F8948281892382838181822BAF
:1009500081837894ABE7B7E01197F1F7F894818140
:100960009823918383E191E00197F1F78081282317
:1009700081E009F080E07894E3E6F6E03197F1F762
:1009800008958F929F92AF92BF92CF92DF92EF9293
:10099000FF920F931F93CF93DF938C017A01FC0199
:1009A000868197810E946B0440E06EEBF80186819E
:1009B00097810E943704E7015701F9E0AF0EB11C9F
:1009C000F8018680978088E0C82ED12CF12CEE2487
:1009D000E394C4010E94E4038111FE28EE0CF1E0CF
:1009E000CF1AD108B1F7F992AC16BD0649F7F80154
:1009F000868197810E948A0491E0813009F090E01D
:100A0000892FDF91CF911F910F91FF90EF90DF9091
:100A1000CF90BF90AF909F908F900895EF92FF92EC
:100A20000F931F93CF93DF93CDB7DEB729970FB600
:100A3000F894DEBF0FBECDBF8C017B01FC01868127
:100A400097810E948A04882311F1AE014F5F5F4FA6
:100A5000B701C8010E94C1048823C9F068E0CE0133
:100A600001960E94CC039985891311C08D818F3323
:100A700061F020F48F3159F489E00CC08F3519F002
:100A80008F3739F004C08BE005C08AE003C080E0F6
:100A900001C08CE029960FB6F894DEBF0FBECDBF23
:100AA000DF91CF911F910F91FF90EF9008951F92CA
:100AB0000F920FB60F9211242F933F934F935F9392
:100AC0006F937F938F939F93AF93BF93EF93FF9316
:100AD000E091BE02F091BF02309709F451C0968DAB
:100AE000A685B785858591FF04C09C91892329F44B
:100AF00047C09C91892309F043C0A389B4899C9184
:100B00008589809589238C93868997890197F1F748
:100B1000608D718DA685B785558538E020E0CB01C5
:100B20000197F1F7822F90E095958795282F4C91AA
:100B3000452309F02068315091F7868D81FD20957D
:100B40008091BD0290E001968F7399273091BC028D
:100B5000381749F0A091BD02B0E0A054BD4F2C93CE
:100B60008093BD0203C0868D8160868F828D938DB8
:100B70000197F1F7A389B4899C918589892B8C937E
:100B8000FF91EF91BF91AF919F918F917F916F9165
:100B90005F914F913F912F910F900FBE0F901F903B
:100BA00018952CE531E0FC0131832083CD960C941F
:100BB0002903CF93DF93EC010E94D105CE01DF9191
:100BC000CF910C941B1608950895089508950895E3
:100BD0000895BF92CF92DF92EF92FF920F931F93EF
:100BE000CF93DF93EC016B018D85811105C0CE01A0
:100BF0000E948A04811105C01B861D861C8680E028
:100C000060C040E060EFCE010E94370401E0E12CBB
:100C1000B12C11E0CE010E94E403F82ECE010E9417
:100C2000E40391E0F91203C08130B1F434C02E2DF9
:100C300030E0F8121BC08B85181738F4FE01E20F64
:100C4000F31F8381802341F402C0811729F0F12C26
:100C5000193058F41C8709C0FE01EE0DF11D838187
:100C6000802B8383FF24F39409C0B12EFE01E20F91
:100C7000F31F9381802F8095892383836F2DCE016D
:100C80000E9408041F5F000F11F4E39401E087E065
:100C90008E1508F0BFCF113408F4AECFBB86B1106B
:100CA00002C081E08D878B81882309F4A5CFDE0106
:100CB0001396F6012B968D918193CA17DB07D9F70E
:100CC00081E0DF91CF911F910F91FF90EF90DF9026
:100CD000CF90BF9008958F929F92AF92BF920F9343
:100CE0001F93CF93DF93CDB7DEB7A1970FB6F894DC
:100CF000DEBF0FBECDBF19A2423008F44AE08E011C
:100D00000F5D1F4F842E912CA12CB12CA5019401B5
:100D10000E944715E62FB901CA0101501109EA30B6
:100D200014F4E05D01C0E95CD801EC93232B242B83
:100D3000252B61F7B80180E093E00E945D03A19646
:100D40000FB6F894DEBF0FBECDBFDF91CF911F91DC
:100D50000F91BF90AF909F908F900895CF92DF92A8
:100D6000EF92FF92CF93DF936B017C016DE280E005
:100D700093E00E943101EC0166277727CB016C19C3
:100D80007D098E099F094AE00E946B068C0F9D1F0A
:100D9000DF91CF91FF90EF90DF90CF900895CF93A8
:100DA000DF93BC0180E093E00E945D03EC016AEAFE
:100DB00072E080E093E00E945D038C0F9D1FDF9145
:100DC000CF9108950F931F93CF93DF938FEA92E013
:100DD0000E94CF06C9EAD3E00E851F8560E0F801C6
:100DE00082810E940608F80114820889198960E04E
:100DF000F80182810E940608F80114821EA61DA631
:100E00001FA618AADF91CF911F910F910895DB01C2
:100E100014964D915C9115976D917C91DC01ED914B
:100E2000FC910280F381E02D0994CF93DF93EC01D4
:100E3000FB0144815581608171810E94AF02811163
:100E400003C0CE010E94DD02CE01DF91CF91089553
:100E5000EF92FF920F931F93CF93DF93CDB7DEB73F
:100E600062970FB6F894DEBF0FBECDBF8C01CB01E9
:100E7000F8011182108213821282158214824AE0D4
:100E80009E012F5F3F4F7901B9010E948412F70143
:100E900001900020E9F73197AF014E195F09B701C2
:100EA000C8010E94080362960FB6F894DEBF0FBE19
:100EB000CDBFDF91CF911F910F91FF90EF900895DB
:100EC000FC018091EA039091EB03892B21F421E04E
:100ED000309749F413C08091E6039091E70330976F
:100EE00031F421E0FC018081882341F006C0BF017C
:100EF0000E94781721E0892B09F020E0822F0895C5
:100F0000CF93DF93EC018A810E94DD0721E0892BDA
:100F100009F420E02C83822FDF91CF910895833054
:100F200081F028F4813099F08230A1F00895873063
:100F3000A9F08830B9F08430D1F4809180008F7DA1
:100F400003C0809180008F7780938000089584B5DE
:100F50008F7702C084B58F7D84BD08958091B000E5
:100F60008F7703C08091B0008F7D8093B00008958B
:100F70003FB7F8948091150490911604A09117043E
:100F8000B091180426B5A89B05C02F3F19F0019613
:100F9000A11DB11D3FBFBA2FA92F982F8827820FFF
:100FA000911DA11DB11DBC01CD0142E0660F771F4F
:100FB000881F991F4A95D1F70895CF93DF93282F63
:100FC00030E0F901E253FF4F8491F901E055FF4F02
:100FD000D491F901E456FF4FC491CC2391F08111D3
:100FE0000E948F07EC2FF0E0EE0FFF1FE857FF4F36
:100FF000A591B491EC91ED2381E090E021F480E0A3
:1010000002C080E090E0DF91CF9108951F93CF93CD
:10101000DF93282F30E0F901E253FF4F8491F9016B
:10102000E055FF4FD491F901E456FF4FC491CC2312
:10103000C1F0162F81110E948F07EC2FF0E0EE0F08
:10104000FF1FEE56FF4FA591B4919FB7F894111171
:1010500004C08C91D095D82302C0EC91DE2BDC9398
:101060009FBFDF91CF911F9108950F931F93CF934F
:10107000DF9384EB92E00E94CF06C9EAD3E00E85AD
:101080001F8560E0F80182810E940608F801148241
:101090000888D989C02D61E08A810E94060881E014
:1010A0008C83DF91CF911F910F9108951092BC0313
:1010B0001092BB031092D803882321F081E0809323
:1010C000D90302C01092D90381E08093D7038091A5
:1010D000B1039091B2030E948007811109C08091F1
:1010E000B3039091B4030E94800781110C943508DA
:1010F00008950F931F93CF93DF9389EB92E00E94A3
:10110000CF06C9EAD3E00E851F8561E0F801828130
:101110000E94060881E0F80184830888D989C02DDF
:1011200060E08A810E9406081C82DF91CF911F91A6
:101130000F910895CF93DF9390E0FC01E055FF4FAE
:101140002491FC01E456FF4F8491882361F190E0E3
:10115000880F991FFC01EC53FF4FC591D491FC01FE
:10116000EE56FF4FA591B491611109C09FB7F89455
:101170008881209582238883EC912E230BC06230D6
:1011800061F49FB7F8948881322F30958323888348
:10119000EC912E2B2C939FBF06C08FB7F894E8815B
:1011A0002E2B28838FBFDF91CF9108958E3008F0CA
:1011B0008E508770806480937C0080917A00806478
:1011C00080937A0080917A0086FDFCCF8091780030
:1011D0002091790090E0922B08958F929F92AF9288
:1011E000BF92CF92DF92EF92FF926B017C010E943F
:1011F000B8074B015C01C114D104E104F104F1F022
:101200000E94B807DC01CB0188199909AA09BB091A
:10121000883E9340A105B10570F321E0C21AD108C0
:10122000E108F10888EE880E83E0981EA11CB11C2D
:10123000C114D104E104F10419F7DDCFFF90EF9060
:10124000DF90CF90BF90AF909F908F9008952FB771
:10125000F89460911104709112048091130490919C
:1012600014042FBF08950F931F93CF93DF93EC01C6
:101270000E942709688779878A879B87E881F98197
:101280000284F385E02DCE01099597FF17C00E94D7
:101290002709088519852A853B85DC01CB01801B40
:1012A000910BA20BB30B0C811D812E813F81801706
:1012B0009107A207B30710F38FEF9FEFDF91CF9154
:1012C0001F910F9108951F920F920FB60F92112444
:1012D0002F933F938F939F93AF93BF93809111046C
:1012E00090911204A0911304B09114043091100451
:1012F00023E0230F2D3720F40196A11DB11D05C059
:1013000026E8230F0296A11DB11D2093100480939F
:10131000110490931204A0931304B09314048091C9
:10132000150490911604A0911704B0911804019629
:10133000A11DB11D8093150490931604A09317046A
:10134000B0931804BF91AF919F918F913F912F91CE
:101350000F900FBE0F901F901895CF93DF93CDB7CE
:10136000DEB7A3970FB6F894DEBF0FBECDBF78945B
:1013700084B5826084BD84B5816084BD85B582609A
:1013800085BD85B5816085BD80916E00816080934B
:101390006E001092810080918100826080938100B4
:1013A00080918100816080938100809180008160C4
:1013B000809380008091B10084608093B10080911F
:1013C000B00081608093B00080917A008460809347
:1013D0007A0080917A00826080937A0080917A000E
:1013E000816080937A0080917A00806880937A008F
:1013F0001092C10068EE73E080E090E00E94ED087A
:10140000E0911003F091110382E08083E0910C03DE
:10141000F0910D031082E0910E03F0910F038FEC19
:10142000808310921803E0911403F091150386E075
:101430008083E0911203F0911303808180618083A7
:10144000E0911203F0911303808188608083E09122
:101450001203F0911303808180688083E09112036E
:10146000F091130380818F7D8083E091AB03F09135
:10147000AC03138E128E118E108E178A168A8FE788
:1014800096E0958F848F9485963108F04EC02EE2B9
:1014900033E0378B268B2DE736E0318F208F25ED1B
:1014A00034E0338F228F30916800983058F021E07B
:1014B0009E3008F420E091E0892F01C0880F2A9522
:1014C000EAF701C084E0832B80936800948598300C
:1014D00038F09E3040F0963148F42CE630E008C0F9
:1014E0002DE630E005C02BE630E002C020E030E021
:1014F000348B238B983030F481E001C0880F9A95AB
:10150000EAF70EC0292F30E09E3018F42850310938
:1015100002C02E50310981E001C0880F2A95EAF7F8
:10152000858B848D958D0197F1F7828D938D892B15
:1015300049F14091BE025091BF02E417F50711F145
:101540004115510571F0DA0153962D913C91549754
:10155000D9019C91DA0155968C9180958923D90106
:101560008C93868D8E7F868F1092BD021092BC0266
:10157000F093BF02E093BE02A389B4899C91858950
:10158000892B8C938091AF039091B003DC01ED9196
:10159000FC910480F581E02D09958091B103909133
:1015A000B203DC01ED91FC910480F581E02D0995F9
:1015B0008091B5039091B603DC01ED91FC9104801C
:1015C000F581E02D09958091B3039091B403DC017E
:1015D000ED91FC910480F581E02D09958091B70390
:1015E0009091B803DC01ED91FC910190F081E02D28
:1015F00009958091B9039091BA03DC01ED91FC91BA
:101600000190F081E02D09950E94E206E090B5037B
:10161000F090B603F70182810E94D608D701159693
:101620009C938E9314979093D3038093D203BC0121
:10163000990F880B990B97FF03C00E94AE0603C059
:101640004AE00E946B06E090E403F090E503D701C6
:101650001696ED91FC911797138615861486DF0177
:101660001B9633961E92EA17FB07E1F7F7011482E7
:10167000158201E0BE016F5F7F4FD70116968D91F5
:101680009C9117970E94E905882309F46BC067E0D5
:10169000CE0101960E94CC0398858913EBCFF70108
:1016A0008081811125C0868197810E948A04BE01B4
:1016B0006F5F7F4FD70116968D919C9117970E946F
:1016C0006B0440E064EBF701868197810E94370448
:1016D000D70116968D919C9117970E94E403182FBD
:1016E000F701868197810E948A04112309F46FC44F
:1016F000D70111961C918981803109F483C4BE0100
:101700006F5F7F4FC7010E940E05811718F4F70124
:1017100081810BC08981803111F48CE006C0BE014B
:101720006F5F7F4FC7010E940E05D70111968C9302
:10173000119714968C9114978F5F14968C938981CE
:10174000883209F447C438F4803109F443C4823242
:1017500009F090CF3FC48B3309F43CC4823409F0C4
:1017600089CF38C462E771E081EF93E00E94720391
:1017700082ED882E83E0982E11E098E8292E93E1DF
:10178000392E8091D903882309F49AC00E94270931
:10179000C090DE03D090DF03E090E003F090E1031F
:1017A000DC01CB018C199D09AE09BF09C397A105C6
:1017B000B10508F46DC0C090D403D090D503E0907B
:1017C000B503F090B603F70182810E94D608D701D5
:1017D00015969C938E9314972091D2033091D30346
:1017E000821793072CF4F901E81BF90BCF0102C013
:1017F000821B930B829DB001839D700D929D700D95
:101800001124672F770F770B65956595072E000CD0
:10181000880B990B0E94C01224EA30E74DE35EE387
:101820000E9481140E94F3142B013C01072E000C2E
:10183000880B990B97FF03C00E94AE0603C04AE0D5
:101840000E946B0683E991E00E94CF06F601EE0F3D
:10185000FF1FE755FC4F568A458A0E94270960936F
:10186000DE037093DF038093E0039093E1038091A4
:10187000D4039091D50301968A3091052CF490936E
:10188000D5038093D40304C01092D5031092D403DF
:10189000EEEBF3E080E090E021913191820F931F15
:1018A0008E169F06C9F78A31974250F00E94E206D1
:1018B0001092D7031092D6031092D9031093BD0350
:1018C0008091D703882319F18091B1039091B203DD
:1018D0000E948007882359F00E94E2061092D703E5
:1018E0001092D6031092D9031093BB0310C08091BD
:1018F000B3039091B4030E948007811170C380915B
:10190000D60381116CC30E94E2061093D603809126
:10191000D803882391F08091AF039091B0030E9487
:101920008007882351F00E94E2061092D80310929B
:10193000D6031092D9031093BC038091EC03882343
:1019400059F12091BB038091AB039091AC0322230A
:1019500039F01092EC031092BB0366E971E00AC003
:101960002091BD03222341F01092EC031092BD039D
:101970006CE971E00E9472038091BC03882361F0DE
:101980001092EC031092BC0362EA71E08091AB0309
:101990009091AC030E9472038091AB039091AC03D1
:1019A000DC01ED91FC910084F185E02D0995892BF6
:1019B00009F40AC3E090AB03F090AC036CEA72E068
:1019C000CE0101960E944803C7010E94330997FD8A
:1019D0000CC08A871B8641E050E0BE01665F7F4FE6
:1019E000CE0101960E94AF02EFCF8091E603909165
:1019F000E7030097C9F069817A816115710591F05B
:101A00004091E8035091E9032D813E81421753072D
:101A100048F00E9481178D819E819093EB03809303
:101A2000EA0318C00E941B1689819A819093E703EC
:101A30008093E6038B819C819093E9038093E80374
:101A40008D819E819093EB038093EA031A82198221
:101A50001C821B821E821D82CE0101960E942903D8
:101A600088EA91E00E9460078823E9F06DEA71E05E
:101A70008091AB039091AC030E9472031092BC035F
:101A80001092BB031092D7031093D9031093D8037D
:101A90008091AF039091B0030E94800781112BC009
:101AA0000E94790828C087EB91E00E946007882394
:101AB00089F06CEB71E08091AB039091AC030E94D4
:101AC00072031092BC031092BB031092D7031092C2
:101AD000D903DCCF86EC91E00E946007882371F087
:101AE0006BEC71E08091AB039091AC030E947203A8
:101AF00081E00E9456081093EC0366C285ED91E0E8
:101B00000E946007882351F06AED71E08091AB0379
:101B10009091AC030E94720380E0EBCF84EE91E0E1
:101B20000E946007882359F069EE71E08091AB0351
:101B30009091AC030E9472030E94790845C283EF22
:101B400091E00E946007882359F068EF71E080916E
:101B5000AB039091AC030E9472030E94350834C21B
:101B600082E092E00E946007882359F067E072E00B
:101B70008091AB039091AC030E9472030E94E20635
:101B800023C281E192E00E9460078823D1F066E1E0
:101B900072E08091AB039091AC030E94720380913C
:101BA000B1039091B2030E9480072091AB03309162
:101BB000AC03882319F060E272E042C068E272E090
:101BC0003FC080E392E00E9460078823D1F065E384
:101BD00072E08091AB039091AC030E9472038091FC
:101BE000AF039091B0030E9480072091AB03309126
:101BF000AC03882319F06FE372E022C067E472E05F
:101C00001FC08FE492E00E9460078823E9F066E538
:101C100072E08091AB039091AC030E9472038091BB
:101C2000B3039091B4030E9480072091AB033091DD
:101C3000AC03882319F062E672E002C06CE672E041
:101C4000C9010E947203C0C186E792E00E9460074A
:101C5000882309F470C06EE772E08091AB03909125
:101C6000AC030E9472038091B3039091B4030E946D
:101C70008007682F70E0CE0148960E942807809167
:101C8000AF039091B0030E948007682F70E0CE01EF
:101C900042960E9428078091B1039091B2030E945E
:101CA0008007682F70E0CE010A960E9428076BE833
:101CB00072E0CE0101960E944803BE01665F7F4F2D
:101CC000CE0101960E9415076DE872E00E94EF02B6
:101CD000BE016E5E7F4F0E9415076DE872E00E94A4
:101CE000EF02BE01685E7F4F0E9415076DE472E04F
:101CF0000E94EF02BC01CE014E960E942E03CE013F
:101D000001960E942903CE010A960E942903CE0162
:101D100042960E942903CE0148960E942903BE01E3
:101D2000625E7F4F8091AB039091AC030E940707E6
:101D3000CE014E9647C18FE892E00E94600788234B
:101D400009F442C164E972E08091AB039091AC0365
:101D50000E947203E090E403F090E503F7018681AE
:101D600097810E948A0440E06CECD70116968D9111
:101D70009C9117970E943704F701408164E48681A3
:101D800097810E943704D70112968C91129788236D
:101D9000E9F11196EC91E950E33040F4F0E0EE0FF8
:101DA000FF1FEA5FFE4FC080D18004C07EEEC72EC9
:101DB00072E0D72EF7018381882311F18081811190
:101DC0001FC00E9427092B013C015601DD0CCC08E5
:101DD000DD08D70116968D919C9117970E94E40318
:101DE0008130A1F00E942709DC01CB018A199B09EF
:101DF000AC09BD0984159505A605B70550F306C0C5
:101E0000B601DD0C880B990B0E94ED08E090E4030D
:101E1000F090E503D7011696ED91FC911797138684
:101E200015861486DF011B9633961E92AE17BF07E8
:101E3000E1F7BE01665F7F4FF701868197810E94BF
:101E4000E905882309F4E4C067E0CE010A960E9400
:101E5000CC0399898913DCC0D70116968D919C918A
:101E600017970E948A04882309F46EC1AE014F5F60
:101E70005F4FBE01665F7F4FC7010E94C104882388
:101E800009F462C168E0CE0101960E94CC039985F5
:101E900089135AC12A8130E0C901982F8827990FE8
:101EA000990F990F6981F8E06F9FB00111249C018F
:101EB000262B372B8A85803109F0A8C0688570E011
:101EC0008F81AB01481B5109CA019695982F88272D
:101ED000979587950E94331560517109207F53E0D3
:101EE000220F331F5A95E1F7620F731F613854EECA
:101EF00075070CF48DC0072E000C880B990B0E94FF
:101F0000C01220E030E040E05CE30E941F132B0190
:101F10003C0120E030E040E251E40E941F130E94A7
:101F2000F3147B01A3019201C301B2010E942E159B
:101F3000882309F477C06EE972E080E093E00E94A4
:101F40005D036AEA72E080E093E00E945D03B701FE
:101F5000CE010A960E9428076DEA72E0CE01019632
:101F60000E944803BE01665F7F4FCE0101960E942A
:101F700015076DE472E00E94EF02BC01CE014296AB
:101F80000E942E03CE0101960E942903CE010A96DB
:101F90000E942903BE016E5E7F4F8091AB0390913A
:101FA000AC030E940707BE016E5E7F4F80E093E0A6
:101FB0000E9407076AEA72E080E093E00E945D03F6
:101FC000CE0142960E9429030E94A001DACBD701DC
:101FD0000C938ECBF70185818F5F85834BCB8091EE
:101FE000B3039091B4030E948007882309F48FCC37
:101FF0008091D603882309F48ACC0E943508109278
:10200000D60385CC1D3008F082CB87CBB9016ECFCB
:10201000412C512C8EEF682E82EC782E9AE0E92E1E
:102020009BEFF92E63015201E894D7F82FEF3FEFB1
:102030004FE75FE7C601B5010E942E1581110DC063
:102040002FEF3FEF4FE75FE7C601B5010E94B912DE
:1020500018161CF462EA72E070CF2FEF3FEF4FE7E3
:102060005FE4C301B2010E94291518161CF466EA48
:1020700072E063CF2FEF3FEF4FE75FECC301B20198
:102080000E94B91287FDF3CF20E030E0A901C3011F
:10209000B2010E94B91287FF09C06DE280E093E0AF
:1020A0000E94310177FA709477F870942AE037ED46
:1020B00043EA5BE3C301B2010E9415145B016C01AA
:1020C0000E94FA142B013C010E94BE129B01AC013C
:1020D000C601B5010E9414145B016C014AE0C30102
:1020E000B2010E946B066EE280E093E00E94310133
:1020F00020E030E040E251E4C601B5010E941F1328
:102100005B016C010E94FA142B01612C712C4AE0D6
:10211000C301B2010E946B06C301B2010E94BE124C
:102120009B01AC01C601B5010E94141420E030E00F
:1021300040E251E40E941F130E94FA1480E090E0F4
:102140004AE00E946B06FDCE60E874EECFCE8DE9CA
:1021500093E00E94290383EA93E00E94290389EA1D
:1021600093E00E94D10584E691E09093F20380937E
:10217000F1038091BE029091BF02815F934071F4A0
:10218000E0910404F091050490818091060480950B
:10219000892380831092BF021092BE020895CF93CC
:1021A000DF93109203031092020388EE93E0A0E005
:1021B000B0E08093040390930503A0930603B093CB
:1021C000070320E131E0309301032093000325EC65
:1021D00030E030930D0320930C0324EC30E0309377
:1021E0000F0320930E0320EC30E030931103209373
:1021F000100321EC30E0309313032093120322EC00
:1022000030E0309315032093140326EC30E0309334
:102210001703209316031092190310921A031092B9
:102220001B0310921C031092F4031092F30380938B
:10223000F5039093F603A093F703B093F80384E6B5
:1022400091E09093F2038093F103109208041092AE
:10225000070410920A041092090410920C041092C0
:102260000B0410920E0410920D0460910F046E7F07
:102270006D7F60930F046695617081E068278BE045
:102280000E94060861E08BE00E949A08EBEBF0E008
:10229000E491E0930104E7EAF0E0E491F0E0EE0F6E
:1022A000FF1FEE56FF4F8591949190930304809306
:1022B000020460E08AE00E949A0880910F0481FD88
:1022C00004C061E08AE00E9406088AE08093FD0372
:1022D000EAEBF0E0E491E093FE03E6EAF0E0E4915B
:1022E000F0E0EE0FFF1FE857FF4F85919491909318
:1022F00000048093FF038CE591E09093AA03809300
:10230000A90384E591E09093AE038093AD0384E14B
:10231000EEEBF3E0DF011D928A95E9F71092D3030B
:102320001092D2031092D5031092D40385E090E06E
:102330000E948315FC0185E090E093838283CAE4C8
:10234000D1E0D183C0831482F093B003E093AF0354
:102350000E948315FC0186E090E093838283D18301
:10236000C0831482F093B203E093B10388E090E05D
:102370000E948315FC018EE090E09383828386E3C4
:1023800091E0918380831782168215821482F093E4
:10239000B603E093B50385E090E00E948315FC014D
:1023A00087E090E093838283D183C0831482F0938B
:1023B000B403E093B30385E090E00E948315FC0131
:1023C00080E190E093838283CCE2D1E0D183C0832B
:1023D0001482F093B803E093B70385E090E00E9485
:1023E0008315FC0181E190E093838283D183C083D4
:1023F0001482F093BA03E093B9031092D7031092BA
:10240000D8031092D9031092D6031092BB031092F6
:10241000BC031092BD031092DA031092DB031092FA
:10242000DC031092DD031092DE031092DF031092A2
:10243000E0031092E1036CEA72E086EE93E00E9402
:10244000480381EF93E09093AC038093AB0340E0AB
:1024500050E06CEA72E086EE93E00E94080310926E
:10246000EC038EE090E00E948315EC0160E084E0D4
:102470000E949A08E4EBF0E0E491E883E0EAF0E0FF
:10248000E491F0E0EE0FFF1FE857FF4F8591949124
:102490009A8389831B861D861C86FE013B96CE018E
:1024A00003961292E817F907E1F7D093E303C0937C
:1024B000E20384E190E00E948315FC01D783C68388
:1024C00014821582108289E0818381E08283838374
:1024D000138A128AF093E503E093E4031092ED036C
:1024E0001092EE031092EF031092F0036CEA72E088
:1024F00083EA93E00E9448036CEA72E08DE993E07E
:10250000DF91CF910C944803BB274A3031F49923D3
:1025100022F4BDE2909581959F4F0C949012BB27B9
:10252000FB015527AA27880F991FAA1FA41710F08F
:10253000A41B83955051B9F7A05DAA3308F0A95D9B
:10254000A193009779F7B111B1931192CB010C943B
:10255000A912DC01FC01672F71917723E1F7329713
:1025600004C07C916D9370836291AE17BF07C8F36E
:1025700008950E94FB1208F481E00895E89409C0D0
:1025800097FB3EF490958095709561957F4F8F4FA6
:102590009F4F9923A9F0F92F96E9BB279395F695BC
:1025A000879577956795B795F111F8CFFAF4BB0F3A
:1025B00011F460FF1BC06F5F7F4F8F4F9F4F16C09E
:1025C000882311F096E911C0772321F09EE8872F28
:1025D000762F05C0662371F096E8862F70E060E0E4
:1025E0002AF09A95660F771F881FDAF7880F96955D
:1025F000879597F90895990F0008550FAA0BE0E801
:10260000FEEF16161706E807F907C0F012161306B4
:10261000E407F50798F0621B730B840B950B39F4F4
:102620000A2661F0232B242B252B21F408950A265A
:1026300009F4A140A6958FEF811D811D08950E9488
:1026400032130C94A3130E94951338F00E949C132C
:1026500020F0952311F00C948C130C9492131124F8
:102660000C94D7130E94B41370F3959FC1F3950F88
:1026700050E0551F629FF001729FBB27F00DB11D06
:10268000639FAA27F00DB11DAA1F649F6627B00D96
:10269000A11D661F829F2227B00DA11D621F739F7F
:1026A000B00DA11D621F839FA00D611D221F749F8D
:1026B0003327A00D611D231F849F600D211D822FD4
:1026C000762F6A2F11249F5750409AF0F1F08823FB
:1026D0004AF0EE0FFF1FBB1F661F771F881F915028
:1026E0005040A9F79E3F510580F00C948C130C9438
:1026F000D7135F3FE4F3983ED4F3869577956795BB
:10270000B795F795E7959F5FC1F7FE2B880F911D51
:102710009695879597F9089597F99F6780E870E0F7
:1027200060E008959FEF80EC089500240A94161647
:10273000170618060906089500240A9412161306AF
:10274000140605060895092E0394000C11F488233D
:1027500052F0BB0F40F4BF2B11F460FF04C06F5F59
:102760007F4F8F4F9F4F089557FD9058440F551F2F
:1027700059F05F3F71F04795880F97FB991F61F003
:102780009F3F79F087950895121613061406551F7A
:10279000F2CF4695F1DF08C0161617061806991FE6
:1027A000F1CF86957105610508940895E894BB27DB
:1027B00066277727CB0197F908952F923F924F9282
:1027C0005F926F927F928F929F92AF92BF92CF92C1
:1027D000DF92EF92FF920F931F93CF93DF93CDB7CA
:1027E000DEB7CA1BDB0B0FB6F894DEBF0FBECDBF42
:1027F00009942A88398848885F846E847D848C8413
:102800009B84AA84B984C884DF80EE80FD800C811B
:102810001B81AA81B981CE0FD11D0FB6F894DEBFFE
:102820000FBECDBFED0108955058BB27AA270E94C7
:102830002C140C94A3130E94951338F00E949C133F
:1028400020F039F49F3F19F426F40C9492130EF4FF
:10285000E095E7FB0C948C13E92F0E94B41358F316
:10286000BA17620773078407950720F079F4A6F575
:102870000C94D6130EF4E0950B2EBA2FA02D0B015D
:10288000B90190010C01CA01A0011124FF27591BB5
:1028900099F0593F50F4503E68F11A16F040A22FBB
:1028A000232F342F4427585FF3CF4695379527952C
:1028B000A795F0405395C9F77EF41F16BA0B620B2B
:1028C000730B840BBAF09150A1F0FF0FBB1F661F72
:1028D000771F881FC2F70EC0BA0F621F731F841FB5
:1028E00048F4879577956795B795F7959E3F08F0DB
:1028F000B0CF9395880F08F09927EE0F979587959D
:1029000008950E9495140C94A3130E949C1358F0F0
:102910000E94951340F029F45F3F29F00C948C132A
:1029200051110C94D7130C9492130E94B41368F3B2
:102930009923B1F3552391F3951B550BBB27AA2778
:1029400062177307840738F09F5F5F4F220F331FB2
:10295000441FAA1FA9F335D00E2E3AF0E0E832D07A
:1029600091505040E695001CCAF72BD0FE2F29D07D
:10297000660F771F881FBB1F261737074807AB074F
:10298000B0E809F0BB0B802DBF01FF2793585F4FC4
:102990003AF09E3F510578F00C948C130C94D713A9
:1029A0005F3FE4F3983ED4F3869577956795B795A6
:1029B000F7959F5FC9F7880F911D9695879597F9B1
:1029C0000895E1E0660F771F881FBB1F621773072A
:1029D0008407BA0720F0621B730B840BBA0BEE1F3F
:1029E00088F7E09508950E94FA146894B1110C9448
:1029F000D71308950E94BC1388F09F5798F0B92F01
:102A00009927B751B0F0E1F0660F771F881F991F23
:102A10001AF0BA95C9F714C0B13091F00E94D613DC
:102A2000B1E008950C94D613672F782F8827B85FEC
:102A300039F0B93FCCF3869577956795B395D9F77B
:102A40003EF490958095709561957F4F8F4F9F4F85
:102A500008950E94FB1208F48FEF08950E94FB1264
:102A6000880B990B089597FB072E16F4009407D056
:102A700077FD09D00E94691507FC05D03EF49095BA
:102A800081959F4F0895709561957F4F0895A1E2BC
:102A90001A2EAA1BBB1BFD010DC0AA1FBB1FEE1FD8
:102AA000FF1FA217B307E407F50720F0A21BB30B23
:102AB000E40BF50B661F771F881F991F1A9469F79F
:102AC00060957095809590959B01AC01BD01CF01FB
:102AD0000895AA1BBB1B51E107C0AA1FBB1FA61765
:102AE000B70710F0A61BB70B881F991F5A95A9F7B7
:102AF00080959095BC01CD010895EE0FFF1F0590C4
:102B0000F491E02D09940F931F93CF93DF938230BC
:102B1000910510F482E090E0E0911B04F0911C0418
:102B200020E030E0A0E0B0E0309719F14081518121
:102B30000281138148175907C8F08417950769F473
:102B4000109731F012960C93129713961C9327C08E
:102B500000931B0410931C0422C02115310519F0A9
:102B60004217530718F49A01BD01EF01DF01F80184
:102B7000DBCF21153105F9F0281B390B2430310545
:102B800080F48A819B816115710521F0FB0193839B
:102B9000828304C090931C0480931B04FE01329630
:102BA00044C0FE01E20FF31F81939193225031093B
:102BB000398328833AC02091190430911A04232BB9
:102BC00041F4209102013091030130931A042093C3
:102BD000190420910001309101012115310541F4C2
:102BE0002DB73EB74091040150910501241B350BD0
:102BF000E0911904F0911A04E217F307A0F42E1BD8
:102C00003F0B2817390778F0AC014E5F5F4F241750
:102C1000350748F04E0F5F1F50931A044093190474
:102C20008193919302C0E0E0F0E0CF01DF91CF917A
:102C30001F910F910895CF93DF93009709F481C0FE
:102C4000FC01329713821282A0911B04B0911C04E4
:102C5000109781F420813181820F931F20911904F4
:102C600030911A042817390751F5F0931A04E093AC
:102C7000190467C0ED0120E030E0CE17DF0740F413
:102C80004A815B819E0141155105F1F0EA01F5CFC2
:102C9000D383C28340815181840F951FC817D90700
:102CA00059F488819981840F951F029691838083BE
:102CB0008A819B81938382832115310529F4F093C6
:102CC0001C04E0931B043DC0E901FB83EA834991A6
:102CD0005991C40FD51FEC17FD0761F480819181D4
:102CE000840F951F0296E9019983888382819381DD
:102CF0009B838A83E0E0F0E012968D919C9113977C
:102D0000009719F0FD01DC01F7CF8D919C9111978F
:102D10009D012E5F3F4F820F931F20911904309128
:102D20001A042817390769F4309729F410921C0403
:102D300010921B0402C013821282B0931A04A09353
:102D40001904DF91CF910895A0E0B0E0EAEAF6E13E
:102D50000C94E113EC01009721F4CB010E94831540
:102D6000B4C0FC01E60FF71F9C0122503109E217A5
:102D7000F30708F4A8C0D9010D911C91119706170B
:102D80001707B0F00530110508F49BC0C80104977F
:102D90008617970708F495C002501109061B170BF8
:102DA000019311936D937C93CF010E941B1689C0F0
:102DB0005B01A01AB10A4C01800E911EA0911B0468
:102DC000B0911C04612C712CE12CF12C109709F4AA
:102DD00046C08D919C911197A815B905B1F56C016C
:102DE00042E0C40ED11CCA14DB0478F14C018A18ED
:102DF0009B08640142E0C40ED11C1296BC9012974D
:102E00001396AC91B5E0CB16D10440F0B282A38307
:102E100091828082D9016D937C9309C00E5F1F4F10
:102E2000800F911FF90191838083EB2DFA2FE1141C
:102E3000F10431F0D7011396FC93EE93129741C041
:102E4000F0931C04E0931B043CC06816790608F458
:102E50003C017D0112960D90BC91A02DB7CF8091C1
:102E6000190490911A0488169906E1F466167706FB
:102E7000C8F48091000190910101009741F48DB751
:102E80009EB74091040150910501841B950BE817F2
:102E9000F907C8F4F0931A04E0931904F901718357
:102EA00060830FC0CB010E9483157C01009759F00D
:102EB000A801BE010E946F17CE010E941B16C70118
:102EC00004C0CE0102C080E090E0CDB7DEB7EEE0F6
:102ED0000C94FD1381E090E0F8940C948817FB01AA
:102EE000DC0102C001900D9241505040D8F7089586
:102EF000FB01DC018D91019080190110D9F3990B30
:102F00000895FB01DC0101900D920020E1F7089586
:102F100010E0C2E7D0E004C0FE010E947D152196BA
:0A2F2000C337D107C9F7F894FFCFBB
:102F2A0000001D0480005E00BC0077010000000064
:102F3A0031019E00C8007E01F900D700EB000000B5
:102F4A0000009302E5057E02000000008402E40509
:102F5A007C0200000000E8058202980200000000DE
:102F6A00E6058002C20100000000E70578029D0222
:102F7A0000000000E3057A0200000000D105D9052F
:102F8A0000000000C3019E004C02C20113022B0282
:102F9A00AA01506F756C7472795F646F6F725F63A8
:102FAA0074726C5F56302E312032395F31325F32A3
:102FBA00322F006D4100435F4F4B2F00435F4B4F51
:102FCA002F004F5F4F4B2F004F5F3131004F5F3162
:102FDA00315F41434B2F004F5F3031004F5F30313B
:102FEA005F41434B2F00435F313100435F31315F13
:102FFA0041434B2F00435F303100435F30315F4123
:10300A00434B2F004F5F3030004F5F30305F4143FA
:10301A004B2F00435F303000435F30305F41434BFA
:10302A002F0053544F500053544F505F41434B2F7E
:10303A000046435F4C0046435F4C5F41434B2F00C1
:10304A0046435F4C5F312F0046435F4C5F302F0091
:10305A0046435F480046435F485F41434B2F004663
:10306A00435F485F312F0046435F485F302F00506F
:10307A004F554C5F5000504F554C5F505F41434B8A
:10308A002F00504F554C5F505F312F00504F554C19
:10309A005F505F302F0053544154455F44005354EE
:1030AA004154455F445F41434B2F0053005F005436
:1030BA00454D500054454D505F41434B2F006E61C2
:1030CA006E00696E66006F7666000D0A0054007322
:0C30DA00746F7000646F776E00757000FA
:00000001FF
