:100000000C9473000C949B000C949B000C941206AF
:100010000C9412060C9412060C949B000C949B00FA
:100020000C949B000C949B000C949B000C949B00E4
:100030000C949B000C949B000C949B000C949B00D4
:100040000C947E0B0C949B000C9455040C942F0480
:100050000C949B000C949B000C949B000C949B00B4
:100060000C948C060C949B00005EBCE2613FDD8327
:10007000C29C7E20A3FD1F41009D23BE46DB65F888
:100080008C11AF32CA57E97400000000230026002B
:10009000290000000000250028002B0004040404AF
:1000A0000404040402020202020203030303030322
:1000B00001020408102040800102040810200102FF
:1000C0000408102000000000240027002A0000007F
:1000D0000008000201000003040700000000000007
:1000E0000000B813901311241FBECFEFD8E0DEBF7D
:1000F000CDBF25E0A4EEB2E001C01D92A63CB20740
:10010000E1F712E0A0E0B1E0E0EAF5E302C005901B
:100110000D92A43EB107D9F710E0C2E7D0E004C0C9
:100120002197FE010E94B818C137D107C9F70E9474
:10013000C80B0C94C31A0C9400000895CF92DF9260
:10014000EF92FF920F931F93CF93DF936C017A018D
:100150008B01C0E0D0E0CE15DF0581F0D8016D91B4
:100160008D01D601ED91FC910190F081E02DC60149
:100170000995892B11F02196EECF7E01C701DF9101
:10018000CF911F910F91FF90EF90DF90CF90089546
:10019000FC01538D448D252F30E0842F90E0821B8D
:1001A000930B541710F0CF96089501970895FC0112
:1001B000918D828D981761F0828DDF01A80FB11D9E
:1001C0005D968C91928D9F5F9F73928F90E00895C2
:1001D0008FEF9FEF0895FC01918D828D981731F07C
:1001E000828DE80FF11D858D90E008958FEF9FEFD0
:1001F0000895FC01918D228D892F90E0805C9F4FA6
:10020000821B91098F73992708958DED93E00E94C9
:10021000F90021E0892B09F420E0822F0895FC01E8
:10022000848DDF01A80FB11DA35ABF4F2C91848D7F
:1002300090E001968F739927848FA689B7892C93B4
:10024000A089B1898C91837080648C93938D848D07
:10025000981306C00288F389E02D80818F7D80830A
:100260000895EF92FF920F931F93CF93DF93EC01CA
:1002700081E0888F9B8D8C8D981305C0E889F98962
:10028000808185FD26C0F62E0B8D10E00F5F1F4F7D
:100290000F731127E02E8C8DE8120CC00FB607FCEF
:1002A000FACFE889F989808185FFF5CFCE010E94D8
:1002B0000F01F1CF8B8DFE01E80FF11DE35AFF4FC7
:1002C000F0829FB7F8940B8FEA89FB898081806266
:1002D0000AC09FB7F894EE89FF896083E889F9899D
:1002E00080818370806480839FBF81E090E0DF9194
:1002F000CF911F910F91FF90EF900895CF93DF93CF
:10030000EC01888D8823C9F0EA89FB89808185FD0D
:1003100005C0A889B9898C9186FD0FC00FB607FC6E
:10032000F5CF808185FFF2CFA889B9898C9185FFAF
:10033000EDCFCE010E940F01E7CFDF91CF9108955D
:1003400080E090E0892B29F00E94050181110C9436
:10035000000008952091E6023091E702281739073E
:1003600071F49091E4028091E502981741F0E091D8
:10037000E402F0E0EE56FC4F808190E008958FEFAC
:100380009FEF089508951F93CF93DF93DC015C9650
:100390008D919C915D97009739F421E030E01396A0
:1003A0003C932E9312973BC05196ED91FC9152973E
:1003B00050962C915097322F30951FB75E964C91E6
:1003C0005E97742F727041FD6095F8944081772399
:1003D00011F0422B01C043234083EC012197F1F738
:1003E00048E0508160FF02C0522B01C0532350836C
:1003F000EC012197F1F76695415099F780817723B9
:1004000019F08323808302C0282B20831FBF5C96B2
:100410008D919C915D970197F1F781E090E0DF91DC
:10042000CF911F9108952091E6023091E70228179D
:10043000390771F48091E5022091E40290E0805C3C
:100440009F4F821B910960E470E00E946E1808952E
:1004500080E090E008952091E6023091E7022817AD
:100460003907B9F49091E4028091E502981789F078
:10047000E091E402F0E0EE56FC4F80812091E4022E
:1004800030E02F5F3F4F2F7333272093E40290E03B
:1004900008958FEF9FEF089508950895E091DC038C
:1004A0008091DB03E81730F4F0E0E35DFC4F8081DE
:1004B00090E008958FEF9FEF08959091DC03809175
:1004C000DB03981750F4E92FF0E0E35DFC4F208147
:1004D00030E09F5F9093DC0302C02FEF3FEFC90134
:1004E00008958091DB0390E02091DC03821B910949
:1004F000089580E090E0089585ED8093BC008091A0
:10050000BC0084FDFCCF1092D803089540916F0386
:10051000262F30E0240F311D21323105DCF42091EB
:10052000D8032430C9F4FC0180E090E0861758F429
:1005300030916F032191DC01A15BBC4FA30FB11D72
:100540002C930196F3CF80916F03680F60936F0334
:1005500080E0089581E0089582E00895CF92DF92CF
:10056000EF92FF920F931F93CF93DF937C01CB0108
:100570008A012091E802222389F0EB016B01C40E6D
:10058000D51ECC15DD0569F06991D701ED91FC917F
:100590000190F081E02DC7010995F3CF642F0E94EF
:1005A0008602C801DF91CF911F910F91FF90EF90CC
:1005B000DF90CF900895CF93DF931F92CDB7DEB732
:1005C00069832091E8022223D1F02091D9032032BF
:1005D00040F021E030E0FC013383228380E090E0B2
:1005E00015C08091DA03E82FF0E0E751FD4F9981C3
:1005F00090838F5F8093DA038093D90305C061E015
:10060000CE0101960E94860281E090E00F90DF917A
:10061000CF9108950E94A51A0F931F93CF93DF9354
:10062000EC0188819981009729F02A813B81261766
:10063000370788F48B016F5F7F4F0E94DF190097A7
:1006400061F0998388831B830A832C813D81232B4E
:1006500011F4FC01108281E001C080E0DF91CF91B4
:100660001F910F9108950C9456190C9456190C94DF
:1006700056190C9456190C9456190C945619CF937C
:10068000DF93EC0161E08A810E94B50A60E08A8113
:100690000E94210A1C82DF91CF91089561E0FC0144
:1006A00082810C94B50A60E0FC0182810C94B50A49
:1006B000CF93DF93EC0160E08A810E94B50A8A81C2
:1006C0000E94F80921E0892B09F420E02C83DF91B6
:1006D000CF910895EF92FF920F931F93CF93DF93E3
:1006E0006115710511F480E01CC041155105C1F080
:1006F0007B01EC018C819D818A01080F191FB801D3
:10070000CE010E940C03882371F3288139818C81EA
:100710009D81B701820F931F0E94BC1A1D830C8319
:1007200081E0DF91CF911F910F91FF90EF9008959D
:10073000CF93DF93EC0188819981009711F00E949B
:100740005619198218821D821C821B821A82DF911F
:10075000CF910895CF93DF93EC016115710561F09E
:10076000FB0101900020E9F73197AF01461B570BC1
:100770000E946A03811103C0CE010E949803CE013A
:10078000DF91CF910895EF92FF920F931F93CF9334
:10079000DF93EC017B018A01BA010E940C038111F5
:1007A00004C0CE010E94980307C01D830C83B701CB
:1007B000888199810E94BC1ACE01DF91CF911F914F
:1007C0000F91FF90EF900895FC01808191810C942E
:1007D0005619FB01DC0111961C921E9213961C9275
:1007E0001E92129715961C921E92149786179707C1
:1007F00049F0608171816115710521F04481558155
:100800000C94C3030895FC0111821082138212829A
:10081000158214826115710551F0FB0101900020D1
:10082000E9F73197AF01461B570B0C94C3030895AA
:100830006115710579F0FB0101900020E9F731970E
:10084000AF01461B570BDC01ED91FC910280F38157
:10085000E02D099480E090E008950C9418041F9214
:100860000F920FB60F9211242F933F934F935F93E4
:100870006F937F938F939F93AF93BF93EF93FF9368
:100880008DED93E00E940F01FF91EF91BF91AF9129
:100890009F918F917F916F915F914F913F912F9198
:1008A0000F900FBE0F901F9018951F920F920FB6CA
:1008B0000F9211242F938F939F93EF93FF93E091C7
:1008C000ED03F091EE038081E091F303F091F403E6
:1008D00082FD12C090818091F6038F5F8F7320910B
:1008E000F703821751F0E091F603F0E0E352FC4F7A
:1008F000958F8093F60301C08081FF91EF919F91C6
:100900008F912F910F900FBE0F901F901895DC01C3
:1009100080E0615098F02D91982F9227E92FEF7089
:10092000F0E0E859FF4F249192959F70E92FF0E095
:10093000E858FF4FE491822F8E27EBCF0895FC01FA
:1009400090810180F281E02DF8948181892B81834F
:100950002281892F809528232283A7E0B0E0119778
:10096000F1F7218182238183A3E2B0E01197F1F7AF
:1009700080817894EFECF0E03197F1F7982381E0F3
:1009800009F480E00895FC0190810180F281E02D5E
:10099000892F809560FF12C0F89422818223828380
:1009A0008181892B8183A3E2B0E01197F1F78281E5
:1009B000982B9283789487ED90E011C0F89422816F
:1009C000822382838181892B8183AFEFB0E01197ED
:1009D000F1F78281982B928378948FE090E00197D1
:1009E000F1F70895DF92EF92FF920F931F93CF9349
:1009F000DF93EC01D62EE42E08E010E0FF24F39400
:100A000061E08D2D8F2109F460E0CE010E94C304C6
:100A1000FF0C01501109A1F7E11010C0F894E98111
:100A2000FA8191818881809589238183E981FA8186
:100A3000928188818095892382837894DF91CF91F8
:100A40001F910F91FF90EF90DF900895EF92FF922A
:100A50000F931F93CF93DF938C017B0140E065E5FB
:100A60000E94F204E70188E0E80EF11C699140E081
:100A7000C8010E94F204CE15DF05C1F7DF91CF91C6
:100A80001F910F91FF90EF900895DC012C9111962A
:100A9000ED91FC911297F8948181922F9095892382
:100AA000818378948DE743E050E0815021F1DA01B1
:100AB0001197F1F730813223C1F3F89482818923B1
:100AC00082838181822B81837894ABE7B7E0119791
:100AD000F1F7F89481819823918383E191E0019764
:100AE000F1F78081282381E009F080E07894E3E643
:100AF000F6E03197F1F708958F929F92AF92BF92EF
:100B0000CF92DF92EF92FF920F931F93CF93DF93D9
:100B10008C017A01FC01868197810E94260540E0C4
:100B20006EEBF801868197810E94F204E70157017C
:100B3000F9E0AF0EB11CF8018680978088E0C82EDE
:100B4000D12CF12CEE24E394C4010E949F04811166
:100B5000FE28EE0CF1E0CF1AD108B1F7F992AC16ED
:100B6000BD0649F7F801868197810E94450591E00D
:100B7000813009F090E0892FDF91CF911F910F9183
:100B8000FF90EF90DF90CF90BF90AF909F908F90AD
:100B90000895EF92FF920F931F93CF93DF93CDB7FA
:100BA000DEB729970FB6F894DEBF0FBECDBF8C011C
:100BB0007B01FC01868197810E944505882311F104
:100BC000AE014F5F5F4FB701C8010E947C058823CB
:100BD000C9F068E0CE0101960E94870499858913C7
:100BE00011C08D818F3361F020F48F3159F489E089
:100BF0000CC08F3519F08F3739F004C08BE005C079
:100C00008AE003C080E001C08CE029960FB6F8941A
:100C1000DEBF0FBECDBFDF91CF911F910F91FF902F
:100C2000EF9008951F920F920FB60F9211242F93F9
:100C30003F934F935F936F937F938F939F93AF9364
:100C4000BF93EF93FF93E091E602F091E7023097B4
:100C500009F451C0968DA685B785858591FF04C09E
:100C60009C91892329F447C09C91892309F043C0B2
:100C7000A389B4899C918589809589238C938689E1
:100C800097890197F1F7608D718DA685B785558598
:100C900038E020E0CB010197F1F7822F90E09595A5
:100CA0008795282F4C91452309F02068315091F702
:100CB000868D81FD20958091E50290E001968F73ED
:100CC00099273091E402381749F0A091E502B0E08D
:100CD000AE56BC4F2C938093E50203C0868D816095
:100CE000868F828D938D0197F1F7A389B4899C91AA
:100CF0008589892B8C93FF91EF91BF91AF919F9143
:100D00008F917F916F915F914F913F912F910F90B4
:100D10000FBE0F901F9018951F920F920FB60F9253
:100D200011242F933F934F935F936F937F938F93F0
:100D30009F93AF93BF93EF93FF938091B900887F08
:100D4000803609F49CC068F5883209F45BC090F4E1
:100D5000803109F454C038F4882309F4F6C088308F
:100D600009F44DC0F6C0883109F44CC0803209F452
:100D70005DC0EFC0803409F468C048F4803309F4E2
:100D800055C0883309F0E5C080932C03D8C0803566
:100D900009F44FC0883509F45DC0883409F0D9C022
:100DA000D6C0883909F4C7C0A8F4883709F467C0E9
:100DB00038F4883609F463C0803709F460C0C9C0CC
:100DC000883809F4B8C0803909F45FC0803809F068
:100DD000C0C05BC0803B09F486C038F4803A09F497
:100DE00066C0883A09F47FC0B4C0803C09F4A7C04B
:100DF000883C09F4A4C0883B09F48AC0AAC0809149
:100E0000290310C090912B0380912A03981770F545
:100E1000E0912B0381E08E0F80932B03F0E0E75FDE
:100E2000FC4F80818093BB0085EC86C080932C03AF
:100E30008EC0E0912B0381E08E0F80932B03809175
:100E4000BB00F0E0E75FFC4F808390912B03809123
:100E50002A036EC0E0912B0381E08E0F80932B0359
:100E60008091BB00F0E0E75FFC4F80838091D70367
:100E700081116DC081E08093D60384EA61C083E074
:100E80008093D80310929103CFCF80919103803249
:100E900008F051C0E091910381E08E0F809391039F
:100EA0008091BB00F0E0EF58FC4F8083BDCF85EC14
:100EB0008093BC001092D80380919103803230F46B
:100EC000E0919103F0E0EF58FC4F108260919103A4
:100ED00070E0E091D203F091D30381E793E00995AC
:100EE0001092910336C084E08093D803109270036F
:100EF00010926F03E091D403F091D503099580918E
:100F00006F03811105C081E080936F0310924F033E
:100F1000E091700381E08E0F80937003F0E0E15B5D
:100F2000FC4F80818093BB009091700380916F0390
:100F3000981708F479CF85E88093BC000AC085EC47
:100F40008093BC001092D80304C010922C030E941E
:100F50007C02FF91EF91BF91AF919F918F917F9113
:100F60006F915F914F913F912F910F900FBE0F9016
:100F70001F9018952EE631E0FC0131832083CF9637
:100F80000C94E403CF93DF93EC010E94BA07CE01E7
:100F9000DF91CF910C9456190895089508950895FE
:100FA00008950895BF92CF92DF92EF92FF920F9330
:100FB0001F93CF93DF93EC016B018D85811105C0E9
:100FC000CE010E944505811105C01B861D861C8629
:100FD00080E060C040E060EFCE010E94F20401E0DA
:100FE000E12CB12C11E0CE010E949F04F82ECE011D
:100FF0000E949F0491E0F91203C08130B1F434C023
:101000002E2D30E0F8121BC08B85181738F4FE0126
:10101000E20FF31F8381802341F402C0811729F07E
:10102000F12C193058F41C8709C0FE01EE0DF11D9A
:101030008381802B8383FF24F39409C0B12EFE01AA
:10104000E20FF31F9381802F8095892383836F2D77
:10105000CE010E94C3041F5F000F11F4E39401E06E
:1010600087E08E1508F0BFCF113408F4AECFBB86F1
:10107000B11002C081E08D878B81882309F4A5CF50
:10108000DE011396F6012B968D918193CA17DB072B
:10109000D9F781E0DF91CF911F910F91FF90EF90F1
:1010A000DF90CF90BF9008958F929F92AF92BF92A2
:1010B0000F931F93CF93DF93CDB7DEB7A1970FB6F2
:1010C000F894DEBF0FBECDBF19A2423008F44AE04B
:1010D0008E010F5D1F4F842E912CA12CB12CA501E8
:1010E00094010E948218E62FB901CA01015011092A
:1010F000EA3014F4E05D01C0E95CD801EC93232BE5
:10110000242B252B61F7B8018DED93E00E94180484
:10111000A1960FB6F894DEBF0FBECDBFDF91CF9181
:101120001F910F91BF90AF909F908F900895CF9295
:10113000DF92EF92FF92CF93DF936B017C016DE220
:101140008DED93E00E943101EC0166277727CB01FA
:101150006C197D098E099F094AE00E9454088C0F82
:101160009D1FDF91CF91FF90EF90DF90CF9008957A
:10117000CF93DF93BC018DED93E00E941804EC0146
:1011800061ED72E08DED93E00E9418048C0F9D1FBD
:10119000DF91CF9108950F931F93CF93DF9386ED47
:1011A00092E00E94B808C2E9D4E00E851F8560E095
:1011B000F80182810E94210AF801148208891989A4
:1011C00060E0F80182810E94210AF80114821EA6C3
:1011D0001DA61FA618AADF91CF911F910F91089508
:1011E0001092DC031092DB031092DA031092D90301
:1011F0001092D80381E08093D7031092D60361E068
:1012000082E10E94210A61E083E10E94210AE9EB68
:10121000F0E080818E7F808380818D7F808388E471
:101220008093B80085E48093BC008CE492E09093B6
:10123000D5038093D4038DE492E09093D3038093FD
:10124000D2030895DB0114964D915C9115976D9131
:101250007C91DC01ED91FC910280F381E02D0994F9
:10126000CF93DF93EC01FB01448155816081718153
:101270000E946A03811103C0CE010E949803CE012F
:10128000DF91CF910895EF92FF920F931F93CF9329
:10129000DF93CDB7DEB762970FB6F894DEBF0FBE0F
:1012A000CDBF8C01CB01F801118210821382128212
:1012B000158214824AE09E012F5F3F4F7901B901E8
:1012C0000E94BF15F70101900020E9F73197AF01A7
:1012D0004E195F09B701C8010E94C30362960FB699
:1012E000F894DEBF0FBECDBFDF91CF911F910F915C
:1012F000FF90EF900895FC018091D5049091D60461
:10130000892B21F421E0309749F413C08091D10456
:101310009091D204309731F421E0FC018081882340
:1013200041F006C0BF010E94B31A21E0892B09F0E9
:1013300020E0822F0895CF93DF93EC018A810E94F1
:10134000F80921E0892B09F420E02C83822FDF911A
:10135000CF910895833081F028F4813099F0823064
:10136000A1F008958730A9F08830B9F08430D1F425
:10137000809180008F7D03C0809180008F77809363
:101380008000089584B58F7702C084B58F7D84BDB9
:1013900008958091B0008F7703C08091B0008F7D59
:1013A0008093B00008953FB7F8948091BE05909166
:1013B000BF05A091C005B091C10526B5A89B05C089
:1013C0002F3F19F00196A11DB11D3FBFBA2FA92FC4
:1013D000982F8827820F911DA11DB11DBC01CD0141
:1013E00042E0660F771F881F991F4A95D1F708952D
:1013F000CF93DF93282F30E0F901E253FF4F849120
:10140000F901E055FF4FD491F901E456FF4FC49123
:10141000CC2391F081110E94AA09EC2FF0E0EE0F8D
:10142000FF1FE857FF4FA591B491EC91ED2381E0A8
:1014300090E021F480E002C080E090E0DF91CF9165
:1014400008951F93CF93DF93282F30E0F901E253E3
:10145000FF4F8491F901E055FF4FD491F901E45613
:10146000FF4FC491CC23C1F0162F81110E94AA090D
:10147000EC2FF0E0EE0FFF1FEE56FF4FA591B49159
:101480009FB7F894111104C08C91D095D82302C055
:10149000EC91DE2BDC939FBFDF91CF911F910895DC
:1014A0000F931F93CF93DF938BED92E00E94B808C8
:1014B000C2E9D4E00E851F8560E0F80182810E94B8
:1014C000210AF80114820888D989C02D61E08A8137
:1014D0000E94210A81E08C83DF91CF911F910F91AF
:1014E00008951092A5041092A4041092C1048823B8
:1014F00021F081E08093C20402C01092C20481E016
:101500008093C00480919A0490919B040E949B094F
:10151000811109C080919C0490919D040E949B09B7
:1015200081110C94500A08950F931F93CF93DF936A
:1015300080EE92E00E94B808C2E9D4E00E851F85D3
:1015400061E0F80182810E94210A81E0F801848330
:101550000888D989C02D60E08A810E94210A1C82F6
:10156000DF91CF911F910F910895CF93DF9390E07A
:10157000FC01E055FF4F2491FC01E456FF4F84919C
:10158000882361F190E0880F991FFC01EC53FF4F15
:10159000C591D491FC01EE56FF4FA591B491611114
:1015A00009C09FB7F8948881209582238883EC91A5
:1015B0002E230BC0623061F49FB7F8948881322FDC
:1015C000309583238883EC912E2B2C939FBF06C0EC
:1015D0008FB7F894E8812E2B28838FBFDF91CF91AE
:1015E00008958E3008F08E508770806480937C0060
:1015F00080917A00806480937A0080917A0086FDE1
:10160000FCCF809178002091790090E0922B089592
:101610008F929F92AF92BF92CF92DF92EF92FF9202
:101620006B017C010E94D3094B015C01C114D10400
:10163000E104F104F1F00E94D309DC01CB01881927
:101640009909AA09BB09883E9340A105B10570F329
:1016500021E0C21AD108E108F10888EE880E83E083
:10166000981EA11CB11CC114D104E104F10419F7A6
:10167000DDCFFF90EF90DF90CF90BF90AF909F9025
:101680008F9008952FB7F8946091BA057091BB05BB
:101690008091BC059091BD052FBF08950F931F93B6
:1016A000CF93DF93EC010E94420B688779878A878A
:1016B0009B87E881F9810284F385E02DCE010995AD
:1016C00097FF17C00E94420B088519852A853B8524
:1016D000DC01CB01801B910BA20BB30B0C811D8194
:1016E0002E813F8180179107A207B30710F38FEF78
:1016F0009FEFDF91CF911F910F9108951F920F924D
:101700000FB60F9211242F933F938F939F93AF9314
:10171000BF938091BA059091BB05A091BC05B09193
:10172000BD053091B90523E0230F2D3720F4019634
:10173000A11DB11D05C026E8230F0296A11DB11DF4
:101740002093B9058093BA059093BB05A093BC057F
:10175000B093BD058091BE059091BF05A091C005D5
:10176000B091C1050196A11DB11D8093BE05909356
:10177000BF05A093C005B093C105BF91AF919F91E4
:101780008F913F912F910F900FBE0F901F90189542
:10179000CF93DF93CDB7DEB7A3970FB6F894DEBF34
:1017A0000FBECDBF789484B5826084BD84B581605E
:1017B00084BD85B5826085BD85B5816085BD80911C
:1017C0006E00816080936E00109281008091810094
:1017D000826080938100809181008160809381008C
:1017E000809180008160809380008091B10084604E
:1017F0008093B1008091B00081608093B0008091AF
:101800007A00846080937A0080917A00826080936D
:101810007A0080917A00816080937A0080917A00CA
:10182000806880937A001092C10068EE73E080E0D7
:1018300090E00E94080BE091ED03F091EE0382E04E
:101840008083E091E903F091EA031082E091EB03D9
:10185000F091EC038FEC80831092F503E091F1039B
:10186000F091F20386E08083E091EF03F091F003C2
:10187000808180618083E091EF03F091F0038081AB
:1018800088608083E091EF03F091F00380818068AD
:101890008083E091EF03F091F00380818F7D80835E
:1018A0000E94F0080E94F0080E94F00884E891E08D
:1018B0000E94B8088DE493E09093D0048093CF0405
:1018C000E0919404F0919504138E128E118E108E77
:1018D000178A168A8FE796E0958F848F94859631C4
:1018E00008F04EC02EE233E0378B268B2DE736E032
:1018F000318F208F25ED34E0338F228F30916800B7
:10190000983058F021E09E3008F420E091E0892FD3
:1019100001C0880F2A95EAF701C084E0832B8093E9
:1019200068009485983038F09E3040F0963148F445
:101930002CE630E008C02DE630E005C02BE630E0B4
:1019400002C020E030E0348B238B983030F481E00B
:1019500001C0880F9A95EAF70EC0292F30E09E301B
:1019600018F42850310902C02E50310981E001C01D
:10197000880F2A95EAF7858B848D958D0197F1F76D
:10198000828D938D892B49F14091E6025091E702B7
:10199000E417F50711F14115510571F0DA0153967D
:1019A0002D913C915497D9019C91DA0155968C91D7
:1019B00080958923D9018C93868D8E7F868F109296
:1019C000E5021092E402F093E702E093E602A389B5
:1019D000B4899C918589892B8C93809198049091EE
:1019E0009904DC01ED91FC910480F581E02D0995CD
:1019F00080919A0490919B04DC01ED91FC9104800C
:101A0000F581E02D099580919E0490919F04DC0161
:101A1000ED91FC910480F581E02D099580919C0465
:101A200090919D04DC01ED91FC910480F581E02D05
:101A300009958091A0049091A104DC01ED91FC91A5
:101A40000190F081E02D09958091A2049091A3046A
:101A5000DC01ED91FC910190F081E02D09950E944F
:101A6000CB0800919E0410919F04F80182810E948E
:101A7000F10AD80115969C938E9314979093BC0409
:101A80008093BB04BC01990F880B990B97FF03C08F
:101A90000E94970803C04AE00E9454080091CD04B8
:101AA0001091CE04D8011696ED91FC9117971386EC
:101AB00015861486DF011B9633961E92EA17FB07E4
:101AC000E1F7F80114821582EE24E394BE016F5F02
:101AD0007F4FD80116968D919C9117970E94D2073F
:101AE000882309F46BC067E0CE0101960E94870449
:101AF00098858913EBCFF8018081811125C08681FB
:101B000097810E944505BE016F5F7F4FD8011696F1
:101B10008D919C9117970E94260540E064EBF80197
:101B2000868197810E94F204D80116968D919C912E
:101B300017970E949F04F82EF801868197810E94D2
:101B40004505FF2009F422C5D8011196FC90898132
:101B5000803109F43FC5BE016F5F7F4FC8010E940D
:101B6000C9058F1518F4F80181810BC08981803176
:101B700011F48CE006C0BE016F5F7F4FC8010E9468
:101B8000C905D80111968C93119714968C911497CE
:101B90008F5F14968C938981883209F4FAC438F4E3
:101BA000803109F4F6C4823209F090CFF2C48B334D
:101BB00009F4EFC4823409F089CFEBC469E971E01C
:101BC0008AE995E00E942D049BEB892E94E0992EE2
:101BD00011E028E6322E0FEF8091C204882309F429
:101BE0009CC00E94420BC090C704D090C804E090F3
:101BF000C904F090CA04DC01CB018C199D09AE091F
:101C0000BF09C397A105B10508F46FC0E090BD04FA
:101C1000F090BE04C0909E04D0909F04F601828193
:101C20000E94F10AD60115969C938E9314972091E9
:101C3000BB043091BC04821793072CF4F901E81B14
:101C4000F90BCF0102C0821B930B28E833E1829F7E
:101C5000B001839F700D929F700D1124672F770F35
:101C6000770B65956595072E000C880B990B0E94E4
:101C7000FB1524EA30E74DE35EE30E94BC170E94A7
:101C80002E182B013C01072E000C880B990B97FF97
:101C900003C00E94970803C04AE00E9454088AEBE0
:101CA00091E00E94B808F701EE0FFF1FEE56FB4FC0
:101CB000568A458A0E94420B6093C7047093C804F9
:101CC0008093C9049093CA048091BD049091BE048E
:101CD00001968A3091052CF49093BE048093BD0444
:101CE00004C01092BE041092BD04E7EAF4E080E064
:101CF00090E021913191820F931F8E169F06C9F7B4
:101D00008A31974250F00E94CB081092C004109282
:101D1000BF041092C2041093A6048091C0048823CB
:101D200019F180919A0490919B040E949B09882349
:101D300059F00E94CB081092C0041092BF04109278
:101D4000C2041093A40410C080919C0490919D043F
:101D50000E949B09811122C48091BF0481111EC47D
:101D60000E94CB081093BF048091C104882391F096
:101D700080919804909199040E949B09882351F0C6
:101D80000E94CB081092C1041092BF041092C204AA
:101D90001093A5041093E80230924E031092DA03D8
:101DA0001092D90360E08AE794E00E94DB029091F0
:101DB000D903913208F042C08091D8038111FCCF41
:101DC00082E08093D8031093D70300932C031092E2
:101DD0002B0390932A03E9EEF2E0A9E0B3E080E060
:101DE000981721F021912D938F5FFACF109229033C
:101DF00080912903806D809329038091D6038130DF
:101E000061F41092D603809129038093BB008091E6
:101E1000BC0083FDF8CF85EC01C085EE8093BC004B
:101E20008091D8038230E1F380912C038F3F31F011
:101E300080912C03803211F080912C031092DA03F0
:101E40001092D9031092E8028091D8038111FCCF3F
:101E50001093D8031093D70300932C0310922B03F5
:101E600086E080932A031093290380912903806DD3
:101E7000809329038091D603813061F41092D603B8
:101E8000809129038093BB008091BC0083FDF8CF33
:101E900085EC01C085EE8093BC008091D803813031
:101EA000E1F380912B03873018F490912B0301C04C
:101EB00097E0E9E0F3E0ADE2B3E080E0891721F0DC
:101EC00021912D938F5FFACF1092DC038093DB0377
:101ED0008AE794E00E945D028AE794E00E945D0236
:101EE0008AE794E00E945D028AE794E00E945D0226
:101EF0008AE794E00E945D028AE794E00E945D0216
:101F00008AE794E00E945D028091D704882359F10A
:101F10002091A4048091940490919504222339F097
:101F20001092D7041092A4046DEB71E00AC02091C6
:101F3000A604222341F01092D7041092A60463EC69
:101F400071E00E942D048091A504882361F0109215
:101F5000D7041092A50469EC71E0809194049091EB
:101F600095040E942D048091940490919504DC01C5
:101F7000ED91FC910084F185E02D0995892B09F400
:101F800002C3E0909404F090950463ED72E0CE01FA
:101F900001960E940304C7010E944E0B97FD0CC0DE
:101FA0008A871B8641E050E0BE01665F7F4FCE010D
:101FB00001960E946A03EFCF8091D1049091D204E0
:101FC000009789F069817A816115710551F040911E
:101FD000D3045091D4042D813E814217530708F059
:101FE000F0C20E94561989819A819093D2048093FD
:101FF000D1048B819C819093D4048093D3048D81F0
:102000009E819093D6048093D5041A8219821C82F3
:102010001B821E821D82CE0101960E94E4038FEC7A
:1020200091E00E947B098823E9F064ED71E08091E2
:102030009404909195040E942D041092A50410928E
:10204000A4041092C0041093C2041093C1048091A0
:102050009804909199040E949B0981112BC00E94C1
:10206000940A28C08EED91E00E947B09882389F0B4
:1020700063EE71E080919404909195040E942D0488
:102080001092A5041092A4041092C0041092C204ED
:10209000DCCF8DEE91E00E947B09882371F062EF26
:1020A00071E080919404909195040E942D0481E048
:1020B0000E94710A1093D70466C28CEF91E00E94CF
:1020C0007B09882351F061E072E080919404909143
:1020D00095040E942D0480E0EBCF8BE092E00E94FB
:1020E0007B09882359F060E172E08091940490911B
:1020F00095040E942D040E94940A45C28AE192E050
:102100000E947B09882359F06FE172E0809194046A
:10211000909195040E942D040E94500A34C289E2D5
:1021200092E00E947B09882359F06EE272E0809170
:102130009404909195040E942D040E94CB0823C220
:1021400088E392E00E947B098823D1F06DE372E07E
:1021500080919404909195040E942D0480919A049A
:1021600090919B040E949B092091940430919504C6
:10217000882319F067E472E042C06FE472E03FC068
:1021800087E592E00E947B098823D1F06CE572E03C
:1021900080919404909195040E942D04809198045C
:1021A000909199040E949B09209194043091950488
:1021B000882319F066E672E022C06EE672E01FC066
:1021C00086E792E00E947B098823E9F06DE772E0E0
:1021D00080919404909195040E942D0480919C0418
:1021E00090919D040E949B09209194043091950444
:1021F000882319F069E872E002C063E972E0C9015E
:102200000E942D04C0C18DE992E00E947B098823C1
:1022100009F470C065EA72E080919404909195048D
:102220000E942D0480919C0490919D040E949B0922
:10223000682F70E0CE0148960E944309809198046F
:10224000909199040E949B09682F70E0CE014296FC
:102250000E94430980919A0490919B040E949B09DB
:10226000682F70E0CE010A960E94430962EB72E08B
:10227000CE0101960E940304BE01665F7F4FCE012E
:1022800001960E94300964EB72E00E94AA03BE012D
:102290006E5E7F4F0E94300964EB72E00E94AA03D9
:1022A000BE01685E7F4F0E94300964E772E00E94C1
:1022B000AA03BC01CE014E960E94E903CE0101960D
:1022C0000E94E403CE010A960E94E403CE014296E6
:1022D0000E94E403CE0148960E94E403BE01625EC0
:1022E0007F4F80919404909195040E942209CE0121
:1022F0004E9647C186EB92E00E947B09882309F441
:1023000042C16BEB72E080919404909195040E941D
:102310002D04E090CD04F090CE04F70186819781E2
:102320000E94450540E06CECD70116968D919C917A
:1023300017970E94F204F701408164E48681978137
:102340000E94F204D70112968C9112978823E9F12A
:102350001196EC91E950E33040F4F0E0EE0FFF1FEE
:10236000EA5FFE4FC080D18004C07EEEC72E72E0CF
:10237000D72EF7018381882311F1808181111FC03D
:102380000E94420B2B013C015601DD0CCC08DD08FC
:10239000D70116968D919C9117970E949F048130CA
:1023A000A1F00E94420BDC01CB018A199B09AC0908
:1023B000BD0984159505A605B70550F306C0B601FD
:1023C000DD0C880B990B0E94080BE090CD04F09077
:1023D000CE04D7011696ED91FC91179713861586BA
:1023E0001486DF011B9633961E92AE17BF07E1F7E6
:1023F000BE01665F7F4FF701868197810E94D207F9
:10240000882309F4EEC067E0CE010A960E94870493
:1024100099898913E6C0D70116968D919C911797DB
:102420000E944505882309F478C1AE014F5F5F4FD4
:10243000BE01665F7F4FC7010E947C05882309F4B7
:102440006CC168E0CE0101960E94870499858913CA
:1024500064C12A8130E0C901982F8827990F990F0C
:10246000990F6981F8E06F9FB00111249C01262B20
:10247000372B8A85803109F0B2C0688570E08F8182
:10248000AB01481B5109CA019695982F882797954B
:1024900087950E946E1860517109207F53E0220FCA
:1024A000331F5A95E1F7620F731F613854EE7507B9
:1024B0000CF497C0072E000C880B990B0E94FB159B
:1024C00020E030E040E05CE30E945A162B013C0122
:1024D00020E030E040E251E40E945A160E942E189B
:1024E0007B01A3019201C301B2010E9469188823F4
:1024F00009F481C065EC72E08DED93E00E94180450
:1025000061ED72E08DED93E00E941804B701CE01F9
:102510000A960E94430964ED72E0CE0101960E9482
:102520000304BE01665F7F4FCE0101960E94300911
:1025300064E772E00E94AA03BC01CE0142960E94A9
:10254000E903CE0101960E94E403CE010A960E949F
:10255000E403BE016E5E7F4F8091940490919504D8
:102560000E942209BE016E5E7F4F8DED93E00E94B6
:10257000220961ED72E08DED93E00E941804CE0116
:1025800042960E94E4030E94A00126CBD801EC925F
:10259000DBCAF80185818F5F858398CA80919C048E
:1025A00090919D040E949B09882309F4DDCB8091C2
:1025B000BF04882309F4D8CB0E94500A1092BF04AC
:1025C000D3CB0E94BC1A8D819E819093D6048093B8
:1025D000D5041FCDFCE0FF1508F4C5CACACAB9016D
:1025E00064CF412C512C8EEF682E82EC782E9AE02D
:1025F000E92E9BEFF92E63015201E894D7F82FEFF3
:102600003FEF4FE75FE7C601B5010E9469188111EE
:102610000DC02FEF3FEF4FE75FE7C601B5010E9406
:10262000F41518161CF469EC72E066CF2FEF3FEF3B
:102630004FE75FE4C301B2010E94641818161CF44E
:102640006DEC72E059CF2FEF3FEF4FE75FECC30126
:10265000B2010E94F41587FDF3CF20E030E0A9011C
:10266000C301B2010E94F41587FF09C06DE28DED30
:1026700093E00E94310177FA709477F870942AE021
:1026800037ED43EA5BE3C301B2010E9450175B01DF
:102690006C010E9435182B013C010E94F9159B0129
:1026A000AC01C601B5010E944F175B016C014AE005
:1026B000C301B2010E9454086EE28DED93E00E94C6
:1026C000310120E030E040E251E4C601B5010E9452
:1026D0005A165B016C010E9435182B01612C712C7C
:1026E0004AE0C301B2010E945408C301B2010E9432
:1026F000F9159B01AC01C601B5010E944F1720E0FE
:1027000030E040E251E40E945A160E94351880E001
:1027100090E04AE00E945408F3CE60E874EEC5CE23
:1027200086E894E00E94E4038CE894E00E94E403CD
:1027300082E994E00E94BA0786E791E090939B05B6
:1027400080939A058091E6029091E7028A5995401C
:1027500071F4E091AD05F091AE0590818091AF05E7
:102760008095892380831092E7021092E6020895F3
:10277000CF93DF931092E0031092DF0388EE93E093
:10278000A0E0B0E08093E1039093E203A093E30321
:10279000B093E40320E131E03093DE032093DD03C6
:1027A00025EC30E03093EA032093E90324EC30E099
:1027B0003093EC032093EB0320EC30E03093EE03F6
:1027C0002093ED0321EC30E03093F0032093EF03EE
:1027D00022EC30E03093F2032093F10326EC30E05A
:1027E0003093F4032093F3031092F6031092F7034F
:1027F0001092F8031092F90310927D0410927C0459
:1028000080937E0490937F04A0938004B09381040E
:1028100022E231E030937B0420937A0410929D05EC
:1028200010929C0580939E0590939F05A093A00510
:10283000B093A10586E791E090939B0580939A055C
:102840001092B1051092B0051092B3051092B20526
:102850001092B5051092B4051092B7051092B60506
:102860006091B8056E7F6D7F6093B8056695617065
:1028700081E068278BE00E94210A61E08BE00E94E2
:10288000B50AEBEBF0E0E491E093AA05E7EAF0E0AB
:10289000E491F0E0EE0FFF1FEE56FF4F859194910B
:1028A0009093AC058093AB0560E08AE00E94B50A86
:1028B0008091B80581FD04C061E08AE00E94210A90
:1028C0008AE08093A605EAEBF0E0E491E093A705A7
:1028D000E6EAF0E0E491F0E0EE0FFF1FE857FF4F6B
:1028E000859194919093A9058093A8058EE691E037
:1028F000909393048093920486E691E090939704DA
:102900008093960484E1E7EAF4E0DF011D928A9562
:10291000E9F71092BC041092BB041092BE0410920E
:10292000BD0485E090E00E94BE18FC0185E090E0C7
:1029300093838283CCE5D1E0D183C0831482F0936A
:102940009904E09398040E94BE18FC0186E090E090
:1029500093838283D183C0831482F0939B04E0939A
:102960009A0488E090E00E94BE18FC018EE090E09E
:102970009383828388E491E0918380831782168217
:1029800015821482F0939F04E0939E0485E090E00A
:102990000E94BE18FC0187E090E093838283D1837C
:1029A000C0831482F0939D04E0939C0485E090E042
:1029B0000E94BE18FC0180E190E093838283CEE305
:1029C000D1E0D183C0831482F093A104E093A004EA
:1029D00085E090E00E94BE18FC0181E190E09383C5
:1029E0008283D183C0831482F093A304E093A20472
:1029F0001092C0041092C1041092C2041092BF043D
:102A00001092A4041092A5041092A6041092C3047C
:102A10001092C4041092C5041092C6041092C70408
:102A20001092C8041092C9041092CA0463ED72E0B7
:102A300081ED94E00E94030484E5ECEDF4E0DF0115
:102A4000982F1D929A95E9F7E0E3F5E0DF011D92DA
:102A50008A95E9F78FEF9FEF909385058093840522
:102A600090938705809386059093890580938805C8
:102A700090938B0580938A0510928C0510928D059A
:102A800010928E059093900580938F0590939205F8
:102A90008093910590939405809393059093960568
:102AA00080939505109297051092980510929905BC
:102AB0008AE995E0909395048093940440E050E077
:102AC00063ED72E081ED94E00E94C3031092D7049D
:102AD0008EE090E00E94BE18EC0160E084E00E946D
:102AE000B50AE4EBF0E0E491E883E0EAF0E0E49199
:102AF000F0E0EE0FFF1FE857FF4F859194919A8306
:102B000089831B861D861C86FE013B96CE0103969B
:102B10001292E817F907E1F7D093CC04C093CB04E5
:102B200084E190E00E94BE18FC01D783C683148222
:102B30001582108289E0818381E082838383138AF6
:102B4000128AF093CE04E093CD041092D804109230
:102B5000D9041092DA041092DB041092D00410927F
:102B6000CF0463ED72E08CE894E00E94030463ED0F
:102B700072E086E894E0DF91CF910C940304BB27C8
:102B80004A3031F4992322F4BDE2909581959F4F0C
:102B90000C94CB15BB27FB015527AA27880F991F3B
:102BA000AA1FA41710F0A41B83955051B9F7A05D7C
:102BB000AA3308F0A95DA193009779F7B111B193F9
:102BC0001192CB010C94E415DC01FC01672F71918B
:102BD0007723E1F7329704C07C916D937083629103
:102BE000AE17BF07C8F308950E94361608F481E0B7
:102BF0000895E89409C097FB3EF4909580957095F0
:102C000061957F4F8F4F9F4F9923A9F0F92F96E938
:102C1000BB279395F695879577956795B795F111AD
:102C2000F8CFFAF4BB0F11F460FF1BC06F5F7F4F4A
:102C30008F4F9F4F16C0882311F096E911C077235C
:102C400021F09EE8872F762F05C0662371F096E865
:102C5000862F70E060E02AF09A95660F771F881F34
:102C6000DAF7880F9695879597F90895990F0008D8
:102C7000550FAA0BE0E8FEEF16161706E807F9074E
:102C8000C0F012161306E407F50798F0621B730BE9
:102C9000840B950B39F40A2661F0232B242B252B6A
:102CA00021F408950A2609F4A140A6958FEF811D0D
:102CB000811D08950E946D160C94DE160E94D01698
:102CC00038F00E94D71620F0952311F00C94C71607
:102CD0000C94CD1611240C9412170E94EF1670F369
:102CE000959FC1F3950F50E0551F629FF001729FB1
:102CF000BB27F00DB11D639FAA27F00DB11DAA1FC0
:102D0000649F6627B00DA11D661F829F2227B00D0C
:102D1000A11D621F739FB00DA11D621F839FA00D97
:102D2000611D221F749F3327A00D611D231F849FE7
:102D3000600D211D822F762F6A2F11249F5750403E
:102D40009AF0F1F088234AF0EE0FFF1FBB1F661FB9
:102D5000771F881F91505040A9F79E3F510580F082
:102D60000C94C7160C9412175F3FE4F3983ED4F30B
:102D7000869577956795B795F795E7959F5FC1F726
:102D8000FE2B880F911D9695879597F9089597F9D1
:102D90009F6780E870E060E008959FEF80EC089501
:102DA00000240A941616170618060906089500242A
:102DB0000A9412161306140605060895092E0394A4
:102DC000000C11F4882352F0BB0F40F4BF2B11F418
:102DD00060FF04C06F5F7F4F8F4F9F4F089557FD77
:102DE0009058440F551F59F05F3F71F04795880F79
:102DF00097FB991F61F09F3F79F087950895121610
:102E000013061406551FF2CF4695F1DF08C01616BB
:102E100017061806991FF1CF86957105610508946C
:102E20000895E894BB2766277727CB0197F9089583
:102E30002F923F924F925F926F927F928F929F92CA
:102E4000AF92BF92CF92DF92EF92FF920F931F93B8
:102E5000CF93DF93CDB7DEB7CA1BDB0B0FB6F89469
:102E6000DEBF0FBECDBF09942A88398848885F84A9
:102E70006E847D848C849B84AA84B984C884DF801A
:102E8000EE80FD800C811B81AA81B981CE0FD11DFE
:102E90000FB6F894DEBF0FBECDBFED0108955058B8
:102EA000BB27AA270E9467170C94DE160E94D01633
:102EB00038F00E94D71620F039F49F3F19F426F419
:102EC0000C94CD160EF4E095E7FB0C94C716E92F91
:102ED0000E94EF1658F3BA17620773078407950725
:102EE00020F079F4A6F50C9411170EF4E0950B2E52
:102EF000BA2FA02D0B01B90190010C01CA01A0014C
:102F00001124FF27591B99F0593F50F4503E68F1A6
:102F10001A16F040A22F232F342F4427585FF3CFE7
:102F2000469537952795A795F0405395C9F77EF4B8
:102F30001F16BA0B620B730B840BBAF09150A1F001
:102F4000FF0FBB1F661F771F881FC2F70EC0BA0F87
:102F5000621F731F841F48F4879577956795B7950F
:102F6000F7959E3F08F0B0CF9395880F08F099270A
:102F7000EE0F9795879508950E94D0170C94DE1652
:102F80000E94D71658F00E94D01640F029F45F3FF7
:102F900029F00C94C71651110C9412170C94CD16ED
:102FA0000E94EF1668F39923B1F3552391F3951B13
:102FB000550BBB27AA2762177307840738F09F5F5A
:102FC0005F4F220F331F441FAA1FA9F335D00E2EC7
:102FD0003AF0E0E832D091505040E695001CCAF734
:102FE0002BD0FE2F29D0660F771F881FBB1F2617F7
:102FF00037074807AB07B0E809F0BB0B802DBF01CE
:10300000FF2793585F4F3AF09E3F510578F00C949C
:10301000C7160C9412175F3FE4F3983ED4F38695DD
:1030200077956795B795F7959F5FC9F7880F911DBD
:103030009695879597F90895E1E0660F771F881FA9
:10304000BB1F621773078407BA0720F0621B730B5C
:10305000840BBA0BEE1F88F7E09508950E9435188F
:103060006894B1110C94121708950E94F71688F015
:103070009F5798F0B92F9927B751B0F0E1F0660F3C
:10308000771F881F991F1AF0BA95C9F714C0B1307D
:1030900091F00E941117B1E008950C941117672F59
:1030A000782F8827B85F39F0B93FCCF386957795AC
:1030B0006795B395D9F73EF4909580957095619595
:1030C0007F4F8F4F9F4F08950E94361608F48FEF61
:1030D00008950E943616880B990B089597FB072ECA
:1030E00016F4009407D077FD09D00E94A41807FCBD
:1030F00005D03EF4909581959F4F08957095619508
:103100007F4F0895A1E21A2EAA1BBB1BFD010DC023
:10311000AA1FBB1FEE1FFF1FA217B307E407F50787
:1031200020F0A21BB30BE40BF50B661F771F881F63
:10313000991F1A9469F760957095809590959B01F9
:10314000AC01BD01CF010895AA1BBB1B51E107C013
:10315000AA1FBB1FA617B70710F0A61BB70B881F27
:10316000991F5A95A9F780959095BC01CD010895B6
:10317000EE0FFF1F0590F491E02D09940F931F931C
:10318000CF93DF938230910510F482E090E0E091DC
:10319000C405F091C50520E030E0A0E0B0E0309734
:1031A00019F1408151810281138148175907C8F0F4
:1031B0008417950769F4109731F012960C931297C3
:1031C00013961C9327C00093C4051093C50522C015
:1031D0002115310519F04217530718F49A01BD0162
:1031E000EF01DF01F801DBCF21153105F9F0281BD4
:1031F000390B2430310580F48A819B81611571057A
:1032000021F0FB019383828304C09093C5058093D2
:10321000C405FE01329644C0FE01E20FF31F819304
:10322000919322503109398328833AC02091C205F5
:103230003091C305232B41F4209102013091030109
:103240003093C3052093C205209100013091010104
:103250002115310541F42DB73EB74091040150913D
:103260000501241B350BE091C205F091C305E2175F
:10327000F307A0F42E1B3F0B2817390778F0AC0199
:103280004E5F5F4F2417350748F04E0F5F1F509376
:10329000C3054093C2058193919302C0E0E0F0E042
:1032A000CF01DF91CF911F910F910895CF93DF93BD
:1032B000009709F481C0FC01329713821282A09119
:1032C000C405B091C505109781F420813181820F2A
:1032D000931F2091C2053091C3052817390751F576
:1032E000F093C305E093C20567C0ED0120E030E034
:1032F000CE17DF0740F44A815B819E0141155105DD
:10330000F1F0EA01F5CFD383C28340815181840F6C
:10331000951FC817D90759F488819981840F951F83
:103320000296918380838A819B8193838283211576
:10333000310529F4F093C505E093C4053DC0E901CA
:10334000FB83EA8349915991C40FD51FEC17FD0700
:1033500061F480819181840F951F0296E901998320
:103360008883828193819B838A83E0E0F0E01296D8
:103370008D919C911397009719F0FD01DC01F7CF17
:103380008D919C9111979D012E5F3F4F820F931F4E
:103390002091C2053091C3052817390769F4309789
:1033A00029F41092C5051092C40502C0138212823E
:1033B000B093C305A093C205DF91CF910895A0E01B
:1033C000B0E0E5EEF9E10C941C17EC01009721F454
:1033D000CB010E94BE18B4C0FC01E60FF71F9C0190
:1033E00022503109E217F30708F4A8C0D9010D9162
:1033F0001C91119706171707B0F00530110508F456
:103400009BC0C80104978617970708F495C002501F
:103410001109061B170B019311936D937C93CF0138
:103420000E94561989C05B01A01AB10A4C01800E96
:10343000911EA091C405B091C505612C712CE12CA1
:10344000F12C109709F446C08D919C911197A81505
:10345000B905B1F56C0142E0C40ED11CCA14DB04FD
:1034600078F14C018A189B08640142E0C40ED11C1B
:103470001296BC9012971396AC91B5E0CB16D1047E
:1034800040F0B282A38391828082D9016D937C93B4
:1034900009C00E5F1F4F800F911FF9019183808338
:1034A000EB2DFA2FE114F10431F0D7011396FC93C0
:1034B000EE93129741C0F093C505E093C4053CC05C
:1034C0006816790608F43C017D0112960D90BC91B6
:1034D000A02DB7CF8091C2059091C305881699069B
:1034E000E1F466167706C8F480910001909101011D
:1034F000009741F48DB79EB74091040150910501AA
:10350000841B950BE817F907C8F4F093C305E09303
:10351000C205F901718360830FC0CB010E94BE1800
:103520007C01009759F0A801BE010E94AA1ACE01A1
:103530000E945619C70104C0CE0102C080E090E08D
:10354000CDB7DEB7EEE00C94381781E090E0F89448
:103550000C94C31AFB01DC0102C001900D92415092
:103560005040D8F70895FB01DC018D91019080193E
:103570000110D9F3990B0895FB01DC0101900D9224
:103580000020E1F7089510E0C2E7D0E004C0FE019A
:103590000E94B8182196C337D107C9F7F894FFCF16
:1035A0000000C60580005E00BC007701000000003E
:1035B00031019E00C8007E01F900D700EB00000039
:1035C0000000DB02AE027902C20171025D024E020E
:1035D000000000004E03CE073903000000003F0347
:1035E000CD07370300000000D1073D03530300005F
:1035F0000000CF073B03C20100000000D0073303E7
:10360000580300000000CC07350300000000BA0793
:10361000C20700000000C3019E007902C20113022C
:103620002B02AA014C65206D6F64756C65205254A5
:103630004320657374204F4B00506F756C74727922
:103640005F646F6F725F6374726C5F56302E3120EF
:1036500032395F31325F32322F006D4100435F4FAC
:103660004B2F00435F4B4F2F004F5F4F4B2F004FAF
:103670005F3131004F5F31315F41434B2F004F5F6E
:103680003031004F5F30315F41434B2F00435F319A
:103690003100435F31315F41434B2F00435F303195
:1036A00000435F30315F41434B2F004F5F303000AC
:1036B0004F5F30305F41434B2F00435F303000435A
:1036C0005F30305F41434B2F0053544F50005354F1
:1036D0004F505F41434B2F0046435F4C0046435FD2
:1036E0004C5F41434B2F0046435F4C5F312F0046F8
:1036F000435F4C5F302F0046435F480046435F48BE
:103700005F41434B2F0046435F485F312F004643E4
:103710005F485F302F00504F554C5F5000504F5561
:103720004C5F505F41434B2F00504F554C5F505FF3
:10373000312F00504F554C5F505F302F0053544194
:1037400054455F440053544154455F445F41434BEB
:103750002F0053005F0054454D500054454D505FBD
:1037600041434B2F006E616E00696E66006F766696
:10377000000D0A00540073746F7000646F776E0060
:043780007570000060
:00000001FF
