:100000000C9473000C949B000C949B000C941206AF
:100010000C9412060C9412060C949B000C949B00FA
:100020000C949B000C949B000C949B000C949B00E4
:100030000C949B000C949B000C949B000C949B00D4
:100040000C94800B0C949B000C9455040C942F047E
:100050000C949B000C949B000C949B000C949B00B4
:100060000C948C060C949B00005EBCE2613FDD8327
:10007000C29C7E20A3FD1F41009D23BE46DB65F888
:100080008C11AF32CA57E97400000000230026002B
:10009000290000000000250028002B0004040404AF
:1000A0000404040402020202020203030303030322
:1000B00001020408102040800102040810200102FF
:1000C0000408102000000000240027002A0000007F
:1000D0000008000201000003040700000000000007
:1000E00000000C15E41411241FBECFEFD8E0DEBFD2
:1000F000CDBF25E0A4EEB2E001C01D92A83CB2073E
:10010000E1F712E0A0E0B1E0E4E6F8E302C0059018
:100110000D92A43EB107D9F710E0C2E7D0E004C0C9
:100120002197FE010E941A1AC137D107C9F70E9410
:10013000CA0B0C94251C0C9400000895CF92DF92FA
:10014000EF92FF920F931F93CF93DF936C017A018D
:100150008B01C0E0D0E0CE15DF0581F0D8016D91B4
:100160008D01D601ED91FC910190F081E02DC60149
:100170000995892B11F02196EECF7E01C701DF9101
:10018000CF911F910F91FF90EF90DF90CF90089546
:10019000FC01538D448D252F30E0842F90E0821B8D
:1001A000930B541710F0CF96089501970895FC0112
:1001B000918D828D981761F0828DDF01A80FB11D9E
:1001C0005D968C91928D9F5F9F73928F90E00895C2
:1001D0008FEF9FEF0895FC01918D828D981731F07C
:1001E000828DE80FF11D858D90E008958FEF9FEFD0
:1001F0000895FC01918D228D892F90E0805C9F4FA6
:10020000821B91098F73992708958DED93E00E94C9
:10021000F90021E0892B09F420E0822F0895FC01E8
:10022000848DDF01A80FB11DA35ABF4F2C91848D7F
:1002300090E001968F739927848FA689B7892C93B4
:10024000A089B1898C91837080648C93938D848D07
:10025000981306C00288F389E02D80818F7D80830A
:100260000895EF92FF920F931F93CF93DF93EC01CA
:1002700081E0888F9B8D8C8D981305C0E889F98962
:10028000808185FD26C0F62E0B8D10E00F5F1F4F7D
:100290000F731127E02E8C8DE8120CC00FB607FCEF
:1002A000FACFE889F989808185FFF5CFCE010E94D8
:1002B0000F01F1CF8B8DFE01E80FF11DE35AFF4FC7
:1002C000F0829FB7F8940B8FEA89FB898081806266
:1002D0000AC09FB7F894EE89FF896083E889F9899D
:1002E00080818370806480839FBF81E090E0DF9194
:1002F000CF911F910F91FF90EF900895CF93DF93CF
:10030000EC01888D8823C9F0EA89FB89808185FD0D
:1003100005C0A889B9898C9186FD0FC00FB607FC6E
:10032000F5CF808185FFF2CFA889B9898C9185FFAF
:10033000EDCFCE010E940F01E7CFDF91CF9108955D
:1003400080E090E0892B29F00E94050181110C9436
:10035000000008952091E6023091E702281739073E
:1003600071F49091E4028091E502981741F0E091D8
:10037000E402F0E0EE56FC4F808190E008958FEFAC
:100380009FEF089508951F93CF93DF93DC015C9650
:100390008D919C915D97009739F421E030E01396A0
:1003A0003C932E9312973BC05196ED91FC9152973E
:1003B00050962C915097322F30951FB75E964C91E6
:1003C0005E97742F727041FD6095F8944081772399
:1003D00011F0422B01C043234083EC012197F1F738
:1003E00048E0508160FF02C0522B01C0532350836C
:1003F000EC012197F1F76695415099F780817723B9
:1004000019F08323808302C0282B20831FBF5C96B2
:100410008D919C915D970197F1F781E090E0DF91DC
:10042000CF911F9108952091E6023091E70228179D
:10043000390771F48091E5022091E40290E0805C3C
:100440009F4F821B910960E470E00E94D0190895CB
:1004500080E090E008952091E6023091E7022817AD
:100460003907B9F49091E4028091E502981789F078
:10047000E091E402F0E0EE56FC4F80812091E4022E
:1004800030E02F5F3F4F2F7333272093E40290E03B
:1004900008958FEF9FEF089508950895E091DC038C
:1004A0008091DB03E81730F4F0E0E35DFC4F8081DE
:1004B00090E008958FEF9FEF08959091DC03809175
:1004C000DB03981750F4E92FF0E0E35DFC4F208147
:1004D00030E09F5F9093DC0302C02FEF3FEFC90134
:1004E00008958091DB0390E02091DC03821B910949
:1004F000089580E090E0089585ED8093BC008091A0
:10050000BC0084FDFCCF1092D803089540916F0386
:10051000262F30E0240F311D21323105DCF42091EB
:10052000D8032430C9F4FC0180E090E0861758F429
:1005300030916F032191DC01A15BBC4FA30FB11D72
:100540002C930196F3CF80916F03680F60936F0334
:1005500080E0089581E0089582E00895CF92DF92CF
:10056000EF92FF920F931F93CF93DF937C01CB0108
:100570008A012091E802222389F0EB016B01C40E6D
:10058000D51ECC15DD0569F06991D701ED91FC917F
:100590000190F081E02DC7010995F3CF642F0E94EF
:1005A0008602C801DF91CF911F910F91FF90EF90CC
:1005B000DF90CF900895CF93DF931F92CDB7DEB732
:1005C00069832091E8022223D1F02091D9032032BF
:1005D00040F021E030E0FC013383228380E090E0B2
:1005E00015C08091DA03E82FF0E0E751FD4F9981C3
:1005F00090838F5F8093DA038093D90305C061E015
:10060000CE0101960E94860281E090E00F90DF917A
:10061000CF9108950E94071C0F931F93CF93DF93F0
:10062000EC0188819981009729F02A813B81261766
:10063000370788F48B016F5F7F4F0E94411B009743
:1006400061F0998388831B830A832C813D81232B4E
:1006500011F4FC01108281E001C080E0DF91CF91B4
:100660001F910F9108950C94B81A0C94B81A0C9419
:10067000B81A0C94B81A0C94B81A0C94B81ACF93F0
:10068000DF93EC0161E08A810E94B70A60E08A8111
:100690000E94230A1C82DF91CF91089561E0FC0142
:1006A00082810C94B70A60E0FC0182810C94B70A45
:1006B000CF93DF93EC0160E08A810E94B70A8A81C0
:1006C0000E94FA0921E0892B09F420E02C83DF91B4
:1006D000CF910895EF92FF920F931F93CF93DF93E3
:1006E0006115710511F480E01CC041155105C1F080
:1006F0007B01EC018C819D818A01080F191FB801D3
:10070000CE010E940C03882371F3288139818C81EA
:100710009D81B701820F931F0E941E1C1D830C83B5
:1007200081E0DF91CF911F910F91FF90EF9008959D
:10073000CF93DF93EC0188819981009711F00E949B
:10074000B81A198218821D821C821B821A82DF91BC
:10075000CF910895CF93DF93EC016115710561F09E
:10076000FB0101900020E9F73197AF01461B570BC1
:100770000E946A03811103C0CE010E949803CE013A
:10078000DF91CF910895EF92FF920F931F93CF9334
:10079000DF93EC017B018A01BA010E940C038111F5
:1007A00004C0CE010E94980307C01D830C83B701CB
:1007B000888199810E941E1CCE01DF91CF911F91EB
:1007C0000F91FF90EF900895FC01808191810C942E
:1007D000B81AFB01DC0111961C921E9213961C9212
:1007E0001E92129715961C921E92149786179707C1
:1007F00049F0608171816115710521F04481558155
:100800000C94C3030895FC0111821082138212829A
:10081000158214826115710551F0FB0101900020D1
:10082000E9F73197AF01461B570B0C94C3030895AA
:100830006115710579F0FB0101900020E9F731970E
:10084000AF01461B570BDC01ED91FC910280F38157
:10085000E02D099480E090E008950C9418041F9214
:100860000F920FB60F9211242F933F934F935F93E4
:100870006F937F938F939F93AF93BF93EF93FF9368
:100880008DED93E00E940F01FF91EF91BF91AF9129
:100890009F918F917F916F915F914F913F912F9198
:1008A0000F900FBE0F901F9018951F920F920FB6CA
:1008B0000F9211242F938F939F93EF93FF93E091C7
:1008C000ED03F091EE038081E091F303F091F403E6
:1008D00082FD12C090818091F6038F5F8F7320910B
:1008E000F703821751F0E091F603F0E0E352FC4F7A
:1008F000958F8093F60301C08081FF91EF919F91C6
:100900008F912F910F900FBE0F901F901895DC01C3
:1009100080E0615098F02D91982F9227E92FEF7089
:10092000F0E0E859FF4F249192959F70E92FF0E095
:10093000E858FF4FE491822F8E27EBCF0895FC01FA
:1009400090810180F281E02DF8948181892B81834F
:100950002281892F809528232283A7E0B0E0119778
:10096000F1F7218182238183A3E2B0E01197F1F7AF
:1009700080817894EFECF0E03197F1F7982381E0F3
:1009800009F480E00895FC0190810180F281E02D5E
:10099000892F809560FF12C0F89422818223828380
:1009A0008181892B8183A3E2B0E01197F1F78281E5
:1009B000982B9283789487ED90E011C0F89422816F
:1009C000822382838181892B8183AFEFB0E01197ED
:1009D000F1F78281982B928378948FE090E00197D1
:1009E000F1F70895DF92EF92FF920F931F93CF9349
:1009F000DF93EC01D62EE42E08E010E0FF24F39400
:100A000061E08D2D8F2109F460E0CE010E94C304C6
:100A1000FF0C01501109A1F7E11010C0F894E98111
:100A2000FA8191818881809589238183E981FA8186
:100A3000928188818095892382837894DF91CF91F8
:100A40001F910F91FF90EF90DF900895EF92FF922A
:100A50000F931F93CF93DF938C017B0140E065E5FB
:100A60000E94F204E70188E0E80EF11C699140E081
:100A7000C8010E94F204CE15DF05C1F7DF91CF91C6
:100A80001F910F91FF90EF900895DC012C9111962A
:100A9000ED91FC911297F8948181922F9095892382
:100AA000818378948DE743E050E0815021F1DA01B1
:100AB0001197F1F730813223C1F3F89482818923B1
:100AC00082838181822B81837894ABE7B7E0119791
:100AD000F1F7F89481819823918383E191E0019764
:100AE000F1F78081282381E009F080E07894E3E643
:100AF000F6E03197F1F708958F929F92AF92BF92EF
:100B0000CF92DF92EF92FF920F931F93CF93DF93D9
:100B10008C017A01FC01868197810E94260540E0C4
:100B20006EEBF801868197810E94F204E70157017C
:100B3000F9E0AF0EB11CF8018680978088E0C82EDE
:100B4000D12CF12CEE24E394C4010E949F04811166
:100B5000FE28EE0CF1E0CF1AD108B1F7F992AC16ED
:100B6000BD0649F7F801868197810E94450591E00D
:100B7000813009F090E0892FDF91CF911F910F9183
:100B8000FF90EF90DF90CF90BF90AF909F908F90AD
:100B90000895EF92FF920F931F93CF93DF93CDB7FA
:100BA000DEB729970FB6F894DEBF0FBECDBF8C011C
:100BB0007B01FC01868197810E944505882311F104
:100BC000AE014F5F5F4FB701C8010E947C058823CB
:100BD000C9F068E0CE0101960E94870499858913C7
:100BE00011C08D818F3361F020F48F3159F489E089
:100BF0000CC08F3519F08F3739F004C08BE005C079
:100C00008AE003C080E001C08CE029960FB6F8941A
:100C1000DEBF0FBECDBFDF91CF911F910F91FF902F
:100C2000EF9008951F920F920FB60F9211242F93F9
:100C30003F934F935F936F937F938F939F93AF9364
:100C4000BF93EF93FF93E091E602F091E7023097B4
:100C500009F451C0968DA685B785858591FF04C09E
:100C60009C91892329F447C09C91892309F043C0B2
:100C7000A389B4899C918589809589238C938689E1
:100C800097890197F1F7608D718DA685B785558598
:100C900038E020E0CB010197F1F7822F90E09595A5
:100CA0008795282F4C91452309F02068315091F702
:100CB000868D81FD20958091E50290E001968F73ED
:100CC00099273091E402381749F0A091E502B0E08D
:100CD000AE56BC4F2C938093E50203C0868D816095
:100CE000868F828D938D0197F1F7A389B4899C91AA
:100CF0008589892B8C93FF91EF91BF91AF919F9143
:100D00008F917F916F915F914F913F912F910F90B4
:100D10000FBE0F901F9018951F920F920FB60F9253
:100D200011242F933F934F935F936F937F938F93F0
:100D30009F93AF93BF93EF93FF938091B900887F08
:100D4000803609F49CC068F5883209F45BC090F4E1
:100D5000803109F454C038F4882309F4F6C088308F
:100D600009F44DC0F6C0883109F44CC0803209F452
:100D70005DC0EFC0803409F468C048F4803309F4E2
:100D800055C0883309F0E5C080932C03D8C0803566
:100D900009F44FC0883509F45DC0883409F0D9C022
:100DA000D6C0883909F4C7C0A8F4883709F467C0E9
:100DB00038F4883609F463C0803709F460C0C9C0CC
:100DC000883809F4B8C0803909F45FC0803809F068
:100DD000C0C05BC0803B09F486C038F4803A09F497
:100DE00066C0883A09F47FC0B4C0803C09F4A7C04B
:100DF000883C09F4A4C0883B09F48AC0AAC0809149
:100E0000290310C090912B0380912A03981770F545
:100E1000E0912B0381E08E0F80932B03F0E0E75FDE
:100E2000FC4F80818093BB0085EC86C080932C03AF
:100E30008EC0E0912B0381E08E0F80932B03809175
:100E4000BB00F0E0E75FFC4F808390912B03809123
:100E50002A036EC0E0912B0381E08E0F80932B0359
:100E60008091BB00F0E0E75FFC4F80838091D70367
:100E700081116DC081E08093D60384EA61C083E074
:100E80008093D80310929103CFCF80919103803249
:100E900008F051C0E091910381E08E0F809391039F
:100EA0008091BB00F0E0EF58FC4F8083BDCF85EC14
:100EB0008093BC001092D80380919103803230F46B
:100EC000E0919103F0E0EF58FC4F108260919103A4
:100ED00070E0E091D203F091D30381E793E00995AC
:100EE0001092910336C084E08093D803109270036F
:100EF00010926F03E091D403F091D503099580918E
:100F00006F03811105C081E080936F0310924F033E
:100F1000E091700381E08E0F80937003F0E0E15B5D
:100F2000FC4F80818093BB009091700380916F0390
:100F3000981708F479CF85E88093BC000AC085EC47
:100F40008093BC001092D80304C010922C030E941E
:100F50007C02FF91EF91BF91AF919F918F917F9113
:100F60006F915F914F913F912F910F900FBE0F9016
:100F70001F9018950C9472182EE631E0FC01318315
:100F80002083CF960C94E403CF93DF93EC010E946F
:100F9000BC07CE01DF91CF910C94B81A0895089543
:100FA0000895089508950895BF92CF92DF92EF9229
:100FB000FF920F931F93CF93DF93EC016B018D850D
:100FC000811105C0CE010E944505811105C01B8617
:100FD0001D861C8680E060C040E060EFCE010E946C
:100FE000F20401E0E12CB12C11E0CE010E949F043B
:100FF000F82ECE010E949F0491E0F91203C08130C7
:10100000B1F434C02E2D30E0F8121BC08B851817B8
:1010100038F4FE01E20FF31F8381802341F402C004
:10102000811729F0F12C193058F41C8709C0FE01F2
:10103000EE0DF11D8381802B8383FF24F39409C07F
:10104000B12EFE01E20FF31F9381802F809589233B
:1010500083836F2DCE010E94C3041F5F000F11F424
:10106000E39401E087E08E1508F0BFCF113408F457
:10107000AECFBB86B11002C081E08D878B81882303
:1010800009F4A5CFDE011396F6012B968D9181937D
:10109000CA17DB07D9F781E0DF91CF911F910F913C
:1010A000FF90EF90DF90CF90BF9008958F929F9226
:1010B000AF92BF920F931F93CF93DF93CDB7DEB75D
:1010C000A1970FB6F894DEBF0FBECDBF19A2423074
:1010D00008F44AE08E010F5D1F4F842E912CA12C45
:1010E000B12CA50194010E94E419E62FB901CA01AF
:1010F00001501109EA3014F4E05D01C0E95CD80147
:10110000EC93232B242B252B61F7B8018DED93E075
:101110000E941804A1960FB6F894DEBF0FBECDBF93
:10112000DF91CF911F910F91BF90AF909F908F90C3
:101130000895CF92DF92EF92FF92CF93DF936B01EE
:101140007C016DE28DED93E00E943101EC01662798
:101150007727CB016C197D098E099F094AE00E940F
:1011600056088C0F9D1FDF91CF91FF90EF90DF907D
:10117000CF900895CF93DF93BC018DED93E00E9453
:101180001804EC0161ED72E08DED93E00E9418040B
:101190008C0F9D1FDF91CF9108950F931F93CF93D5
:1011A000DF9386ED92E00E94BA08C2E9D4E00E8592
:1011B0001F8560E0F80182810E94230AF8011482F1
:1011C0000889198960E0F80182810E94230AF801E8
:1011D00014821EA61DA61FA618AADF91CF911F91EB
:1011E0000F9108951092DC031092DB031092DA0342
:1011F0001092D9031092D80381E08093D703109204
:10120000D60361E082E10E94230A61E083E10E944B
:10121000230AE9EBF0E080818E7F808380818D7FDF
:10122000808388E48093B80085E48093BC008CE4DC
:1012300092E09093D5038093D4038DE492E0909351
:10124000D3038093D2030895DB0114964D915C91F2
:1012500015976D917C91DC01ED91FC910280F381F9
:10126000E02D0994CF93DF93EC01FB01448155817C
:10127000608171810E946A03811103C0CE010E94C6
:101280009803CE01DF91CF910895EF92FF920F93D3
:101290001F93CF93DF93CDB7DEB762970FB6F89465
:1012A000DEBF0FBECDBF8C01CB01F80111821082D1
:1012B00013821282158214824AE09E012F5F3F4FF3
:1012C0007901B9010E941917F70101900020E9F78F
:1012D0003197AF014E195F09B701C8010E94C303DE
:1012E00062960FB6F894DEBF0FBECDBFDF91CF91EF
:1012F0001F910F91FF90EF900895FC018091D5040C
:101300009091D604892B21F421E0309749F413C041
:101310008091D1049091D204309731F421E0FC0106
:101320008081882341F006C0BF010E94151C21E086
:10133000892B09F020E0822F0895CF93DF93EC01F1
:101340008A810E94FA0921E0892B09F420E02C838C
:10135000822FDF91CF910895833081F028F481307E
:1013600099F08230A1F008958730A9F08830B9F063
:101370008430D1F4809180008F7D03C08091800003
:101380008F7780938000089584B58F7702C084B5ED
:101390008F7D84BD08958091B0008F7703C08091C8
:1013A000B0008F7D8093B00008953FB7F89480918E
:1013B000C0059091C105A091C205B091C30526B5A5
:1013C000A89B05C02F3F19F00196A11DB11D3FBF7D
:1013D000BA2FA92F982F8827820F911DA11DB11D0B
:1013E000BC01CD0142E0660F771F881F991F4A9507
:1013F000D1F70895CF93DF93282F30E0F901E2531E
:10140000FF4F8491F901E055FF4FD491F901E45663
:10141000FF4FC491CC2391F081110E94AC09EC2FB5
:10142000F0E0EE0FFF1FE857FF4FA591B491EC914C
:10143000ED2381E090E021F480E002C080E090E0C4
:10144000DF91CF9108951F93CF93DF93282F30E042
:10145000F901E253FF4F8491F901E055FF4FD49118
:10146000F901E456FF4FC491CC23C1F0162F81112E
:101470000E94AC09EC2FF0E0EE0FFF1FEE56FF4F7D
:10148000A591B4919FB7F894111104C08C91D09597
:10149000D82302C0EC91DE2BDC939FBFDF91CF916C
:1014A0001F9108950F931F93CF93DF938BED92E0DD
:1014B0000E94BA08C2E9D4E00E851F8560E0F801F9
:1014C00082810E94230AF80114820888D989C02DDC
:1014D00061E08A810E94230A81E08C83DF91CF91B1
:1014E0001F910F9108951092A5041092A4041092D8
:1014F000C104882321F081E08093C20402C01092CD
:10150000C20481E08093C00480919A0490919B046E
:101510000E949D09811109C080919C0490919D04B5
:101520000E949D0981110C94520A08950F931F93F4
:10153000CF93DF9380EE92E00E94BA08C2E9D4E034
:101540000E851F8561E0F80182810E94230A81E0F7
:10155000F80184830888D989C02D60E08A810E94BF
:10156000230A1C82DF91CF911F910F910895CF9391
:10157000DF9390E0FC01E055FF4F2491FC01E4561D
:10158000FF4F8491882361F190E0880F991FFC013F
:10159000EC53FF4FC591D491FC01EE56FF4FA5913E
:1015A000B491611109C09FB7F89488812095822376
:1015B0008883EC912E230BC0623061F49FB7F894BE
:1015C0008881322F309583238883EC912E2B2C93A6
:1015D0009FBF06C08FB7F894E8812E2B28838FBF5A
:1015E000DF91CF9108958E3008F08E50877080641F
:1015F00080937C0080917A00806480937A0080914F
:101600007A0086FDFCCF809178002091790090E0EF
:10161000922B08958F929F92AF92BF92CF92DF92BA
:10162000EF92FF926B017C010E94D5094B015C0196
:10163000C114D104E104F104F1F00E94D509DC01E8
:10164000CB0188199909AA09BB09883E9340A105D5
:10165000B10570F321E0C21AD108E108F10888EE63
:10166000880E83E0981EA11CB11CC114D104E104B2
:10167000F10419F7DDCFFF90EF90DF90CF90BF908E
:10168000AF909F908F9008952FB7F8946091BC050C
:101690007091BD058091BE059091BF052FBF089543
:1016A0000F931F93CF93DF93EC010E94440B688745
:1016B00079878A879B87E881F9810284F385E02D09
:1016C000CE01099597FF17C00E94440B0885198524
:1016D0002A853B85DC01CB01801B910BA20BB30B50
:1016E0000C811D812E813F8180179107A207B307CE
:1016F00010F38FEF9FEFDF91CF911F910F9108951E
:101700001F920F920FB60F9211242F933F938F9336
:101710009F93AF93BF938091BC059091BD05A0911D
:10172000BE05B091BF053091BB0523E0230F2D37D7
:1017300020F40196A11DB11D05C026E8230F0296D5
:10174000A11DB11D2093BB058093BC059093BD05E1
:10175000A093BE05B093BF058091C0059091C105CF
:10176000A091C205B091C3050196A11DB11D809342
:10177000C0059093C105A093C205B093C305BF9166
:10178000AF919F918F913F912F910F900FBE0F902E
:101790001F901895CF93DF93CDB7DEB7A3970FB601
:1017A000F894DEBF0FBECDBF789484B5826084BD4F
:1017B00084B5816084BD85B5826085BD85B5816055
:1017C00085BD80916E00816080936E0010928100D3
:1017D000809181008260809381008091810081608E
:1017E000809381008091800081608093800080914F
:1017F000B10084608093B1008091B00081608093DB
:10180000B00080917A00846080937A0080917A00A1
:10181000826080937A0080917A00816080937A0060
:1018200080917A00806880937A001092C10068EEFF
:1018300073E080E090E00E940A0BE091ED03F091EC
:10184000EE0382E08083E091E903F091EA031082E5
:10185000E091EB03F091EC038FEC80831092F503A1
:10186000E091F103F091F20386E08083E091EF03D1
:10187000F091F003808180618083E091EF03F0912B
:10188000F003808188608083E091EF03F091F003A2
:10189000808180688083E091EF03F091F003808184
:1018A0008F7D80830E94F2080E94F2080E94F20855
:1018B00084E891E00E94BA088DE493E09093D0040C
:1018C0008093CF04E0919404F0919504138E128ECE
:1018D000118E108E178A168A8FE796E0958F848F67
:1018E0009485963108F04EC02EE233E0378B268B7C
:1018F0002DE736E0318F208F25ED34E0338F228FB6
:1019000030916800983058F021E09E3008F420E0D3
:1019100091E0892F01C0880F2A95EAF701C084E081
:10192000832B809368009485983038F09E3040F087
:10193000963148F42CE630E008C02DE630E005C0D2
:101940002BE630E002C020E030E0348B238B98306F
:1019500030F481E001C0880F9A95EAF70EC0292F74
:1019600030E09E3018F42850310902C02E50310961
:1019700081E001C0880F2A95EAF7858B848D958DCB
:101980000197F1F7828D938D892B49F14091E60201
:101990005091E702E417F50711F14115510571F077
:1019A000DA0153962D913C915497D9019C91DA011B
:1019B00055968C9180958923D9018C93868D8E7F45
:1019C000868F1092E5021092E402F093E702E09312
:1019D000E602A389B4899C918589892B8C93809197
:1019E000980490919904DC01ED91FC910480F581BB
:1019F000E02D099580919A0490919B04DC01ED9172
:101A0000FC910480F581E02D099580919E049091D0
:101A10009F04DC01ED91FC910480F581E02D099596
:101A200080919C0490919D04DC01ED91FC910480D7
:101A3000F581E02D09958091A0049091A104DC012D
:101A4000ED91FC910190F081E02D09958091A20427
:101A50009091A304DC01ED91FC910190F081E02DC7
:101A600009950E94CD0800919E0410919F04F801F1
:101A700082810E94F30AD80115969C938E93149745
:101A80009093BC048093BB04BC01990F880B990B05
:101A900097FF03C00E94990803C04AE00E945608BD
:101AA0000091CD041091CE04D8011696ED91FC91D1
:101AB0001797138615861486DF011B9633961E92A0
:101AC000EA17FB07E1F7F80114821582EE24E3948C
:101AD000BE016F5F7F4FD80116968D919C9117972D
:101AE0000E94D407882309F46BC067E0CE010196F9
:101AF0000E94870498858913EBCFF80180818111BA
:101B000025C0868197810E944505BE016F5F7F4F8A
:101B1000D80116968D919C9117970E94260540E05A
:101B200064EBF801868197810E94F204D801169631
:101B30008D919C9117970E949F04F82EF801868141
:101B400097810E944505FF2009F47DC6D8011196B2
:101B5000FC908981803109F491C6BE016F5F7F4F8F
:101B6000C8010E94C9058F1518F4F80181810BC0C6
:101B70008981803111F48CE006C0BE016F5F7F4F18
:101B8000C8010E94C905D80111968C93119714962B
:101B90008C9114978F5F14968C938981883209F405
:101BA00055C638F4803109F451C6823209F090CF1D
:101BB0004DC68B3309F44AC6823409F089CF46C634
:101BC0008091CF049091D004892B09F443C11092E5
:101BD000E00480E090E00E94BA078093E20481E094
:101BE00090E00E94BA078093E30481E08093E704C9
:101BF00082E090E00E94BA078093E90483E090E0DD
:101C00000E94BA078093EA0482E08093EE0484E0A5
:101C100090E00E94BA078093F00485E090E00E9473
:101C2000BA078093F10483E08093F50486E090E0A6
:101C30000E94BA078093F70487E090E00E94BA07F9
:101C40008093F80484E08093FC0488E090E00E9494
:101C5000BA078093FE0489E090E00E94BA0780935F
:101C6000FF0485E0809303058AE090E00E94BA07B4
:101C7000809305058BE090E00E94BA0780930605EB
:101C800086E080930A058CE090E00E94BA0780937A
:101C90000C058DE090E00E94BA0780930D0587E067
:101CA000809311058EE090E00E94BA07809313059F
:101CB0008FE090E00E94BA078093140588E080933B
:101CC000180580E190E00E94BA0780931A0581E12F
:101CD00090E00E94BA0780931B0589E080931F055E
:101CE00082E190E00E94BA078093210583E190E0B1
:101CF0000E94BA07809322058AE08093260584E13A
:101D000090E00E94BA078093280585E190E00E9448
:101D1000BA07809329058BE080932D0586E190E03A
:101D20000E94BA0780932F0587E190E00E94BA07CE
:101D30008093300588E190E00E94BA078093E20426
:101D400089E190E00E94BA078093E3048AE190E081
:101D50000E94BA078093E9048BE190E00E94BA07E1
:101D60008093EA048CE190E00E94BA078093F0042B
:101D70008DE190E00E94BA078093F1048EE190E03B
:101D80000E94BA078093F7048FE190E00E94BA079F
:101D90008093F80480E290E00E94BA078093FE04EA
:101DA00081E290E00E94BA078093FF0482E290E013
:101DB0000E94BA078093050583E290E00E94BA076B
:101DC0008093060584E290E00E94BA0780930C0598
:101DD00085E290E00E94BA0780930D0586E290E0CC
:101DE0000E94BA078093130587E290E00E94BA0729
:101DF0008093140588E290E00E94BA0780931A0548
:101E000089E290E00E94BA0780931B058AE290E085
:101E10000E94BA07809321058BE290E00E94BA07E6
:101E2000809322058CE290E00E94BA0780932805F7
:101E30008DE290E00E94BA07809329058EE290E03F
:101E40000E94BA0780932F058FE290E00E94BA07A4
:101E50008093300582E390E00E94BA0790E090936F
:101E6000D9048093D80469E971E08CE995E00E9477
:101E70002D049BEB892E94E0992E11E028E6322E5A
:101E80000FEF8091C204882309F49CC00E94440B88
:101E9000C090C704D090C804E090C904F090CA0470
:101EA000DC01CB018C199D09AE09BF09C397A105BF
:101EB000B10508F46FC0E090BD04F090BE04C0907E
:101EC0009E04D0909F04F60182810E94F30AD601FD
:101ED00015969C938E9314972091BB043091BC046B
:101EE000821793072CF4F901E81BF90BCF0102C00C
:101EF000821B930B28E833E1829FB001839F700D12
:101F0000929F700D1124672F770F770B659565955C
:101F1000072E000C880B990B0E94551724EA30E716
:101F20004DE35EE30E941E190E9490192B013C01B3
:101F3000072E000C880B990B97FF03C00E9499088D
:101F400003C04AE00E9456088AEB91E00E94BA085A
:101F5000F701EE0FFF1FEE56FB4F568A458A0E948F
:101F6000440B6093C7047093C8048093C904909392
:101F7000CA048091BD049091BE0401968A309105F7
:101F80002CF49093BE048093BD0404C01092BE0450
:101F90001092BD04E7EAF4E080E090E021913191F5
:101FA000820F931F8E169F06C9F78A31974250F011
:101FB0000E94CD081092C0041092BF041092C20477
:101FC0001093A6048091C004882319F180919A048B
:101FD00090919B040E949D09882359F00E94CD088E
:101FE0001092C0041092BF041092C2041093A40473
:101FF00010C080919C0490919D040E949D098111C4
:102000002AC48091BF04811126C40E94CD08109378
:10201000BF048091C104882391F08091980490912D
:1020200099040E949D09882351F00E94CD081092C6
:10203000C1041092BF041092C2041093A50410931F
:10204000E80230924E031092DA031092D90360E056
:102050008AE794E00E94DB029091D903913208F064
:1020600042C08091D8038111FCCF82E08093D803D5
:102070001093D70300932C0310922B0390932A0301
:10208000E9EEF2E0A9E0B3E080E0981721F02191B9
:102090002D938F5FFACF1092290380912903806DD1
:1020A000809329038091D603813061F41092D60386
:1020B000809129038093BB008091BC0083FDF8CF01
:1020C00085EC01C085EE8093BC008091D8038230FE
:1020D000E1F380912C038F3F31F080912C0380320B
:1020E00011F080912C031092DA031092D903109210
:1020F000E8028091D8038111FCCF1093D80310938C
:10210000D70300932C0310922B0386E080932A03BD
:102110001093290380912903806D80932903809176
:10212000D603813061F41092D60380912903809305
:10213000BB008091BC0083FDF8CF85EC01C085EE2B
:102140008093BC008091D8038130E1F380912B0310
:10215000873018F490912B0301C097E0E9E0F3E099
:10216000ADE2B3E080E0891721F021912D938F5FDC
:10217000FACF1092DC038093DB038AE794E00E949D
:102180005D028AE794E00E945D028AE794E00E9483
:102190005D028AE794E00E945D028AE794E00E9473
:1021A0005D028AE794E00E945D028AE794E00E9463
:1021B0005D028091D704882359F12091A404809175
:1021C000940490919504222339F01092D704109230
:1021D000A4046DEB71E00AC02091A604222341F013
:1021E0001092D7041092A60463EC71E00E942D04B3
:1021F0008091A504882361F01092D7041092A50461
:1022000069EC71E080919404909195040E942D04F2
:102210008091940490919504DC01ED91FC910084EF
:10222000F185E02D0995892B09F40AC3E090940407
:10223000F090950463ED72E0CE0101960E940304D4
:10224000C7010E94500B97FD0CC08A871B8641E096
:1022500050E0BE01665F7F4FCE0101960E946A0387
:10226000EFCF8091D1049091D2040097C9F0698199
:102270007A816115710591F04091D3045091D40495
:102280002D813E814217530748F00E941E1C8D810C
:102290009E819093D6048093D50418C00E94B81AEA
:1022A00089819A819093D2048093D1048B819C81FF
:1022B0009093D4048093D3048D819E819093D6040F
:1022C0008093D5041A8219821C821B821E821D8271
:1022D000CE0101960E94E4038FEC91E00E947D09FB
:1022E0008823E9F064ED71E0809194049091950465
:1022F0000E942D041092A5041092A4041092C00410
:102300001093C2041093C104809198049091990491
:102310000E949D0981112BC00E94960A28C08EED53
:1023200091E00E947D09882389F063EE71E080913D
:102330009404909195040E942D041092A50410928B
:10234000A4041092C0041092C204DCCF8DEE91E080
:102350000E947D09882371F062EF71E080919404FE
:10236000909195040E942D0481E00E94730A1093BD
:10237000D70466C28CEF91E00E947D09882351F05A
:1023800061E072E080919404909195040E942D0484
:1023900080E0EBCF8BE092E00E947D09882359F02A
:1023A00060E172E080919404909195040E942D0464
:1023B0000E94960A45C28AE192E00E947D09882324
:1023C00059F06FE172E080919404909195040E941D
:1023D0002D040E94520A34C289E292E00E947D09D3
:1023E000882359F06EE272E08091940490919504F4
:1023F0000E942D040E94CD0823C288E392E00E942F
:102400007D098823D1F06DE372E08091940490916E
:1024100095040E942D0480919A0490919B040E943F
:102420009D092091940430919504882319F067E464
:1024300072E042C06FE472E03FC087E592E00E9424
:102440007D098823D1F06CE572E08091940490912D
:1024500095040E942D0480919804909199040E9403
:102460009D092091940430919504882319F066E623
:1024700072E022C06EE672E01FC086E792E00E9422
:102480007D098823E9F06DE772E0809194049091D2
:1024900095040E942D0480919C0490919D040E94BB
:1024A0009D092091940430919504882319F069E8DE
:1024B00072E002C063E972E0C9010E942D04C0C14C
:1024C0008DE992E00E947D09882309F470C065EAD5
:1024D00072E080919404909195040E942D04809163
:1024E0009C0490919D040E949D09682F70E0CE018C
:1024F00048960E94450980919804909199040E9401
:102500009D09682F70E0CE0142960E944509809196
:102510009A0490919B040E949D09682F70E0CE015F
:102520000A960E94450962EB72E0CE0101960E9474
:102530000304BE01665F7F4FCE0101960E943209FF
:1025400064EB72E00E94AA03BE016E5E7F4F0E94A0
:10255000320964EB72E00E94AA03BE01685E7F4FFD
:102560000E94320964E772E00E94AA03BC01CE0116
:102570004E960E94E903CE0101960E94E403CE012B
:102580000A960E94E403CE0142960E94E403CE0123
:1025900048960E94E403BE01625E7F4F80919404DE
:1025A000909195040E942409CE014E9647C186EB76
:1025B00092E00E947D09882309F442C16BEB72E02E
:1025C00080919404909195040E942D04E090CD0494
:1025D000F090CE04F701868197810E94450540E086
:1025E0006CECD70116968D919C9117970E94F2047E
:1025F000F701408164E4868197810E94F204D7014B
:1026000012968C9112978823E9F11196EC91E9507A
:10261000E33040F4F0E0EE0FFF1FEA5FFE4FC080B2
:10262000D18004C07EEEC72E72E0D72EF7018381E1
:10263000882311F1808181111FC00E94440B2B015E
:102640003C015601DD0CCC08DD08D70116968D91B2
:102650009C9117970E949F048130A1F00E94440B27
:10266000DC01CB018A199B09AC09BD0984159505CC
:10267000A605B70550F306C0B601DD0C880B990B13
:102680000E940A0BE090CD04F090CE04D70116967C
:10269000ED91FC911797138615861486DF011B9622
:1026A00033961E92AE17BF07E1F7BE01665F7F4FFC
:1026B000F701868197810E94D407882309F4E5C039
:1026C00067E0CE010A960E94870499898913DDC0CC
:1026D000D70116968D919C9117970E9445058823E6
:1026E00009F46FC1AE014F5F5F4FBE01665F7F4F60
:1026F000C7010E947C05882309F463C168E0CE010C
:1027000001960E948704998589135BC12A8130E074
:10271000C901982F8827990F990F990F6981F8E0BF
:102720006F9FB00111249C01262B372B8A858031A5
:1027300009F0A9C0688570E08F81AB01481B510981
:10274000CA019695982F8827979587950E94D0194A
:1027500060517109207F53E0220F331F5A95E1F732
:10276000620F731F613854EE75070CF48EC0072E8C
:10277000000C880B990B0E94551720E030E040E0D8
:102780005CE30E94B4172B013C0120E030E040E202
:1027900051E40E94B4170E9490197B01A301920199
:1027A000C301B2010E94CB19882309F478C065ECFB
:1027B00072E08DED93E00E94180461ED72E08DED02
:1027C00093E00E941804B701CE010A960E944509C1
:1027D00064ED72E0CE0101960E940304BE01665FC3
:1027E0007F4FCE0101960E94320964E772E00E9499
:1027F000AA03BC01CE0142960E94E903CE010196D4
:102800000E94E403CE010A960E94E403BE016E5EBC
:102810007F4F80919404909195040E942409BE01F9
:102820006E5E7F4F8DED93E00E94240961ED72E0B2
:102830008DED93E00E941804CE0142960E94E403BD
:102840000E94A0011ECBD801EC9280C9F8018581BD
:102850008F5F85833DC980919C0490919D040E9467
:102860009D09882309F4D5CB8091BF04882309F4FE
:10287000D0CB0E94520A1092BF04CBCBFCE0FF15D4
:1028800008F473C978C9B9016DCF412C512C8EEF72
:10289000682E82EC782E9AE0E92E9BEFF92E6301E8
:1028A0005201E894D7F82FEF3FEF4FE75FE7C601FB
:1028B000B5010E94CB1981110DC02FEF3FEF4FE7FB
:1028C0005FE7C601B5010E944E1718161CF469ECAB
:1028D00072E06FCF2FEF3FEF4FE75FE4C301B2012C
:1028E0000E94C61918161CF46DEC72E062CF2FEF2F
:1028F0003FEF4FE75FECC301B2010E944E1787FD27
:10290000F3CF20E030E0A901C301B2010E944E17CD
:1029100087FF09C06DE28DED93E00E94310177FAE7
:10292000709477F870942AE037ED43EA5BE3C301D3
:10293000B2010E94B2185B016C010E9497192B0131
:102940003C010E9453179B01AC01C601B5010E94D6
:10295000B1185B016C014AE0C301B2010E94560844
:102960006EE28DED93E00E94310120E030E040E224
:1029700051E4C601B5010E94B4175B016C010E94CD
:1029800097192B01612C712C4AE0C301B2010E94FE
:102990005608C301B2010E9453179B01AC01C60146
:1029A000B5010E94B11820E030E040E251E40E94FD
:1029B000B4170E94971980E090E04AE00E94560800
:1029C000FCCE60E874EECECE86E894E00E94E4038C
:1029D0008CE894E00E94E40382E994E00E94BC0742
:1029E00086E791E090939D0580939C058091E60297
:1029F0009091E7028C59954071F4E091AF05F09108
:102A0000B00590818091B1058095892380831092D3
:102A1000E7021092E6020895CF93DF931092E0034D
:102A20001092DF0388EE93E0A0E0B0E08093E10332
:102A30009093E203A093E303B093E40320E131E039
:102A40003093DE032093DD0325EC30E03093EA037E
:102A50002093E90324EC30E03093EC032093EB0364
:102A600020EC30E03093EE032093ED0321EC30E0D6
:102A70003093F0032093EF0322EC30E03093F20325
:102A80002093F10326EC30E03093F4032093F3031A
:102A90001092F6031092F7031092F8031092F903C4
:102AA00010927D0410927C0480937E0490937F04A6
:102AB000A0938004B093810422E231E030937B0440
:102AC00020937A0410929F0510929E058093A00592
:102AD0009093A105A093A205B093A30586E791E08A
:102AE00090939D0580939C051092B3051092B205BA
:102AF0001092B5051092B4051092B7051092B60564
:102B00001092B9051092B8056091BA056E7F6D7F7D
:102B10006093BA056695617081E068278BE00E943A
:102B2000230A61E08BE00E94B70AEBEBF0E0E4914E
:102B3000E093AC05E7EAF0E0E491F0E0EE0FFF1F70
:102B4000EE56FF4F859194919093AE058093AD051D
:102B500060E08AE00E94B70A8091BA0581FD04C056
:102B600061E08AE00E94230A8AE08093A805EAEBEC
:102B7000F0E0E491E093A905E6EAF0E0E491F0E00A
:102B8000EE0FFF1FE857FF4F859194919093AB058F
:102B90008093AA058EE691E090939304809392042B
:102BA00086E691E0909397048093960484E1E7EAA7
:102BB000F4E0DF011D928A95E9F71092BC041092AF
:102BC000BB041092BE041092BD0485E090E00E9408
:102BD000201AFC0185E090E093838283CCE5D1E06C
:102BE000D183C0831482F0939904E09398040E94E7
:102BF000201AFC0186E090E093838283D183C08316
:102C00001482F0939B04E0939A0488E090E00E9481
:102C1000201AFC018EE090E09383828388E491E0A7
:102C2000918380831782168215821482F0939F0409
:102C3000E0939E0485E090E00E94201AFC0187E06A
:102C400090E093838283D183C0831482F0939D04A8
:102C5000E0939C0485E090E00E94201AFC0180E152
:102C600090E093838283CEE3D1E0D183C08314824A
:102C7000F093A104E093A00485E090E00E94201A64
:102C8000FC0181E190E093838283D183C08314822D
:102C9000F093A304E093A2041092C0041092C10424
:102CA0001092C2041092BF041092A4041092A504C2
:102CB0001092A6041092C3041092C4041092C5048A
:102CC0001092C6041092C7041092C8041092C9044E
:102CD0001092CA0463ED72E081ED94E00E94030457
:102CE00084E5EEEDF4E0DF01982F1D929A95E9F767
:102CF000E2E3F5E0DF011D928A95E9F78FEF9FEFA0
:102D00009093870580938605909389058093880525
:102D100090938B0580938A0590938D0580938C0505
:102D200010928E0510928F05109290059093920547
:102D300080939105909394058093930590939605C5
:102D40008093950590939805809397051092990527
:102D500010929A0510929B058CE995E0909395044A
:102D60008093940440E050E063ED72E081ED94E0E4
:102D70000E94C3031092D7048EE090E00E94201AB4
:102D8000EC0160E084E00E94B70AE4EBF0E0E4913B
:102D9000E883E0EAF0E0E491F0E0EE0FFF1FE8578F
:102DA000FF4F859194919A8389831B861D861C868B
:102DB000FE013B96CE0103961292E817F907E1F760
:102DC000D093CC04C093CB0484E190E00E94201AFD
:102DD000FC01D783C68314821582108289E0818327
:102DE00081E082838383138A128AF093CE04E09376
:102DF000CD041092DA041092DB041092DC041092DD
:102E0000DD041092D0041092CF0488E290E09093F9
:102E1000D9048093D80463ED72E08CE894E00E94BA
:102E2000030463ED72E086E894E0DF91CF910C94A7
:102E30000304BB274A3031F4992322F4BDE2909574
:102E400081959F4F0C942517BB27FB015527AA2777
:102E5000880F991FAA1FA41710F0A41B8395505127
:102E6000B9F7A05DAA3308F0A95DA193009779F79F
:102E7000B111B1931192CB010C943E17DC01FC010E
:102E8000672F71917723E1F7329704C07C916D939E
:102E900070836291AE17BF07C8F308950E94901720
:102EA00008F481E00895E89409C097FB3EF49095FA
:102EB0008095709561957F4F8F4F9F4F9923A9F013
:102EC000F92F96E9BB279395F695879577956795A2
:102ED000B795F111F8CFFAF4BB0F11F460FF1BC0E6
:102EE0006F5F7F4F8F4F9F4F16C0882311F096E979
:102EF00011C0772321F09EE8872F762F05C0662327
:102F000071F096E8862F70E060E02AF09A95660FDF
:102F1000771F881FDAF7880F9695879597F9089598
:102F2000990F0008550FAA0BE0E8FEEF16161706DA
:102F3000E807F907C0F012161306E407F50798F042
:102F4000621B730B840B950B39F40A2661F0232B5B
:102F5000242B252B21F408950A2609F4A140A695D7
:102F60008FEF811D811D08950E94C7170C9438189A
:102F70000E942A1838F00E94311820F0952311F091
:102F80000C9421180C94271811240C946C180E948E
:102F9000491870F3959FC1F3950F50E0551F629F3C
:102FA000F001729FBB27F00DB11D639FAA27F00DA2
:102FB000B11DAA1F649F6627B00DA11D661F829FC9
:102FC0002227B00DA11D621F739FB00DA11D621FAE
:102FD000839FA00D611D221F749F3327A00D611DCB
:102FE000231F849F600D211D822F762F6A2F1124AD
:102FF0009F5750409AF0F1F088234AF0EE0FFF1FE0
:10300000BB1F661F771F881F91505040A9F79E3F36
:10301000510580F00C9421180C946C185F3FE4F378
:10302000983ED4F3869577956795B795F795E7958C
:103030009F5FC1F7FE2B880F911D9695879597F995
:10304000089597F99F6780E870E060E008959FEF2A
:1030500080EC089500240A9416161706180609062F
:10306000089500240A9412161306140605060895FE
:10307000092E0394000C11F4882352F0BB0F40F486
:10308000BF2B11F460FF04C06F5F7F4F8F4F9F4FC6
:10309000089557FD9058440F551F59F05F3F71F048
:1030A0004795880F97FB991F61F09F3F79F08795AF
:1030B0000895121613061406551FF2CF4695F1DF38
:1030C00008C0161617061806991FF1CF86957105C8
:1030D000610508940895E894BB2766277727CB01FC
:1030E00097F90895F999FECF92BD81BDF89A992775
:1030F00080B508952F923F924F925F926F927F9288
:103100008F929F92AF92BF92CF92DF92EF92FF92F7
:103110000F931F93CF93DF93CDB7DEB7CA1BDB0BA3
:103120000FB6F894DEBF0FBECDBF09942A88398848
:1031300048885F846E847D848C849B84AA84B9844F
:10314000C884DF80EE80FD800C811B81AA81B9815B
:10315000CE0FD11D0FB6F894DEBF0FBECDBFED016F
:1031600008955058BB27AA270E94C9180C943818F4
:103170000E942A1838F00E94311820F039F49F3F3D
:1031800019F426F40C9427180EF4E095E7FB0C9440
:103190002118E92F0E94491858F3BA1762077307DC
:1031A0008407950720F079F4A6F50C946B180EF4BB
:1031B000E0950B2EBA2FA02D0B01B90190010C0147
:1031C000CA01A0011124FF27591B99F0593F50F45F
:1031D000503E68F11A16F040A22F232F342F4427B7
:1031E000585FF3CF469537952795A795F0405395AF
:1031F000C9F77EF41F16BA0B620B730B840BBAF07F
:103200009150A1F0FF0FBB1F661F771F881FC2F7E9
:103210000EC0BA0F621F731F841F48F487957795FD
:103220006795B795F7959E3F08F0B0CF9395880FB7
:1032300008F09927EE0F9795879508950E94321907
:103240000C9438180E94311858F00E942A1840F047
:1032500029F45F3F29F00C94211851110C946C183B
:103260000C9427180E94491868F39923B1F3552349
:1032700091F3951B550BBB27AA2762177307840789
:1032800038F09F5F5F4F220F331F441FAA1FA9F31F
:1032900035D00E2E3AF0E0E832D091505040E6950D
:1032A000001CCAF72BD0FE2F29D0660F771F881F6E
:1032B000BB1F261737074807AB07B0E809F0BB0B61
:1032C000802DBF01FF2793585F4F3AF09E3F510575
:1032D00078F00C9421180C946C185F3FE4F3983E3E
:1032E000D4F3869577956795B795F7959F5FC9F75E
:1032F000880F911D9695879597F90895E1E0660FDF
:10330000771F881FBB1F621773078407BA0720F057
:10331000621B730B840BBA0BEE1F88F7E0950895C0
:103320000E9497196894B1110C946C1808950E942A
:10333000511888F09F5798F0B92F9927B751B0F0DE
:10334000E1F0660F771F881F991F1AF0BA95C9F729
:1033500014C0B13091F00E946B18B1E008950C9444
:103360006B18672F782F8827B85F39F0B93FCCF3F7
:10337000869577956795B395D9F73EF490958095A6
:10338000709561957F4F8F4F9F4F08950E949017C2
:1033900008F48FEF08950E949017880B990B0895F9
:1033A00097FB072E16F4009407D077FD09D00E94F2
:1033B000061A07FC05D03EF4909581959F4F08951D
:1033C000709561957F4F0895A1E21A2EAA1BBB1B31
:1033D000FD010DC0AA1FBB1FEE1FFF1FA217B307E1
:1033E000E407F50720F0A21BB30BE40BF50B661FF7
:1033F000771F881F991F1A9469F7609570958095BB
:1034000090959B01AC01BD01CF010895AA1BBB1B88
:1034100051E107C0AA1FBB1FA617B70710F0A61BD4
:10342000B70B881F991F5A95A9F780959095BC01F5
:10343000CD010895EE0FFF1F0590F491E02D099442
:103440000F931F93CF93DF938230910510F482E0A6
:1034500090E0E091C605F091C70520E030E0A0E0E3
:10346000B0E0309719F140815181028113814817F2
:103470005907C8F08417950769F4109731F0129630
:103480000C93129713961C9327C00093C6051093B4
:10349000C70522C02115310519F04217530718F44A
:1034A0009A01BD01EF01DF01F801DBCF21153105E4
:1034B000F9F0281B390B2430310580F48A819B8177
:1034C0006115710521F0FB019383828304C0909301
:1034D000C7058093C605FE01329644C0FE01E20F87
:1034E000F31F8193919322503109398328833AC085
:1034F0002091C4053091C505232B41F42091020190
:10350000309103013093C5052093C405209100013B
:10351000309101012115310541F42DB73EB740919D
:10352000040150910501241B350BE091C405F09175
:10353000C505E217F307A0F42E1B3F0B2817390728
:1035400078F0AC014E5F5F4F2417350748F04E0FFF
:103550005F1F5093C5054093C4058193919302C0AA
:10356000E0E0F0E0CF01DF91CF911F910F9108953E
:10357000CF93DF93009709F481C0FC013297138247
:103580001282A091C605B091C705109781F42081E1
:103590003181820F931F2091C4053091C5052817F2
:1035A000390751F5F093C505E093C40567C0ED01F7
:1035B00020E030E0CE17DF0740F44A815B819E01B6
:1035C00041155105F1F0EA01F5CFD383C283408163
:1035D0005181840F951FC817D90759F488819981A3
:1035E000840F951F0296918380838A819B819383A8
:1035F00082832115310529F4F093C705E093C605B0
:103600003DC0E901FB83EA8349915991C40FD51F5D
:10361000EC17FD0761F480819181840F951F02965C
:10362000E90199838883828193819B838A83E0E087
:10363000F0E012968D919C911397009719F0FD017F
:10364000DC01F7CF8D919C9111979D012E5F3F4F2B
:10365000820F931F2091C4053091C50528173907A3
:1036600069F4309729F41092C7051092C60502C07C
:1036700013821282B093C505A093C405DF91CF9148
:103680000895A0E0B0E0E7E4FBE10C947E18EC01C3
:10369000009721F4CB010E94201AB4C0FC01E60F70
:1036A000F71F9C0122503109E217F30708F4A8C064
:1036B000D9010D911C91119706171707B0F005302D
:1036C000110508F49BC0C80104978617970708F4F2
:1036D00095C002501109061B170B019311936D93AE
:1036E0007C93CF010E94B81A89C05B01A01AB10A6D
:1036F0004C01800E911EA091C605B091C705612CAA
:10370000712CE12CF12C109709F446C08D919C91FD
:103710001197A815B905B1F56C0142E0C40ED11C92
:10372000CA14DB0478F14C018A189B08640142E05A
:10373000C40ED11C1296BC9012971396AC91B5E0B2
:10374000CB16D10440F0B282A38391828082D9014A
:103750006D937C9309C00E5F1F4F800F911FF9017D
:1037600091838083EB2DFA2FE114F10431F0D7011E
:103770001396FC93EE93129741C0F093C705E09324
:10378000C6053CC06816790608F43C017D01129616
:103790000D90BC91A02DB7CF8091C4059091C50527
:1037A00088169906E1F466167706C8F48091000140
:1037B00090910101009741F48DB79EB740910401AB
:1037C00050910501841B950BE817F907C8F4F09395
:1037D000C505E093C405F901718360830FC0CB0177
:1037E0000E94201A7C01009759F0A801BE010E9496
:1037F0000C1CCE010E94B81AC70104C0CE0102C041
:1038000080E090E0CDB7DEB7EEE00C949A1881E04E
:1038100090E0F8940C94251CFB01DC0102C001909F
:103820000D9241505040D8F70895FB01DC018D9175
:10383000019080190110D9F3990B0895FB01DC0167
:1038400001900D920020E1F7089510E0C2E7D0E06A
:1038500004C0FE010E941A1A2196C337D107C9F786
:04386000F894FFCF0A
:103864000000C80580005E00BC0077010000000075
:1038740031019E00C8007E01F900D700EB00000072
:103884000000DB02AE027902C20171025D024E0247
:10389400000000004E03D0073703000000003F0380
:1038A400CF07350300000000D3073D035303000096
:1038B4000000D1073903C20100000000D2073B0316
:1038C400580300000000CE07330300000000BC07CB
:1038D400C40700000000C3019E007902C201130264
:1038E4002B02AA014C65206D6F64756C65205254DF
:1038F4004320657374204F4B00506F756C7472795C
:103904005F646F6F725F6374726C5F56302E312028
:1039140032395F31325F32322F006D4100435F4FE5
:103924004B2F00435F4B4F2F004F5F4F4B2F004FE8
:103934005F3131004F5F31315F41434B2F004F5FA7
:103944003031004F5F30315F41434B2F00435F31D3
:103954003100435F31315F41434B2F00435F3031CE
:1039640000435F30315F41434B2F004F5F303000E5
:103974004F5F30305F41434B2F00435F3030004393
:103984005F30305F41434B2F0053544F500053542A
:103994004F505F41434B2F0046435F4C0046435F0B
:1039A4004C5F41434B2F0046435F4C5F312F004631
:1039B400435F4C5F302F0046435F480046435F48F7
:1039C4005F41434B2F0046435F485F312F0046431E
:1039D4005F485F302F00504F554C5F5000504F559B
:1039E4004C5F505F41434B2F00504F554C5F505F2D
:1039F400312F00504F554C5F505F302F00535441CE
:103A040054455F440053544154455F445F41434B24
:103A14002F0053005F0054454D500054454D505FF6
:103A240041434B2F006E616E00696E66006F7666CF
:103A3400000D0A00540073746F7000646F776E0099
:043A44007570000099
:00000001FF
