:100000000C9491000C94B9000C94B9000C943D062A
:100010000C943D060C943D060C94B9000C94B90068
:100020000C94B9000C94B9000C94B9000C94B9006C
:100030000C94B9000C94B9000C94B9000C94B9005C
:100040000C94050C0C94B9000C9473040C944D049E
:100050000C94B9000C94B9000C94B9000C94B9003C
:100060000C94B7060C94B9000A0D210D210D1E0D3C
:10007000210D200D210D210D210DFE0C210D210D35
:10008000110D1C0D1A0D210D210D210D180D3233EE
:100090003A30323A3535004A616E20323220323001
:1000A000323300005EBCE2613FDD83C29C7E20A350
:1000B000FD1F41009D23BE46DB65F88C11AF32CA9F
:1000C00057E974000000002300260029000000000A
:1000D00000250028002B0004040404040404040286
:1000E00002020202020303030303030102040810D5
:1000F00020408001020408102001020408102000A2
:10010000000000240027002A00000000080002016F
:100110000000030407000000000000000000BC1401
:10012000941411241FBECFEFD8E0DEBFCDBF25E071
:10013000A4EEB2E001C01D92A830B207E1F712E0D0
:10014000A0E0B1E0EAE5F7E302C005900D92A43E1D
:10015000B107D9F710E0C0E9D0E004C02197FE0153
:100160000E948119CF38D107C9F70E944F0C0C9417
:10017000A01B0C9400000895CF92DF92EF92FF92A3
:100180000F931F93CF93DF936C017A018B01C0E033
:10019000D0E0CE15DF0581F0D8016D918D01D6013B
:1001A000ED91FC910190F081E02DC6010995892B1C
:1001B00011F02196EECF7E01C701DF91CF911F9103
:1001C0000F91FF90EF90DF90CF900895FC01538D39
:1001D000448D252F30E0842F90E0821B930B541721
:1001E00010F0CF96089501970895FC01918D828DAE
:1001F000981761F0828DDF01A80FB11D5D968C917B
:10020000928D9F5F9F73928F90E008958FEF9FEF85
:100210000895FC01918D828D981731F0828DE80F41
:10022000F11D858D90E008958FEF9FEF0895FC01FB
:10023000918D228D892F90E0805C9F4F821B9109C8
:100240008F73992708958DED93E00E94170121E0A7
:10025000892B09F420E0822F0895FC01848DDF01B1
:10026000A80FB11DA35ABF4F2C91848D90E0019629
:100270008F739927848FA689B7892C93A089B18918
:100280008C91837080648C93938D848D981306C0B9
:100290000288F389E02D80818F7D80830895EF921D
:1002A000FF920F931F93CF93DF93EC0181E0888F30
:1002B0009B8D8C8D981305C0E889F989808185FD17
:1002C00026C0F62E0B8D10E00F5F1F4F0F73112706
:1002D000E02E8C8DE8120CC00FB607FCFACFE8892F
:1002E000F989808185FFF5CFCE010E942D01F1CFE4
:1002F0008B8DFE01E80FF11DE35AFF4FF0829FB78F
:10030000F8940B8FEA89FB89808180620AC09FB7CD
:10031000F894EE89FF896083E889F9898081837088
:10032000806480839FBF81E090E0DF91CF911F9137
:100330000F91FF90EF900895CF93DF93EC01888D9C
:100340008823C9F0EA89FB89808185FD05C0A889D9
:10035000B9898C9186FD0FC00FB607FCF5CF80815F
:1003600085FFF2CFA889B9898C9185FFEDCFCE01A9
:100370000E942D01E7CFDF91CF91089580E090E0BA
:10038000892B29F00E94230181110C94000008950B
:100390002091E6023091E7022817390771F4909115
:1003A000E4028091E502981741F0E091E402F0E068
:1003B000E45BFC4F808190E008958FEF9FEF0895FC
:1003C00008951F93CF93DF93DC015C968D919C91F0
:1003D0005D97009739F421E030E013963C932E931B
:1003E00012973BC05196ED91FC91529750962C91EB
:1003F0005097322F30951FB75E964C915E97742FB1
:10040000727041FD6095F8944081772311F0422B82
:1004100001C043234083EC012197F1F748E050816C
:1004200060FF02C0522B01C053235083EC0121977F
:10043000F1F76695415099F78081772319F083236E
:10044000808302C0282B20831FBF5C968D919C91D6
:100450005D970197F1F781E090E0DF91CF911F91D7
:1004600008952091E6023091E7022817390771F4C8
:100470008091E5022091E40290E0805C9F4F821B16
:10048000910960E470E00E944B19089580E090E0CB
:1004900008952091E6023091E70228173907B9F450
:1004A0009091E4028091E502981789F0E091E402CE
:1004B000F0E0E45BFC4F80812091E40230E02F5FAC
:1004C0003F4F2F7333272093E40290E008958FEF7E
:1004D0009FEF089508950895E0919103809190030E
:1004E000E81730F4F0E0E851FD4F808190E0089586
:1004F0008FEF9FEF0895909191038091900398174B
:1005000050F4E92FF0E0E851FD4F208130E09F5F8B
:100510009093910302C02FEF3FEFC901089580919E
:10052000900390E020919103821B9109089580E04F
:1005300090E0089585ED8093BC008091BC0084FD1F
:10054000FCCF1092B803089540912903262F30E084
:10055000240F311D21323105DCF42091B803243001
:10056000C9F4FC0180E090E0861758F4309129032B
:100570002191DC01A75FBC4FA30FB11D2C93019605
:10058000F3CF80912903680F6093290380E00895D9
:1005900081E0089582E00895CF92DF92EF92FF927A
:1005A0000F931F93CF93DF937C01CB018A0120919E
:1005B000B903222389F0EB016B01C40ED51ECC15C3
:1005C000DD0569F06991D701ED91FC910190F08111
:1005D000E02DC7010995F3CF642F0E94A402C80142
:1005E000DF91CF911F910F91FF90EF90DF90CF900F
:1005F0000895CF93DF931F92CDB7DEB76983209123
:10060000B9032223D1F02091DC03203240F021E015
:1006100030E0FC013383228380E090E015C08091BC
:10062000BA03E82FF0E0E554FC4F998190838F5F87
:100630008093BA038093DC0305C061E0CE0101968C
:100640000E94A40281E090E00F90DF91CF91089585
:100650000E94821B0F931F93CF93DF93EC0188813D
:100660009981009729F02A813B812617370788F462
:100670008B016F5F7F4F0E94BC1A009761F09983D6
:1006800088831B830A832C813D81232B11F4FC0179
:10069000108281E001C080E0DF91CF911F910F9126
:1006A00008950C94331A0C94331A0C94331A0C9446
:1006B000331A0C94331A0C94331ACF93DF93EC0152
:1006C00061E08A810E943C0B60E08A810E94A80A56
:1006D0001C82DF91CF91089561E0FC0182810C942E
:1006E0003C0B60E0FC0182810C943C0BCF93DF93C8
:1006F000EC0160E08A810E943C0B8A810E947F0AA3
:1007000021E0892B09F420E02C83DF91CF9108951B
:10071000EF92FF920F931F93CF93DF9361157105B3
:1007200011F480E01CC041155105C1F07B01EC01C2
:100730008C819D818A01080F191FB801CE010E948A
:100740002A03882371F3288139818C819D81B70127
:10075000820F931F0E94991B1D830C8381E0DF9100
:10076000CF911F910F91FF90EF900895CF93DF935A
:10077000EC0188819981009711F00E94331A198247
:1007800018821D821C821B821A82DF91CF910895EC
:10079000CF93DF93EC016115710561F0FB010190CE
:1007A0000020E9F73197AF01461B570B0E948803E1
:1007B000811103C0CE010E94B603CE01DF91CF911B
:1007C0000895EF92FF920F931F93CF93DF93EC0165
:1007D0007B018A01BA010E942A03811104C0CE0163
:1007E0000E94B60307C01D830C83B70188819981DD
:1007F0000E94991BCE01DF91CF911F910F91FF9025
:10080000EF900895FC01808191810C94331AFB01D3
:10081000DC0111961C921E9213961C921E92129746
:1008200015961C921E9214978617970749F06081BF
:1008300071816115710521F0448155810C94E103AA
:100840000895FC0111821082138212821582148293
:100850006115710551F0FB0101900020E9F7319716
:10086000AF01461B570B0C94E10308956115710508
:1008700079F0FB0101900020E9F73197AF01461BA9
:10088000570BDC01ED91FC910280F381E02D09947E
:1008900080E090E008950C9436041F920F920FB6FA
:1008A0000F9211242F933F934F935F936F937F93F6
:1008B0008F939F93AF93BF93EF93FF938DED93E04F
:1008C0000E942D01FF91EF91BF91AF919F918F9168
:1008D0007F916F915F914F913F912F910F900FBE3C
:1008E0000F901F9018951F920F920FB60F92112420
:1008F0002F938F939F93EF93FF93E091ED03F091EC
:10090000EE038081E091F303F091F40382FD12C0C5
:1009100090818091F6038F5F8F732091F703821788
:1009200051F0E091F603F0E0E352FC4F958F809395
:10093000F60301C08081FF91EF919F918F912F91DC
:100940000F900FBE0F901F901895DC0180E0615052
:1009500098F02D91982F9227E92FEF70F0E0ED5548
:10096000FF4F249192959F70E92FF0E0ED54FF4FD7
:10097000E491822F8E27EBCF0895FC0190810180B6
:10098000F281E02DF8948181892B81832281892F46
:10099000809528232283A7E0B0E01197F1F7218109
:1009A00082238183A3E2B0E01197F1F780817894EC
:1009B000EFECF0E03197F1F7982381E009F480E063
:1009C0000895FC0190810180F281E02D892F8095AE
:1009D00060FF12C0F8942281822382838181892B57
:1009E0008183A3E2B0E01197F1F78281982B928383
:1009F000789487ED90E011C0F8942281822382835D
:100A00008181892B8183AFEFB0E01197F1F782816B
:100A1000982B928378948FE090E00197F1F70895F6
:100A2000DF92EF92FF920F931F93CF93DF93EC012E
:100A3000D62EE42E08E010E0FF24F39461E08D2D23
:100A40008F2109F460E0CE010E94E104FF0C015007
:100A50001109A1F7E11010C0F894E981FA819181A0
:100A60008881809589238183E981FA8192818881B7
:100A70008095892382837894DF91CF911F910F9184
:100A8000FF90EF90DF900895EF92FF920F931F93E6
:100A9000CF93DF938C017B0140E065E50E94100558
:100AA000E70188E0E80EF11C699140E0C8010E946E
:100AB0001005CE15DF05C1F7DF91CF911F910F9182
:100AC000FF90EF900895DC012C911196ED91FC912F
:100AD0001297F8948181922F90958923818378943D
:100AE0008DE743E050E0815021F1DA011197F1F7F1
:100AF00030813223C1F3F8948281892382838181FA
:100B0000822B81837894ABE7B7E01197F1F7F894E3
:100B100081819823918383E191E00197F1F78081AE
:100B2000282381E009F080E07894E3E6F6E031974D
:100B3000F1F708958F929F92AF92BF92CF92DF927A
:100B4000EF92FF920F931F93CF93DF938C017A0163
:100B5000FC01868197810E94440540E06EEBF8011C
:100B6000868197810E941005E7015701F9E0AF0ED9
:100B7000B11CF8018680978088E0C82ED12CF12C1A
:100B8000EE24E394C4010E94BD048111FE28EE0C02
:100B9000F1E0CF1AD108B1F7F992AC16BD0649F7CA
:100BA000F801868197810E94630591E0813009F008
:100BB00090E0892FDF91CF911F910F91FF90EF90DF
:100BC000DF90CF90BF90AF909F908F900895EF925D
:100BD000FF920F931F93CF93DF93CDB7DEB7299783
:100BE0000FB6F894DEBF0FBECDBF8C017B01FC01B8
:100BF000868197810E946305882311F1AE014F5FC2
:100C00005F4FB701C8010E949A058823C9F068E0C8
:100C1000CE0101960E94A5049985891311C08D818A
:100C20008F3361F020F48F3159F489E00CC08F3597
:100C300019F08F3739F004C08BE005C08AE003C09B
:100C400080E001C08CE029960FB6F894DEBF0FBE9D
:100C5000CDBFDF91CF911F910F91FF90EF9008953D
:100C6000FC01908190539A3008F090E0818180538C
:100C70002AE0929F800D112408951F920F920FB6C3
:100C80000F9211242F933F934F935F936F937F9312
:100C90008F939F93AF93BF93EF93FF93E091E602FF
:100CA000F091E702309709F451C0968DA685B7857B
:100CB000858591FF04C09C91892329F447C09C91AC
:100CC000892309F043C0A389B4899C9185898095C3
:100CD00089238C93868997890197F1F7608D718DAF
:100CE000A685B785558538E020E0CB010197F1F75F
:100CF000822F90E095958795282F4C91452309F0F8
:100D00002068315091F7868D81FD20958091E50214
:100D100090E001968F7399273091E402381749F0DB
:100D2000A091E502B0E0A45BBC4F2C938093E50258
:100D300003C0868D8160868F828D938D0197F1F738
:100D4000A389B4899C918589892B8C93FF91EF911C
:100D5000BF91AF919F918F917F916F915F914F91D3
:100D60003F912F910F900FBE0F901F9018951F92DB
:100D70000F920FB60F9211242F933F934F935F93CF
:100D80006F937F938F939F93AF93BF93EF93FF9353
:100D90008091B900887F803609F49CC068F588325C
:100DA00009F45BC090F4803109F454C038F488230E
:100DB00009F4F6C0883009F44DC0F6C0883109F452
:100DC0004CC0803209F45DC0EFC0803409F468C0C3
:100DD00048F4803309F455C0883309F0E5C08093A6
:100DE000B603D8C0803509F44FC0883509F45DC01A
:100DF000883409F0D9C0D6C0883909F4C7C0A8F42E
:100E0000883709F467C038F4883609F463C080373E
:100E100009F460C0C9C0883809F4B8C0803909F441
:100E20005FC0803809F0C0C05BC0803B09F486C059
:100E300038F4803A09F466C0883A09F47FC0B4C037
:100E4000803C09F4A7C0883C09F4A4C0883B09F49D
:100E50008AC0AAC08091930310C09091B50380917D
:100E6000B403981770F5E091B50381E08E0F80937D
:100E7000B503F0E0EC56FC4F80818093BB0085EC1D
:100E800086C08093B6038EC0E091B50381E08E0FDB
:100E90008093B5038091BB00F0E0EC56FC4F80835B
:100EA0009091B5038091B4036EC0E091B50381E0E9
:100EB0008E0F8093B5038091BB00F0E0EC56FC4FA1
:100EC00080838091B70381116DC081E0809392038C
:100ED00084EA61C083E08093B80310924B03CFCFC4
:100EE00080914B03803208F051C0E0914B0381E0C8
:100EF0008E0F80934B038091BB00F0E0E55DFC4FCB
:100F00008083BDCF85EC8093BC001092B8038091A4
:100F10004B03803230F4E0914B03F0E0E55DFC4F91
:100F2000108260914B0370E0E0918C03F0918D038F
:100F30008BE293E0099510924B0336C084E08093D6
:100F4000B80310922A0310922903E0918E03F091C6
:100F50008F03099580912903811105C081E0809359
:100F6000290310920903E0912A0381E08E0F8093F8
:100F70002A03F0E0E75FFC4F80818093BB009091F3
:100F80002A0380912903981708F479CF85E8809384
:100F9000BC000AC085EC8093BC001092B80304C06A
:100FA0001092B6030E949A02FF91EF91BF91AF9108
:100FB0009F918F917F916F915F914F913F912F9171
:100FC0000F900FBE0F901F9018952EE631E0FC0198
:100FD00031832083CF960C940204CF93DF93EC01EE
:100FE0000E94E507CE01DF91CF910C94331A08954A
:100FF00008950895089508950895BF92CF92DF92BD
:10100000EF92FF920F931F93CF93DF93EC016B014D
:101010008D85811105C0CE010E946305811105C037
:101020001B861D861C8680E060C040E060EFCE011C
:101030000E94100501E0E12CB12C11E0CE010E94CC
:10104000BD04F82ECE010E94BD0491E0F91203C048
:101050008130B1F434C02E2D30E0F8121BC08B85E6
:10106000181738F4FE01E20FF31F8381802341F447
:1010700002C0811729F0F12C193058F41C8709C0DF
:10108000FE01EE0DF11D8381802B8383FF24F394F9
:1010900009C0B12EFE01E20FF31F9381802F8095CE
:1010A000892383836F2DCE010E94E1041F5F000F0F
:1010B00011F4E39401E087E08E1508F0BFCF1134FE
:1010C00008F4AECFBB86B11002C081E08D878B8162
:1010D000882309F4A5CFDE011396F6012B968D9196
:1010E0008193CA17DB07D9F781E0DF91CF911F9178
:1010F0000F91FF90EF90DF90CF90BF9008958F9267
:101100009F92AF92BF920F931F93CF93DF93CDB770
:10111000DEB7A1970FB6F894DEBF0FBECDBF19A200
:10112000423008F44AE08E010F5D1F4F842E912C4F
:10113000A12CB12CA50194010E945F19E62FB901E1
:10114000CA0101501109EA3014F4E05D01C0E95C04
:10115000D801EC93232B242B252B61F7B8018DEDBF
:1011600093E00E943604A1960FB6F894DEBF0FBE3E
:10117000CDBFDF91CF911F910F91BF90AF909F9006
:101180008F900895CF92DF92EF92FF92CF93DF93EB
:101190006B017C016DE28DED93E00E944F01EC014B
:1011A00066277727CB016C197D098E099F094AE0D4
:1011B0000E947F088C0F9D1FDF91CF91FF90EF90D1
:1011C000DF90CF900895CF93DF93BC018DED93E036
:1011D0000E943604EC0161ED72E08DED93E00E9417
:1011E00036048C0F9D1FDF91CF9108950F931F93AD
:1011F000CF93DF9386ED92E00E94E308C2E9D4E04A
:101200000E851F8560E0F80182810E94A80AF8011E
:1012100014820889198960E0F80182810E94A80A75
:10122000F80114821EA61DA61FA618AADF91CF9151
:101230001F910F910895282F3091DC03313208F06F
:101240004AC08091B8038111FCCF9091DB0342E04A
:101250004093B8032093B7032FEF2093B603109267
:10126000B5033093B403EBEBF3E0A4E9B3E020E083
:10127000321721F041914D932F5FFACF10929303D3
:1012800020919303990F922B909393039091920343
:10129000913061F410929203909193039093BB006C
:1012A0009091BC0093FDF8CF95EC01C095EE909322
:1012B000BC009091B8039230E1F39091B6039F3F48
:1012C00079F08091B603803241F08091B60380338B
:1012D00031F084E005C081E003C082E001C083E01A
:1012E0001092BA031092DC031092B9030895109281
:1012F0009103109290031092BA031092DC031092A3
:10130000B80381E08093B7031092920361E082E119
:101310000E94A80A61E083E10E94A80AE9EBF0E0DC
:1013200080818E7F808380818D7F808388E480931D
:10133000B80085E48093BC008AE692E090938F0326
:1013400080938E038BE692E090938D0380938C03C1
:101350000895DB0114964D915C9115976D917C91E8
:10136000DC01ED91FC910280F381E02D0994CF9393
:10137000DF93EC01FB0144815581608171810E9402
:101380008803811103C0CE010E94B603CE01DF9114
:10139000CF910895EF92FF920F931F93CF93DF9316
:1013A000CDB7DEB762970FB6F894DEBF0FBECDBFE4
:1013B0008C01CB01F80111821082138212821582F6
:1013C00014824AE09E012F5F3F4F7901B9010E94CC
:1013D0009016F70101900020E9F73197AF014E19FF
:1013E0005F09B701C8010E94E10362960FB6F89445
:1013F000DEBF0FBECDBFDF91CF911F910F91FF9048
:10140000EF900895FC018091D5049091D604892B2A
:1014100021F421E0309749F413C08091D1049091D8
:10142000D204309731F421E0FC018081882341F01F
:1014300006C0BF010E94901B21E0892B09F020E02B
:10144000822F0895CF93DF93EC018A810E947F0A57
:1014500021E0892B09F420E02C83822FDF91CF91AA
:101460000895833081F028F4813099F08230A1F022
:1014700008958730A9F08830B9F08430D1F4809194
:1014800080008F7D03C0809180008F7780938000E3
:10149000089584B58F7702C084B58F7D84BD08958B
:1014A0008091B0008F7703C08091B0008F7D8093D2
:1014B000B00008953FB7F894809100059091010520
:1014C000A0910205B091030526B5A89B05C02F3F4A
:1014D00019F00196A11DB11D3FBFBA2FA92F982F5A
:1014E0008827820F911DA11DB11DBC01CD0142E0D5
:1014F000660F771F881F991F4A95D1F70895CF93DC
:10150000DF93282F30E0F901E75FFE4F8491F90166
:10151000E551FF4FD491F901E952FF4FC491CC231B
:1015200091F081110E94310AEC2FF0E0EE0FFF1FC5
:10153000ED53FF4FA591B491EC91ED2381E090E044
:1015400021F480E002C080E090E0DF91CF91089527
:101550001F93CF93DF93282F30E0F901E75FFE4F11
:101560008491F901E551FF4FD491F901E952FF4F00
:10157000C491CC23C1F0162F81110E94310AEC2FA7
:10158000F0E0EE0FFF1FE353FF4FA591B4919FB71B
:10159000F894111104C08C91D095D82302C0EC911D
:1015A000DE2BDC939FBFDF91CF911F9108950F93A6
:1015B0001F93CF93DF938BED92E00E94E308C2E983
:1015C000D4E00E851F8560E0F80182810E94A80AA0
:1015D000F80114820888D989C02D61E08A810E94AF
:1015E000A80A81E08C83DF91CF911F910F9108951C
:1015F0001092A5041092A4041092C104882321F033
:1016000081E08093C20402C01092C20481E0809302
:10161000C00480919A0490919B040E94220A811137
:1016200009C080919C0490919D040E94220A81111E
:101630000C94D70A08950F931F93CF93DF9380EEF6
:1016400092E00E94E308C2E9D4E00E851F8561E0C4
:10165000F80182810E94A80A81E0F8018483088849
:10166000D989C02D60E08A810E94A80A1C82DF917E
:10167000CF911F910F910895CF93DF9390E0FC01DC
:10168000E551FF4F2491FC01E952FF4F84918823DB
:1016900061F190E0880F991FFC01E150FF4FC59167
:1016A000D491FC01E353FF4FA591B491611109C09E
:1016B0009FB7F8948881209582238883EC912E230C
:1016C0000BC0623061F49FB7F8948881322F309557
:1016D00083238883EC912E2B2C939FBF06C08FB75A
:1016E000F894E8812E2B28838FBFDF91CF91089546
:1016F0008E3008F08E508770806480937C008091DB
:101700007A00806480937A0080917A0086FDFCCF15
:10171000809178002091790090E0922B08958F922B
:101720009F92AF92BF92CF92DF92EF92FF926B01A6
:101730007C010E945A0A4B015C01C114D104E104EE
:10174000F104F1F00E945A0ADC01CB0188199909D1
:10175000AA09BB09883E9340A105B10570F321E0B9
:10176000C21AD108E108F10888EE880E83E0981EBD
:10177000A11CB11CC114D104E104F10419F7DDCF9F
:10178000FF90EF90DF90CF90BF90AF909F908F90A1
:1017900008952FB7F8946091FC047091FD04809136
:1017A000FE049091FF042FBF08950F931F93CF93D2
:1017B000DF93EC010E94C90B688779878A879B8732
:1017C000E881F9810284F385E02DCE01099597FF28
:1017D00017C00E94C90B088519852A853B85DC0145
:1017E000CB01801B910BA20BB30B0C811D812E81B1
:1017F0003F8180179107A207B30710F38FEF9FEF88
:10180000DF91CF911F910F9108951F920F920FB604
:101810000F9211242F933F938F939F93AF93BF9376
:101820008091FC049091FD04A091FE04B091FF040E
:101830003091FB0423E0230F2D3720F40196A11DE6
:10184000B11D05C026E8230F0296A11DB11D2093EE
:10185000FB048093FC049093FD04A093FE04B093DA
:10186000FF048091000590910105A0910205B091BF
:1018700003050196A11DB11D8093000590930105FC
:10188000A0930205B0930305BF91AF919F918F91F3
:101890003F912F910F900FBE0F901F901895CF93EF
:1018A000DF93CDB7DEB7A5970FB6F894DEBF0FBEB6
:1018B000CDBF789484B5826084BD84B5816084BDD9
:1018C00085B5826085BD85B5816085BD80916E00DE
:1018D000816080936E00109281008091810082600F
:1018E000809381008091810081608093810080914C
:1018F00080008160809380008091B100846080933B
:10190000B1008091B00081608093B00080917A0036
:10191000846080937A0080917A00826080937A005C
:1019200080917A00816080937A0080917A0080684B
:1019300080937A001092C10068EE73E080E090E03E
:101940000E948F0BE091ED03F091EE0382E0808323
:10195000E091E903F091EA031082E091EB03F0914A
:10196000EC038FEC80831092F503E091F103F0918A
:10197000F20386E08083E091EF03F091F003808131
:1019800080618083E091EF03F091F00380818860B3
:101990008083E091EF03F091F00380818068808381
:1019A000E091EF03F091F00380818F7D80830E94AE
:1019B00077090E9477090E94770984E891E00E94E4
:1019C000E3084BE050E067E970E0CE0101960E9429
:1019D0008716CE010A960E943006082FE9814E2F05
:1019E000EE0F550B660B770BFA01E154F109E33169
:1019F000F10538F5EC5CFF4F0C9481198A81813632
:101A000039F08B818E3611F416E01BC017E019C037
:101A100011E017C08B81823711F414E012C018E076
:101A200010C08B81823711F413E00BC015E009C0A0
:101A300019E007C01AE005C01BE003C01CE001C0AC
:101A400012E0CE0105960E943006E82E48E050E0F4
:101A50006EE870E0CE0101960E948716CE010196D5
:101A60000E943006D82ECE0104960E943006C82E61
:101A7000CE0107960E943006B82E81E08093B9030C
:101A800088E68093DB031092BA031092DC0360E0D7
:101A90008AE794E00E94F9023AE0F32E8B2D6F2D35
:101AA0000E943F19682F660F860F880F682F6B0DF5
:101AB0008AE794E00E94F9028C2D6F2D0E943F1955
:101AC000682F660F860F880F682F6C0D8AE794E0E9
:101AD0000E94F9028D2D6F2D0E943F19682F660F0D
:101AE000860F880F682F6D0D8AE794E00E94F90237
:101AF00060E08AE794E00E94F9028E2D6F2D0E942B
:101B00003F19682F660F860F880F682F6E0D8AE7C2
:101B100094E00E94F902812F6F2D0E943F19682FD7
:101B2000660F680F660F610F8AE794E00E94F90262
:101B3000802F6F2D0E943F19682F660F680F660F68
:101B4000600F8AE794E00E94F90281E00E941B097D
:101B500088E093E09093D0048093CF04E0919404C4
:101B6000F0919504138E128E118E108E178A168A9C
:101B70008FE796E0958F848F9485963108F04EC05C
:101B80002EE233E0378B268B2DE736E0318F208F26
:101B900025ED34E0338F228F30916800983058F073
:101BA00021E09E3008F420E091E0892F01C0880FE9
:101BB0002A95EAF701C084E0832B8093680094851E
:101BC000983038F09E3040F0963148F42CE630E002
:101BD00008C02DE630E005C02BE630E002C020E072
:101BE00030E0348B238B983030F481E001C0880FD3
:101BF0009A95EAF70EC0292F30E09E3018F428504D
:101C0000310902C02E50310981E001C0880F2A95A8
:101C1000EAF7858B848D958D0197F1F7828D938DF1
:101C2000892B49F14091E6025091E702E417F5074C
:101C300011F14115510571F0DA0153962D913C9146
:101C40005497D9019C91DA0155968C9180958923FE
:101C5000D9018C93868D8E7F868F1092E50210922B
:101C6000E402F093E702E093E602A389B4899C9131
:101C70008589892B8C938091980490919904DC013B
:101C8000ED91FC910480F581E02D099580919A04F5
:101C900090919B04DC01ED91FC910480F581E02D95
:101CA000099580919E0490919F04DC01ED91FC9137
:101CB0000480F581E02D099580919C0490919D040C
:101CC000DC01ED91FC910480F581E02D0995809176
:101CD000A0049091A104DC01ED91FC910190F081B0
:101CE000E02D09958091A2049091A304DC01ED916F
:101CF000FC910190F081E02D09950E94F608009179
:101D00009E0410919F04F80182810E94780BD801F3
:101D100015969C938E9314979093BC048093BB0468
:101D2000BC01990F880B990B97FF03C00E94C20852
:101D300003C04AE00E947F080091CD041091CE04B8
:101D4000D8011696ED91FC91179713861586148687
:101D5000DF011B9633961E92EA17FB07E1F7F801A5
:101D600014821582EE24E394BE016F5F7F4FD80189
:101D700016968D919C9117970E94FD07882309F470
:101D80006BC067E0CE0101960E94A5049885891377
:101D9000EBCFF8018081811125C0868197810E9457
:101DA0006305BE016F5F7F4FD80116968D919C91A0
:101DB00017970E94440540E064EBF8018681978103
:101DC0000E941005D80116968D919C9117970E943C
:101DD000BD04F82EF801868197810E946305FF20DB
:101DE00009F4D8C4D8011196FC908981803109F496
:101DF000F5C4BE016F5F7F4FC8010E94E7058F15D4
:101E000018F4F80181810BC08981803111F48CE0D4
:101E100006C0BE016F5F7F4FC8010E94E705D80171
:101E200011968C93119714968C9114978F5F14963A
:101E30008C938981883209F4B0C438F4803109F474
:101E4000ACC4823209F090CFA8C48B3309F4A5C486
:101E5000823409F089CFA1C469E971E08CED94E086
:101E60000E944B0411E098E8292E93E1392E28E6D0
:101E7000822E99249A9406E08091C204882309F462
:101E80009BC00E94C90BC090C704D090C804E090CA
:101E9000C904F090CA04DC01CB018C199D09AE097C
:101EA000BF09C397A105B10508F46DC0C090BD047A
:101EB000D090BE04E0909E04F0909F04F7018281D0
:101EC0000E94780BD70115969C938E9314972091BE
:101ED000BB043091BC04821793072CF4F901E81B72
:101EE000F90BCF0102C0821B930B829DB001839D31
:101EF000700D929D700D1124672F770F770B6595EC
:101F00006595072E000C880B990B0E94CC1624EACD
:101F100030E74DE35EE30E948D180E94FF182B010D
:101F20003C01072E000C880B990B97FF03C00E9401
:101F3000C20803C04AE00E947F088AEB91E00E9439
:101F4000E308F601EE0FFF1FEE56FB4F568A458A57
:101F50000E94C90B6093C7047093C8048093C9049E
:101F60009093CA048091BD049091BE0401968A307A
:101F700091052CF49093BE048093BD0404C010928C
:101F8000BE041092BD04E7EAF4E080E090E0219105
:101F90003191820F931F24E0EB3BF207C1F78A31A6
:101FA000974250F00E94F6081092C0041092BF04AD
:101FB0001092C2041093A6048091C004882319F1E2
:101FC00080919A0490919B040E94220A882359F0E0
:101FD0000E94F6081092C0041092BF041092C2042E
:101FE0001093A40410C080919C0490919D040E94C1
:101FF000220A8111D7C38091BF048111D3C30E94EB
:10200000F6081093BF048091C104882391F0809159
:102010009804909199040E94220A882351F00E940A
:10202000F6081092C1041092BF041092C2041093DB
:10203000A5041093B9038092DB031092BA031092A7
:10204000DC0360E08AE794E00E94F90281E00E94EC
:102050001B098091B8038111FCCF1093B803109332
:10206000B7039092B6031092B5030093B403109394
:10207000930380919303806D8093930380919203E7
:10208000813061F410929203809193038093BB009E
:102090008091BC0083FDF8CF85EC01C085EE809374
:1020A000BC008091B8038130E1F38091B5038730A3
:1020B00018F49091B50301C097E0E4E9F3E0A8EECD
:1020C000B2E080E0891721F021912D938F5FFACF44
:1020D00010929103809390038AE794E00E947B0220
:1020E0008AE794E00E947B028AE794E00E947B02E8
:1020F0008AE794E00E947B028AE794E00E947B02D8
:102100008AE794E00E947B028AE794E00E947B02C7
:102110008091D704882359F12091A40480919404DC
:1021200090919504222339F01092D7041092A404C0
:102130006DEB71E00AC02091A604222341F01092B9
:10214000D7041092A60463EC71E00E944B048091C6
:10215000A504882361F01092D7041092A50469ECBD
:1021600071E080919404909195040E944B048091B9
:10217000940490919504DC01ED91FC910084F1852B
:10218000E02D0995892B09F402C3E0909404F090A6
:10219000950463ED72E0CE0101960E942104C7010F
:1021A0000E94D50B97FD0CC08C871D8641E050E046
:1021B000BE01645F7F4FCE0101960E948803EFCF7E
:1021C0008091D1049091D204009789F069817A813D
:1021D0006115710551F04091D3045091D4042D81C3
:1021E0003E814217530708F0F0C20E94331A8981DA
:1021F0009A819093D2048093D1048B819C81909397
:10220000D4048093D3048D819E819093D6048093CF
:10221000D5041A8219821C821B821E821D82CE0165
:1022200001960E9402048FEC91E00E94020A88232A
:10223000E9F064ED71E080919404909195040E941E
:102240004B041092A5041092A4041092C0041093A1
:10225000C2041093C10480919804909199040E9443
:10226000220A81112BC00E941B0B28C08EED91E029
:102270000E94020A882389F063EE71E08091940441
:10228000909195040E944B041092A5041092A4040E
:102290001092C0041092C204DCCF8DEE91E00E9437
:1022A000020A882371F062EF71E0809194049091AA
:1022B00095040E944B0481E00E94F80A1093D70411
:1022C00066C28CEF91E00E94020A882351F061E01F
:1022D00072E080919404909195040E944B0480E0F8
:1022E000EBCF8BE092E00E94020A882359F060E174
:1022F00072E080919404909195040E944B040E9496
:102300001B0B45C28AE192E00E94020A882359F021
:102310006FE172E080919404909195040E944B04C7
:102320000E94D70A34C289E292E00E94020A8823FE
:1023300059F06EE272E080919404909195040E94AD
:102340004B040E94F60823C288E392E00E94020A2E
:102350008823D1F06DE372E080919404909195040C
:102360000E944B0480919A0490919B040E94220A3F
:102370002091940430919504882319F067E472E069
:1023800042C06FE472E03FC087E592E00E94020A1B
:102390008823D1F06CE572E08091940490919504CB
:1023A0000E944B0480919804909199040E94220A03
:1023B0002091940430919504882319F066E672E028
:1023C00022C06EE672E01FC086E792E00E94020A19
:1023D0008823E9F06DE772E0809194049091950470
:1023E0000E944B0480919C0490919D040E94220ABB
:1023F0002091940430919504882319F069E872E0E3
:1024000002C063E972E0C9010E944B04C0C18DE9BA
:1024100092E00E94020A882309F470C065EA72E023
:1024200080919404909195040E944B0480919C04A7
:1024300090919D040E94220A682F70E0CE014A9676
:102440000E94CA0980919804909199040E94220ADE
:10245000682F70E0CE0144960E94CA0980919A04C8
:1024600090919B040E94220A682F70E0CE010C9686
:102470000E94CA0962EB72E0CE0101960E9421041B
:10248000BE01645F7F4FCE0101960E94B70964EBE5
:1024900072E00E94C803BE016C5E7F4F0E94B709C4
:1024A00064EB72E00E94C803BE01665E7F4F0E942B
:1024B000B70964E772E00E94C803BC01CE018096B0
:1024C0000E940704CE0101960E940204CE010C96E0
:1024D0000E940204CE0144960E940204CE014A9654
:1024E0000E940204BE01605E7F4F8091940490912F
:1024F00095040E94A909CE01809647C186EB92E01F
:102500000E94020A882309F442C16BEB72E08091B9
:102510009404909195040E944B04E090CD04F090B7
:10252000CE04F701868197810E94630540E06CEC40
:10253000D70116968D919C9117970E941005F7016F
:10254000408164E4868197810E941005D70112962C
:102550008C9112978823E9F11196EC91E950E330C0
:1025600040F4F0E0EE0FFF1FEA5FFE4FC080D18025
:1025700004C07EEEC72E72E0D72EF7018381882338
:1025800011F1808181111FC00E94C90B2B013C01F8
:102590005601DD0CCC08DD08D70116968D919C9173
:1025A00017970E94BD048130A1F00E94C90BDC0185
:1025B000CB018A199B09AC09BD0984159505A605AF
:1025C000B70550F306C0B601DD0C880B990B0E94CD
:1025D0008F0BE090CD04F090CE04D7011696ED91CC
:1025E000FC911797138615861486DF011B96339688
:1025F0001E92AE17BF07E1F7BE01645F7F4FF70180
:10260000868197810E94FD07882309F4EEC067E068
:10261000CE010C960E94A5049B898913E6C0D701C0
:1026200016968D919C9117970E946305882309F453
:1026300078C1AE014F5F5F4FBE01645F7F4FC7013E
:102640000E949A05882309F46CC168E0CE010196C6
:102650000E94A5049985891364C12A8130E0C901CB
:10266000982F8827990F990F990F6981F8E06F9F2C
:10267000B00111249C01262B372B8C85803109F069
:10268000B2C0688570E08F81AB01481B5109CA0157
:102690009695982F8827979587950E944B1960519A
:1026A0007109207F53E0220F331F5A95E1F7620F23
:1026B000731F613854EE75070CF497C0072E000C99
:1026C000880B990B0E94CC1620E030E040E05CE3E0
:1026D0000E942B172B013C0120E030E040E251E446
:1026E0000E942B170E94FF187B01A3019201C301D6
:1026F000B2010E943A19882309F481C065EC72E0A6
:102700008DED93E00E94360461ED72E08DED93E073
:102710000E943604B701CE010C960E94CA0964EDEE
:1027200072E0CE0101960E942104BE01645F7F4FDA
:10273000CE0101960E94B70964E772E00E94C803C7
:10274000BC01CE0144960E940704CE0101960E946E
:102750000204CE010C960E940204BE016C5E7F4F03
:1027600080919404909195040E94A909BE016C5E29
:102770007F4F8DED93E00E94A90961ED72E08DED30
:1027800093E00E943604CE0144960E9402040E9407
:10279000BE0172CBD801EC9225CBF80185818F5F09
:1027A0008583E2CA80919C0490919D040E94220A34
:1027B000882309F428CC8091BF04882309F423CC12
:1027C0000E94D70A1092BF041ECC0E94991B8D81D3
:1027D0009E819093D6048093D5041FCDFCE0FF1515
:1027E00008F40FCB14CBB90164CF412C512C8EEFE0
:1027F000682E82EC782E9AE0E92E9BEFF92E630189
:102800005201E894D7F82FEF3FEF4FE75FE7C6019B
:10281000B5010E943A1981110DC02FEF3FEF4FE72C
:102820005FE7C601B5010E94C51618161CF469ECD5
:1028300072E066CF2FEF3FEF4FE75FE4C301B201D5
:102840000E94351918161CF46DEC72E059CF2FEF69
:102850003FEF4FE75FECC301B2010E94C51687FD51
:10286000F3CF20E030E0A901C301B2010E94C516F8
:1028700087FF09C06DE28DED93E00E944F0177FA6A
:10288000709477F870942AE037ED43EA5BE3C30174
:10289000B2010E9421185B016C010E9406192B01F4
:1028A0003C010E94CA169B01AC01C601B5010E9401
:1028B00020185B016C014AE0C301B2010E947F084D
:1028C0006EE28DED93E00E944F0120E030E040E2A7
:1028D00051E4C601B5010E942B175B016C010E94F7
:1028E00006192B01612C712C4AE0C301B2010E9430
:1028F0007F08C301B2010E94CA169B01AC01C60148
:10290000B5010E94201820E030E040E251E40E942E
:102910002B170E94061980E090E04AE00E947F0891
:10292000F3CE60E874EEC5CE86E894E00E9402041F
:102930008CE894E00E94020482E994E00E94E5079A
:1029400086E791E09093DD048093DC048091E602B9
:102950009091E7028C5D944071F4E091EF04F09166
:10296000F00490818091F1048095892380831092F6
:10297000E7021092E6020895CF93DF931092E003EE
:102980001092DF0388EE93E0A0E0B0E08093E103D3
:102990009093E203A093E303B093E40320E131E0DA
:1029A0003093DE032093DD0325EC30E03093EA031F
:1029B0002093E90324EC30E03093EC032093EB0305
:1029C00020EC30E03093EE032093ED0321EC30E077
:1029D0003093F0032093EF0322EC30E03093F203C6
:1029E0002093F10326EC30E03093F4032093F303BB
:1029F0001092F6031092F7031092F8031092F90365
:102A000010927D0410927C0480937E0490937F0446
:102A1000A0938004B093810422E231E030937B04E0
:102A200020937A041092DF041092DE048093E00475
:102A30009093E104A093E204B093E30486E791E06D
:102A40009093DD048093DC041092F3041092F2045E
:102A50001092F5041092F4041092F7041092F60408
:102A60001092F9041092F8046091FA046E7F6D7F61
:102A70006093FA046695617081E068278BE00E949C
:102A8000A80A61E08BE00E943C0BE6EFF0E0E491E5
:102A9000E093EC04E2EEF0E0E491F0E0EE0FFF1FD3
:102AA000E353FF4F859194919093EE048093ED044E
:102AB00060E08AE00E943C0B8091FA0481FD04C032
:102AC00061E08AE00E94A80A8AE08093E804E5EFCA
:102AD000F0E0E491E093E904E1EEF0E0E491F0E06D
:102AE000EE0FFF1FED53FF4F859194919093EB04F0
:102AF0008093EA048EE691E090939304809392048D
:102B000086E691E0909397048093960484E1E7EA47
:102B1000F4E0DF011D928A95E9F71092BC0410924F
:102B2000BB041092BE041092BD0485E090E00E94A8
:102B30009B19FC0185E090E093838283CCE5D1E092
:102B4000D183C0831482F0939904E09398040E9487
:102B50009B19FC0186E090E093838283D183C0833C
:102B60001482F0939B04E0939A0488E090E00E9422
:102B70009B19FC018EE090E09383828388E491E0CE
:102B8000918380831782168215821482F0939F04AA
:102B9000E0939E0485E090E00E949B19FC0187E091
:102BA00090E093838283D183C0831482F0939D0449
:102BB000E0939C0485E090E00E949B19FC0180E179
:102BC00090E093838283CEE3D1E0D183C0831482EB
:102BD000F093A104E093A00485E090E00E949B198B
:102BE000FC0181E190E093838283D183C0831482CE
:102BF000F093A304E093A2041092C0041092C104C5
:102C00001092C2041092BF041092A4041092A50462
:102C10001092A6041092C3041092C4041092C5042A
:102C20001092C6041092C7041092C8041092C904EE
:102C30001092CA0463ED72E081ED94E00E942104D9
:102C40008CED94E0909395048093940440E050E0E0
:102C500063ED72E081ED94E00E94E1031092D704ED
:102C60008EE090E00E949B19EC0160E084E00E94FD
:102C70003C0BEFEEF0E0E491E883EBEDF0E0E49163
:102C8000F0E0EE0FFF1FED53FF4F859194919A8373
:102C900089831B861D861C86FE013B96CE0103960A
:102CA0001292E817F907E1F7D093CC04C093CB0454
:102CB00084E190E00E949B19FC01D783C6831482B3
:102CC0001582108289E0818381E082838383138A65
:102CD000128AF093CE04E093CD041092D80410929F
:102CE000D9041092DA041092DB041092D0041092EE
:102CF000CF0463ED72E08CE894E00E94210463ED60
:102D000072E086E894E0DF91CF910C942104FB01FE
:102D1000DC0102C005900D9241505040D8F7089553
:102D2000BB274A3031F4992322F4BDE29095819576
:102D30009F4F0C949C16BB27FB015527AA27880F91
:102D4000991FAA1FA41710F0A41B83955051B9F71F
:102D5000A05DAA3308F0A95DA193009779F7B1119E
:102D6000B1931192CB010C94B516DC01FC01672FD5
:102D700071917723E1F7329704C07C916D93708352
:102D80006291AE17BF07C8F308950E94071708F4B1
:102D900081E00895E89409C097FB3EF490958095F2
:102DA000709561957F4F8F4F9F4F9923A9F0F92F11
:102DB00096E9BB279395F695879577956795B7958F
:102DC000F111F8CFFAF4BB0F11F460FF1BC06F5F75
:102DD0007F4F8F4F9F4F16C0882311F096E911C087
:102DE000772321F09EE8872F762F05C0662371F0A8
:102DF00096E8862F70E060E02AF09A95660F771FBC
:102E0000881FDAF7880F9695879597F90895990F97
:102E10000008550FAA0BE0E8FEEF16161706E807A4
:102E2000F907C0F012161306E407F50798F0621BC5
:102E3000730B840B950B39F40A2661F0232B242B9A
:102E4000252B21F408950A2609F4A140A6958FEFB9
:102E5000811D811D08950E943E170C94AF170E949A
:102E6000A11738F00E94A81720F0952311F00C94B8
:102E700098170C949E1711240C94E3170E94C01706
:102E800070F3959FC1F3950F50E0551F629FF001BD
:102E9000729FBB27F00DB11D639FAA27F00DB11DD6
:102EA000AA1F649F6627B00DA11D661F829F22275F
:102EB000B00DA11D621F739FB00DA11D621F839FE6
:102EC000A00D611D221F749F3327A00D611D231FBC
:102ED000849F600D211D822F762F6A2F11249F570A
:102EE00050409AF0F1F088234AF0EE0FFF1FBB1F0D
:102EF000661F771F881F91505040A9F79E3F5105CC
:102F000080F00C9498170C94E3175F3FE4F3983E1D
:102F1000D4F3869577956795B795F795E7959F5F75
:102F2000C1F7FE2B880F911D9695879597F9089507
:102F300097F99F6780E870E060E008959FEF80EC6C
:102F4000089500240A94161617061806090608950F
:102F500000240A9412161306140605060895092E75
:102F60000394000C11F4882352F0BB0F40F4BF2BE4
:102F700011F460FF04C06F5F7F4F8F4F9F4F089524
:102F800057FD9058440F551F59F05F3F71F047951A
:102F9000880F97FB991F61F09F3F79F087950895FF
:102FA000121613061406551FF2CF4695F1DF08C01E
:102FB000161617061806991FF1CF8695710561053B
:102FC00008940895E894BB2766277727CB0197F9E3
:102FD00008952F923F924F925F926F927F928F92BD
:102FE0009F92AF92BF92CF92DF92EF92FF920F9398
:102FF0001F93CF93DF93CDB7DEB7CA1BDB0B0FB6A2
:10300000F894DEBF0FBECDBF09942A88398848885E
:103010005F846E847D848C849B84AA84B984C884F4
:10302000DF80EE80FD800C811B81AA81B981CE0FEB
:10303000D11D0FB6F894DEBF0FBECDBFED010895D0
:103040005058BB27AA270E9438180C94AF170E942B
:10305000A11738F00E94A81720F039F49F3F19F407
:1030600026F40C949E170EF4E095E7FB0C94981749
:10307000E92F0E94C01758F3BA1762077307840735
:10308000950720F079F4A6F50C94E2170EF4E0957C
:103090000B2EBA2FA02D0B01B90190010C01CA0112
:1030A000A0011124FF27591B99F0593F50F4503EBD
:1030B00068F11A16F040A22F232F342F4427585FAF
:1030C000F3CF469537952795A795F0405395C9F7C7
:1030D0007EF41F16BA0B620B730B840BBAF091507F
:1030E000A1F0FF0FBB1F661F771F881FC2F70EC01E
:1030F000BA0F621F731F841F48F4879577956795F1
:10310000B795F7959E3F08F0B0CF9395880F08F0DC
:103110009927EE0F9795879508950E94A1180C9412
:10312000AF170E94A81758F00E94A11740F029F489
:103130005F3F29F00C94981751110C94E3170C94ED
:103140009E170E94C01768F39923B1F3552391F39A
:10315000951B550BBB27AA2762177307840738F006
:103160009F5F5F4F220F331F441FAA1FA9F335D063
:103170000E2E3AF0E0E832D091505040E695001C17
:10318000CAF72BD0FE2F29D0660F771F881FBB1FD1
:10319000261737074807AB07B0E809F0BB0B802DAF
:1031A000BF01FF2793585F4F3AF09E3F510578F0DB
:1031B0000C9498170C94E3175F3FE4F3983ED4F314
:1031C000869577956795B795F7959F5FC9F7880FAF
:1031D000911D9695879597F90895E1E0660F771F01
:1031E000881FBB1F621773078407BA0720F0621B92
:1031F000730B840BBA0BEE1F88F7E09508950E94BD
:1032000006196894B1110C94E31708950E94C81729
:1032100088F09F5798F0B92F9927B751B0F0E1F097
:10322000660F771F881F991F1AF0BA95C9F714C047
:10323000B13091F00E94E217B1E008950C94E217CA
:10324000672F782F8827B85F39F0B93FCCF3869580
:1032500077956795B395D9F73EF4909580957095DD
:1032600061957F4F8F4F9F4F08950E94071708F475
:103270008FEF08950E940717880B990B0895991BEB
:1032800079E004C0991F961708F0961B881F7A955D
:10329000C9F78095089597FB072E16F4009407D080
:1032A00077FD09D00E94871907FC05D03EF4909560
:1032B00081959F4F0895709561957F4F0895A1E284
:1032C0001A2EAA1BBB1BFD010DC0AA1FBB1FEE1FA0
:1032D000FF1FA217B307E407F50720F0A21BB30BEB
:1032E000E40BF50B661F771F881F991F1A9469F767
:1032F00060957095809590959B01AC01BD01CF01C3
:103300000895EE0FFF1F0590F491E02D0994AA1B7C
:10331000BB1B51E107C0AA1FBB1FA617B70710F0C0
:10332000A61BB70B881F991F5A95A9F780959095F2
:10333000BC01CD0108950F931F93CF93DF9382308B
:10334000910510F482E090E0E0910605F091070508
:1033500020E030E0A0E0B0E0309719F140815181E9
:103360000281138148175907C8F08417950769F43B
:10337000109731F012960C93129713961C9327C056
:10338000009306051093070522C02115310519F099
:103390004217530718F49A01BD01EF01DF01F8014C
:1033A000DBCF21153105F9F0281B390B243031050D
:1033B00080F48A819B816115710521F0FB01938363
:1033C000828304C09093070580930605FE01329620
:1033D00044C0FE01E20FF31F819391932250310903
:1033E000398328833AC02091040530910505232BA9
:1033F00041F420910201309103013093050520939F
:10340000040520910001309101012115310541F49D
:103410002DB73EB74091040150910501241B350B97
:10342000E0910405F0910505E217F307A0F42E1BC7
:103430003F0B2817390778F0AC014E5F5F4F241718
:10344000350748F04E0F5F1F509305054093040564
:103450008193919302C0E0E0F0E0CF01DF91CF9142
:103460001F910F910895CF93DF93009709F481C0C6
:10347000FC01329713821282A0910605B0910705D4
:10348000109781F420813181820F931F20910405D0
:10349000309105052817390751F5F0930505E0939C
:1034A000040567C0ED0120E030E0CE17DF0740F4EF
:1034B0004A815B819E0141155105F1F0EA01F5CF8A
:1034C000D383C28340815181840F951FC817D907C8
:1034D00059F488819981840F951F02969183808386
:1034E0008A819B81938382832115310529F4F0938E
:1034F0000705E09306053DC0E901FB83EA83499196
:103500005991C40FD51FEC17FD0761F4808191819B
:10351000840F951F0296E9019983888382819381A4
:103520009B838A83E0E0F0E012968D919C91139743
:10353000009719F0FD01DC01F7CF8D919C91119757
:103540009D012E5F3F4F820F931F20910405309104
:1035500005052817390769F4309729F410920705F3
:103560001092060502C013821282B0930505A09343
:103570000405DF91CF910895A0E0B0E0E2ECFAE11C
:103580000C94ED17EC01009721F4CB010E949B19DC
:10359000B4C0FC01E60FF71F9C0122503109E2176D
:1035A000F30708F4A8C0D9010D911C9111970617D3
:1035B0001707B0F00530110508F49BC0C801049747
:1035C0008617970708F495C002501109061B170BC0
:1035D000019311936D937C93CF010E94331A89C09C
:1035E0005B01A01AB10A4C01800E911EA091060544
:1035F000B0910705612C712CE12CF12C109709F486
:1036000046C08D919C911197A815B905B1F56C0133
:1036100042E0C40ED11CCA14DB0478F14C018A18B4
:103620009B08640142E0C40ED11C1296BC90129714
:103630001396AC91B5E0CB16D10440F0B282A383CF
:1036400091828082D9016D937C9309C00E5F1F4FD8
:10365000800F911FF90191838083EB2DFA2FE114E4
:10366000F10431F0D7011396FC93EE93129741C009
:10367000F0930705E09306053CC06816790608F448
:103680003C017D0112960D90BC91A02DB7CF809189
:1036900004059091050588169906E1F466167706EB
:1036A000C8F48091000190910101009741F48DB719
:1036B0009EB74091040150910501841B950BE817BA
:1036C000F907C8F4F0930505E0930405F901718347
:1036D00060830FC0CB010E949B197C01009759F0B9
:1036E000A801BE010E94871BCE010E94331AC701A8
:1036F00004C0CE0102C080E090E0CDB7DEB7EEE0BE
:103700000C94091881E090E0F8940C94A01BFB0144
:10371000DC0102C001900D9241505040D8F708954D
:10372000FB01DC018D91019080190110D9F3990BF7
:103730000895FB01DC0101900D920020E1F708954E
:1037400010E0C0E9D0E004C0FE010E94811921967A
:0A375000C139D107C9F7F894FFCF83
:10375A000000080580005E00BC0077010000000040
:10376A004F01BC00E6009C011701F50009010000A9
:10377A000000F902CC029702E0018F027B026C0280
:10378A00000000006C03F9075703000000005D0306
:10379A00F807550300000000FC07510371030000FD
:1037AA000000FA075903E00100000000FB075B0371
:1037BA00760300000000F707530300000000E50746
:1037CA00ED0700000000E101BC009702E0013102B0
:1037DA004902C8014C65206D6F64756C65205254AE
:1037EA004320657374204F4B00506F756C74727967
:1037FA005F646F6F725F6374726C5F56302E312034
:10380A0032395F31325F32322F006D4100435F4FF0
:10381A004B2F00435F4B4F2F004F5F4F4B2F004FF3
:10382A005F3131004F5F31315F41434B2F004F5FB2
:10383A003031004F5F30315F41434B2F00435F31DE
:10384A003100435F31315F41434B2F00435F3031D9
:10385A0000435F30315F41434B2F004F5F303000F0
:10386A004F5F30305F41434B2F00435F303000439E
:10387A005F30305F41434B2F0053544F5000535435
:10388A004F505F41434B2F0046435F4C0046435F16
:10389A004C5F41434B2F0046435F4C5F312F00463C
:1038AA00435F4C5F302F0046435F480046435F4802
:1038BA005F41434B2F0046435F485F312F00464329
:1038CA005F485F302F00504F554C5F5000504F55A6
:1038DA004C5F505F41434B2F00504F554C5F505F38
:1038EA00312F00504F554C5F505F302F00535441D9
:1038FA0054455F440053544154455F445F41434B30
:10390A002F0053005F0054454D500054454D505F01
:10391A0041434B2F006E616E00696E66006F7666DA
:10392A00000D0A00540073746F7000646F776E00A4
:04393A0075700000A4
:00000001FF
